:020000040800F2
:10000000500D0020650200086D0200086F02000814
:100010007102000873020008750200080000000069
:10002000000000000000000000000000770200084F
:1000300079020008000000007B0200081D20000873
:100040007F0200087F0200087F0200087F0200088C
:100050007F0200087F020008691800087518000870
:10006000811800087F0200087F0200087F02000854
:100070007F0200087F0200087F0200087F0200085C
:10008000A9100008D910000859100008000000004D
:100090000000000000000000000000007F020008D7
:1000A0007F020008592000087F0200087F02000834
:1000B000D92000087F0200087F0200087F020008A4
:1000C0007F0200087F0200087F0200087F0200080C
:1000D0007F0200087F0200087F0200080000000085
:1000E0007F0200087F0200087F0200080000000075
:1000F0000000000000000000000000007F02000877
:10010000000000007F0200087F0200087F02000854
:1001100000000000000000000000000000000000DF
:10012000251100087F0200087F0200087F020008F6
:100130007F02000800000000000000000000000036
:100140000000000000000000000000007F02000826
:100150007F0200087F0200087F0200087F0200087B
:100160007F0200087F02000800000000000000007D
:10017000000000000000000000000000000000007F
:10018000000000007F0200080000000000000000E6
:100190007F0200087F02000800F002F800F052F829
:1001A0000AA090E8000C82448344AAF10107DA45D2
:1001B00001D100F047F8AFF2090EBAE80F0013F0D2
:1001C000010F18BFFB1A43F0010318479C560000AB
:1001D000BC560000103A24BF78C878C1FAD852073C
:1001E00024BF30C830C144BF04680C6070470000B1
:1001F0000023002400250026103A28BF78C1FBD830
:10020000520728BF30C148BF0B607047662903F012
:100210004286642900F0AA80782900F0E3807329DF
:1002200000F04184002070471FB503F027FE00F066
:100230003FFC04000020002103F0EAF8E0601FBD4D
:1002400010B510BD00F034FD1146FFF7EDFF02F0D0
:1002500087FA00F052FD03B4FFF7F2FF03BC00F091
:1002600095FD00000948804709480047FEE7FEE782
:10027000FEE7FEE7FEE7FEE7FEE7FEE7FEE7FEE756
:1002800004480549054A064B70470000492000080C
:100290009901000850070020500D0020500900204F
:1002A000500900200FB41CB5074B06AA7B446946D1
:1002B0000090059800F0CDFB0020694600F0DCFBC3
:1002C0001CBC5DF814FB0000C907000070B50446B3
:1002D00085690068C10601D5302600E02026C007E8
:1002E00007D070BDD4E9012130469047206A401CF8
:1002F00020626D1EF6D570BD70B504468569007824
:10030000C00707D170BDD4E9012120209047206AA1
:10031000401C20626D1EF6D570BD70B50C460546BA
:10032000012A05D02878800600D5EA69002302E07A
:10033000012305E05B1C934202D2E05C0028F9D166
:10034000A869E618C01AA861286A184428622846D5
:10035000FFF7BCFF04E0D5E9012114F8010B904739
:10036000B442F8D32846FFF7C7FF70BD2DE9F0412E
:100370000646002410687529314616A510D0AFF343
:100380000080002802DA404213A507E031688A079E
:1003900001D512A502E0490704D511A5012401E009
:1003A000AFF3008000210A2206F1240709E0B0FB28
:1003B000F2FCB0FBF2F302FB1C003030785418461C
:1003C000491C0028F3D123462A463046BDE8F041B7
:1003D00000F0D3B8000000002D0000002B0000004A
:1003E0002000000070B504460D4621461068AFF3AA
:1003F00000802188090502D50F4A7A4402E00E4A9E
:100400007A440E32002104F1240305E000F00F06C7
:100410000009965D5E54491C0028F7D1207800231E
:10042000000704D5702D02D009B1022311322046F5
:10043000BDE8704000F0A1B89C3A00002DE9F05FE3
:10044000894604464FF0000ADFF824B1FB44C0F8A7
:1004500020A02046E168884700287DD0252806D0C6
:10046000D4E901219047206A401C2062F1E7002571
:100470005F462046E16888472028064607DB312E84
:1004800005D2B81910F8200C08B10543F1E7A80708
:1004900001D525F00405C4F81CA00027C4F818A055
:1004A0002A2E09D0304602F0ABFF38B304EB8708A0
:1004B000303EC8F8186019E059F8041B204604EBD8
:1004C00087029161E1688847012F064618D1E069EB
:1004D000002820DA25F020051DE0D8F8180000EBF0
:1004E000800006EB40003038C8F818002046E1686C
:1004F0008847064602F084FF0028EED1012F0AD07B
:100500002E2E08D12046E16888477F1C0646022F20
:1005100045F02005C4DBA069002803DA404245F01D
:100520000105A061E80701D025F01005A6B1A6F1EC
:100530004100192802D8203645F400654A46314664
:10054000204625604D46FFF761FE60B1012807D0C7
:10055000ED1D25F0070000E007E000F1080978E74D
:1005600005F1040975E730467AE7206ABDE8F09F97
:10057000723A00007047704770472DE9F0470D460A
:1005800099469246044600F124080168880604D57D
:10059000E06921F01001216000E00120A84201DDA6
:1005A000471B00E00027A1697A1902EB0900081A2D
:1005B000A0612078C00602D42046FFF787FE0026FF
:1005C00008E0D4E901211AF806009047206A401C8F
:1005D000761C20624E45F4DB2078C0060AD5204602
:1005E000FFF774FE06E0D4E9012130209047206A2D
:1005F000401C2062381EA7F10107F4DC07E0D4E9B3
:10060000012118F805009047206A401C2062281E2E
:10061000A5F10105F3DC2046FFF76EFE2078000609
:1006200002D50220BDE8F0870120FBE72DE9FF4F4E
:100630000C461E464FF0FF378BB0D2E90001DDF8C3
:1006400060800A908A46C1F30A5505B93D460021EB
:1006500008464FF00000BAF1000F00F4400005DA40
:1006600000EB80004FF4400101EA50004FEA90593E
:10067000B9F1010F00DDB9460A9850EA4A000ED0E0
:1006800044F61050A5F2FF3545432F14B8F1000F82
:100690001ED07542291E1EDDC9F100021CE0B8F112
:1006A000010F4FF0000001D0302103E0F24305E0DC
:1006B0002154401CB042FBDB304600220021215473
:1006C0000B99C1F80880C1E900200FB0BDE8F08F98
:1006D000BD1B6D1CDEE74A4600DA694206A800F041
:1006E00071FA06AB93E8070003AB83E807005046B6
:1006F0000A9902F035FA8DE80700A0F500501F387E
:1007000000900398002D0ADD42F21F014A4608447A
:10071000002303A90390684602F09EFC09E0A0F5BF
:1007200000504A461F38002303A90390684602F090
:10073000A8FC8DE807000004000C03D04FF0FF3048
:10074000410800E01046B8F1000F03D000220092EB
:1007500015461EE0751E05D400F0AEF93032625524
:100760006D1EF9D5B3460122084302D000227F1C3A
:1007700004E02078302801D100227F1E002A09974A
:1007800084D01DE0112D07DA00F096F93032625561
:100790006D1C50EA0102F5D1084302D00098C8B19F
:1007A0000EE00021681E05E0235C625C6354225465
:1007B000401E491C8142F7DBAB46A81B401E099036
:1007C000002004F80B000B98099AC0F80880C0E9D3
:1007D000002B7AE711264FF0000857E72DE9F04F7C
:1007E00088460446D21D22F0070191B0D1E90001EC
:1007F000CDE90A0102F07CFD02460B98C00F01D042
:100800002D2007E02068810701D52B2002E0202160
:1008100001EAC000032A099001D0072A05DB03463C
:100820004146204600F08EF90BE12078800601D584
:10083000E06900E00620B8F1650F814606D0B8F106
:10084000660F18D0B8F1670F70D131E00020B9F110
:10085000110F009001DB112301E009F101030AAA45
:1008600001A90CA8FFF7E2FEDDE90C70002609F1F2
:100870000105834647E001204B4600904FF00047BA
:100880000AAA01A90CA8FFF7D1FEDDE90DB00C9969
:100890005D46002610B909F101000D18B9EB0500FD
:1008A00003D4C0F1FF3609F10105A5EB09002BE0E7
:1008B000B9F1010F01DA4FF001090020B9F1110F70
:1008C0000090484601DD112300E003460AAA01A971
:1008D0000CA8FFF7ABFEDDE90C704D460026834601
:1008E000207800070AD4AB4500DA5D4601A8012D47
:1008F00004DD411911F8011C302907D04F4502DAF7
:1009000017F1040F04DA012082460FE06D1EEEE7B6
:10091000002F02DCED1B3E4403E0781CA84200DD02
:100920007D1CB81B00F1010A4FF00047207800073A
:1009300003D4AA4501DB4FF0FF3A0021B7F1004F85
:100940000DF143088DF8431024D002202B23002FF3
:1009500001DA7F422D230A21021EA0F1010000DCF2
:100960005FB197FBF1FC97FBF1F201FB1C7C174692
:100970000CF1300C08F801CDEEE7A8F1010003708E
:100980002188090501D5452100E06521A0F1010874
:1009900000F8011C09980FA9A1EB0807FF1D00B181
:1009A0000120411901EBEA70A1693844081A401E80
:1009B000A0612078C00602D42046FFF787FC099882
:1009C00028B1D4E901219047206A401C2062207898
:1009D000C00622D52046FFF779FC1EE0002E04DB7E
:1009E000B34502DD01A8805D00E03020D4E901219B
:1009F0009047206A401C2062761CAAF101005FEA41
:100A0000000A0AD100F054F8C0680168405CD4E9DB
:100A100001219047206A401C2062281EA5F1010593
:100A2000DCDC07E0D4E9012118F8010B9047206ACB
:100A3000401C2062381EA7F10107F3DC2046FFF7B7
:100A40005BFC032011B041E601694A1C0261087891
:100A5000704700B58FB0CDE90131002105910549FE
:100A60007944CDE9031011466846FFF7E7FC0FB063
:100A700000BD0000E5FFFFFF0A6802F8010B0A60F5
:100A8000704710B5436913B1AFF3008001E0FFF781
:100A900044FC012010BD127800F124010A700022EC
:100AA0004A700122EDE711684FF0FF32E9E70000DC
:100AB000004870474800002030B5B0F10A0271F1DB
:100AC00000034FEA900E4EEA817EB0EB0E0061EB20
:100AD00091014FEA101E4EEA017E10EB0E0041EB31
:100AE00011114FEA102E4EEA016E10EB0E0041EB91
:100AF00011214FEA104E4EEA014E10EB0E0041EB71
:100B00001141401841F100014FEAD00040EA417024
:100B10004FEAD1014FEA810444EA907410EB80055A
:100B200044EB01046D1944EB0404521BA3414FF044
:100B3000000348BF0A3200D530BD401C41F100011E
:100B400030BD00002DE9F0411F4604460326016830
:100B5000072A01F4006004DB08B116A505E016A51C
:100B600003E008B115A500E015A521F010002060F4
:100B7000A069C01EA0610FB1401EA0612046FFF712
:100B8000A5FB4FB1D4E9012138469047206A401CAB
:100B90002062C01C206206E0206AFAE7D4E9012145
:100BA00015F8010B9047761EF8D22046FFF7A4FBFC
:100BB000BDE8F0814E414E006E616E00494E460028
:100BC000696E66002DE9F047814616468AB03548C1
:100BD00078440DC88DE80D0032487844801C03AC81
:100BE0000DC884E80D0041F69B300844372190FB86
:100BF000F1F290FBF1F5A5F1800501FB12041B3C1D
:100C000002D56442012000E00020DFF898A0804671
:100C10000027FA44AAF1BE0A0EE0E0070AD03246E5
:100C2000684607EB470101230AEB810102F029FA2C
:100C30008DE8070064107F1C002CEED1194F7F4413
:100C4000AE3F19E0E80715D007EB04100DF1180AC4
:100C500090E80E008AE80E00C068F04201D19819B1
:100C600008903246012306A903A802F00AFA03AB52
:100C700083E807006D10641C002DE3D14FF00103E1
:100C800032466946B8F1000F03A802D002F0E4F939
:100C900001E002F0F6F9C9E90001C9F808200AB03C
:100CA000BDE8F0877C330000004870472800002032
:100CB0007546FFF7F9FFAE4605006946534620F03A
:100CC0000700854618B020B5FFF7DAFABDE82040E6
:100CD0004FF000064FF000074FF000084FF0000BF8
:100CE000AC46ACE8C009ACE8C009ACE8C009ACE867
:100CF000C00921F007018D46704710B50446AFF3D7
:100D000000802046BDE81040FFF7A5BA00000000B3
:100D100030B44FF0013C50F8042B51F8043BCCFAAE
:100D200052F4D51A20D1FCB950F8042B51F8043BE9
:100D3000CCFA52F4D51A17D1B4B950F8042B51F8A3
:100D4000043BCCFA52F4D51A0ED16CB950F8042BEE
:100D500051F8043BCCFA52F4D51A05D1002CDAD064
:100D600030BC4FF00000704729BAB1FA81F111F0A0
:100D70001801D1F120008440F2D1CA40CB4012F0DA
:100D8000FF0213F0FF0330BCD01A7047014918204E
:100D9000ABBEFEE7260002007047000070B5AA480F
:100DA00000220026016841F480710160A7480168B3
:100DB00021F040710160A6490D794C798B79062D9F
:100DC00008BF0326082D08BF02260A2D08BF0126EA
:100DD0000C3D18BF3546066846EA0566066006689B
:100DE00046F480760660D0F8006326F44036C0F8FA
:100DF0000063A61E18BF2E04042C08BF4FF48036D3
:100E0000062C08BF4FF40036082C08BF4FF44036BC
:100E1000D0F800433443C0F80043102B846A24F414
:100E2000700484628B4C88BF012304EB0353846AF3
:100E300023438362036B23F01F030363CB79046BAB
:100E40000F2B98BF1C430463036B23F47873036375
:100E50000B7A0F2B88BF0023046B44EA4313036310
:100E6000036B23F4F84303634B7A0F2B88BF0023F3
:100E7000046B44EA83230363036B23F47823036343
:100E80008B7A0F2B88BF0023046B44EAC3330363C0
:100E9000036B23F0F8730363CB7A0F2B88BF002317
:100EA000046B44EA03530363036B23F07853036337
:100EB0000B7B0F2B88BF0023046B44EA436303635F
:100EC000C36A23F01F03C3624B7BC46A0F2B98BF16
:100ED0001C43C462C36A23F47873C3628B7B0F2BF9
:100EE00088BF002300F038FFCB7B0F2B88BF002387
:100EF00000F054FF0B7C0F2B88BF0023C46A44EA28
:100F0000C333C362C36A23F0F873C3624B7C0F2BF5
:100F100088BF0023C46A44EA0353C362C36A23F050
:100F20007853C3628B7C0F2B88BF0023C46A44EACA
:100F30004363C362C36A23F01F03C362CB7CC46AEA
:100F40000F2B98BF1C43C462C36A23F47873C36237
:100F50000B7D0F2B88BF002300F0FEFE4B7D0F2B77
:100F600088BF002300F01AFF8B7D0F2B88BF002362
:100F7000C46A072B44EAC334C4628260C26028BFDB
:100F800007238A69D11E18BF19460F2A08BF0121FD
:100F90001C2A08BF0221382A08BF0321542A08BF8F
:100FA0000421702A08BF0521902A08BF0621B2F546
:100FB000F07F08BF0721C2680A43C260C26842EAE4
:100FC0008112C260C26842EA4122C260C26842EA3B
:100FD0000132C260C26842EAC132C260C26842EAFB
:100FE0008142C260C26842EA4152C260C26842EABB
:100FF0000162C260C26842EAC162C26082680A439A
:101000008260826842EAC1028260826842EA81129A
:101010008260826842EA41228260826842EA01324A
:101020008260826842EAC1328260826842EA81421A
:101030008260826842EA41528260826842EA0161CB
:10104000816000F044FE70BD44380240042001403D
:10105000C40000200000F0FF7047000070B5114C84
:101060004FF4803525602568AD03FCD500F01DFEEA
:1010700008BF4FF40031082A08BF4FF4403108433D
:1010800040F480006060206840F08070206020683C
:10109000800101D400BFFAE700F051FEA06800070C
:1010A000FCD570BD0038024014480168090558BFDE
:1010B0007047816841F400618160D0F8841021F0AC
:1010C0000101C0F8841000F001B800BF14480021ED
:1010D000017001F037B800BF08480168890258BFA5
:1010E0007047816841F400118160D0F89C1021F0B4
:1010F0000101C0F89C1000F003B800BF046002407A
:101100009D480168490601D400BFFAE779480068A4
:10111000C00702D102480021017001F017B800BFDA
:101120009200002008480168890658BF704781680E
:1011300041F0200181600169C90503D4016921F0F2
:101140000101016100F002B80064024070B5B349CA
:1011500000220868431C14480B60102A09D001EBD8
:10116000420400EB82050132648C6E6834446C608A
:10117000F3E7CA69934205D20D48016841F0804106
:10118000016070BD002300240B600849102CF3D0CF
:1011900000EB84056E686B6001EB84050134B6FBDF
:1011A000F2F66E60F2E700BF74010020300100200B
:1011B000082001402DE9F84F8946054600F0FCFF64
:1011C000214EED000020FF21C2B2954202D9B15458
:1011D0000130F9E7E24F10201A4C19494FF0010A8B
:1011E0004FF00408F8770220C7E9021987F81AA01F
:1011F000C7E904584FF000098B46388304F1880092
:10120000C7E9004008680868C7F81B9000F012F9A9
:101210001120C7F81B9087F81AA0C7E902B6C7E9E2
:101220000458F8774FF48170388304F1A000C7E9BF
:10123000004000F0FFF8BDE8F84F00F091BF00BF9C
:101240000444004000600240B80100202DE9F84F3E
:10125000824600F0BDFF264DF0200021082907D06E
:1012600000F001024008524205F831200131F5E753
:10127000BB4E414F10201F4A4FF0010B08210024A4
:10128000F077022007F1040807F5073986F81AB04D
:1012900030830420C6E9028AC6E900924FF0040AAE
:1012A000C6E9041078687868C6F81B4000F0C2F8F8
:1012B0001120C6F81B4086F81AB0C6E90285F077FF
:1012C0004FF4817030830B481830C6E90090082035
:1012D000C6E9040A00F0AEF8386820F04000386033
:1012E000386820F020003860BDE8F84F00F038BFC3
:1012F000F801002088600240F8B50D46044600F071
:101300005BFF1B490020A0420ED02B5C0022082A64
:1013100007D003F00106DBB276425B088E5401323F
:10132000F5E708310130EEE78D481121124D104AE2
:10133000104BE400C17700212E1D05F50737C0F8DA
:101340001B100121C0E90073C0E90262817640F2FE
:10135000031101830421C0E9044100F06BF82868FF
:1013600020F040002860BDE8F84000F0F5BE00BF66
:1013700038020020A0600240004400402548016877
:10138000C9073ED150F8081C41F0200140F8081C64
:1013900021498160214901F12202C2604FF080722F
:1013A00089794160016821F060610160016841F460
:1013B00040310160416921F004014161016821F07F
:1013C000C0010160016841F480610160016821F49D
:1013D00000710160016841F400610160016841F43D
:1013E00000510160016841F480710160016841F0C1
:1013F000100101600A490A60016841F001010160C1
:101400007047016821F0010101600168C907B9D086
:1014100000BFFAE7106402404C200140C4000020E5
:1014200004E100E00248016841F4C0010160704736
:101430003038024070B54A4948680268D20779D10D
:101440000A6801F1080538CD966846F020069660D6
:101450008360C4604560026822F0606202604A698D
:10146000036843EA42620260026822F4403202608A
:101470000A7E042A88BF0322036843EA024202600C
:10148000426922F004024261026822F0C002026056
:101490004A7E032A88BF0022036843EA8212026060
:1014A000026822F4806202608A7E036843EA822234
:1014B0000260026822F400720260CA7E036843EA96
:1014C00042220260026822F4C05202604A7F032A6C
:1014D00088BF0222036843EAC2220260026822F443
:1014E000C04202600A7F032A88BF0222036843EADF
:1014F00042320260026822F4807202608A7F0368CE
:1015000043EA02220260026842F010020260CA7FCF
:1015100014491F2A9EBF012393400B6002F0E00391
:10152000402B12D0202B15D1203A012303FA02F2CE
:101530004A600FE0026822F0010202600268D207EE
:101540003FF47EAF00BF4868F8E7403A012303FA52
:1015500002F28A60016841F00101016070BD00BFC4
:101560007802002000E100E02DE9F8430646002063
:10157000854F904689468DF80300787828B98348CE
:1015800001243C70FFF762FE7C703C78787801287B
:1015900008BF002C07D1CC200DF1030100F06EFB39
:1015A00002203C7078707878022808BF002C07D1A0
:1015B00044200DF1030100F061FB03203C707870C2
:1015C0007878032808BF002C05D071480068B0FA6D
:1015D00080F0400906E004204FF47A7178706C487E
:1015E000016000207978042902D108B105207870C3
:1015F0007878052807D1012038706448FFF726FE67
:10160000062078703C787878062808BF002C07D12F
:1016100055200DF1030100F031FB07203C7078707C
:101620007878072808BF002C07D108203146082504
:10163000FFF762FE01243C707D707878082808BFAF
:10164000002C07D1BE200DF1030100F017FB09208B
:101650003C7078707878092808BF002C08D10120E8
:101660004A4938700220FFF7A5FD0A2078703C78BF
:10167000787800260A2808BF002C19D14349002099
:101680000026102802D000F09FFBFAE706F00F00BA
:1016900002F028F99FED3A0B00F079FB02F0DCF83C
:1016A00000F085FB88BF0020A8F800000B207870B0
:1016B00078780B2807D1012038703448FFF7C6FD31
:1016C0000C2078703C7878780C2808BF002C07D163
:1016D00055200DF1030100F0D1FA0D203C70787017
:1016E00078780D2808BF002C07D108204946FFF75D
:1016F00003FE01240E203C70787078780E2808BF15
:10170000002C07D1BE200DF1030100F0B7FA0F2025
:101710003C70787078780F2808BF002C08D1012021
:101720001A4938700220FFF745FD102078703C7888
:101730007878102808BF002C18D1144900201028F0
:1017400002D000F041FBFAE71120787006F00F009C
:1017500002F0C8F89FED0A0B00F019FB02F07CF8CC
:1017600000F025FB88BF0020A8F802007878112837
:1017700004BF002078700120BDE8F88300BF00BFDF
:10178000000000000000E43F920000209C020020C6
:1017900008010020B0B500F0D1F800F0FCFA0020FC
:1017A00000F00CF900F0CAF8D02000F0D9F800F0F1
:1017B000B9F8164DA847164C2080A8476080A84766
:1017C000A080A847E080A8472081A847608100F05A
:1017D000AFF8A847A08100F0BDF8208800F0A6FA75
:1017E0002080608800F0A2FA6080A08800F09EFA55
:1017F000A080208900F09AFA2081608900F096FA92
:101800006081A08900F092FAA081B0BDA119000802
:10181000B600002010B500F0D4FA00F0BCFA0220A7
:1018200000F0CCF800F035FABDE8104000F092B8B6
:1018300010B500F0C6FA00F0AEFA012000F0BEF8D4
:1018400000F027FABDE8104000F084B810B500F0B1
:10185000B8FA00F0A0FA002000F0B0F800F019FA91
:10186000BDE8104000F076B80848016841F0010179
:10187000016070470548016841F00201016070474E
:101880000248016841F0040101607047143C0140C6
:1018900070B54C00022506688A40A54035430560B6
:1018A00045682A43426003FA04F283681A4382605F
:1018B000049AC368A2401A43C2606FF01F0208294D
:1018C00002EB810238BF8A00059901FA02F14FF05C
:1018D000240238BF202283581943815070BD49002B
:1018E000032202FA01F1026811430160704710B54A
:1018F0004900032304688B4002FA01F124EA030340
:101900000360C2681143C16010BD10B549000123D6
:1019100004688B4002FA01F123430360826811439B
:10192000816010BD3E48016841F4806101607047EC
:101930003B48016821F480610160704738480168C4
:1019400041F4807101604169C90718BF704700BF49
:10195000F9E700BF3248016841F400710160704747
:101960000E4901300A6841F8040C40F671000A681B
:1019700012F0020201D10138F9D100F079B900BFAB
:1019800006490A6841F8040C40F671000A6812F032
:10199000020201D10138F9D100F06AB914540040B3
:1019A0000C4940F671004A68520604D4013804BF5D
:1019B00000207047F7E70868704700BF05490860D6
:1019C0004868400701D400BFFAE74868C0F38020A8
:1019D000704700BF10540040104840F6FF72016885
:1019E00041F4001101600E48416821F03F0141605F
:1019F000416841F030014160C16941F40041C16179
:101A0000C1699143C161C16941F02801C1610F21E0
:101A10000162016841F001010160704740380240F5
:101A20000054004010B5254C4021F8222160244983
:101A30004A600A68920701D400BFFAE700F0F0029A
:101A40004A600A68920701D400BFFAE70001C0B2F9
:101A500048600868800701D400BFFAE7052000F05D
:101A6000C5FB00F056F9BDE8104000F0BFBB00BF59
:101A700010B5124C4021FA22216011494A600A68CF
:101A8000920701D400BFFAE700F0F0024A600A684A
:101A9000920701D400BFFAE70001C0B248600868AD
:101AA000800701D400BFFAE7052000F09FFB00F09B
:101AB00030F9BDE8104000F099BB00BF18000240AB
:101AC00008300140F8B55A4D0024202C0FD000F00A
:101AD00059F98020FFF7A6FF0026102E04D0A85D3C
:101AE000FFF7C6FF0136F8E710350134EDE7504C3B
:101AF000002604F50075202E12D046F08000C0B2FA
:101B0000FFF790FF8820FFF78DFF0027102F04D0EC
:101B1000E85DFFF7ADFF0137F8E710350136EAE77A
:101B200000200021FF2908BFF8BD44F82100013141
:101B3000F8E700BF2DE9F84F3D4BDFF8749003EB59
:101B4000001A92F800B0BBF1000F08BFBDE8F88F93
:101B50004FF0000E0092BEF1050F25D00EEB0100F4
:101B60000822702790FBF2F400F007006FF080026B
:101B700042FA00F8802222FA00F60BEB8B00544464
:101B8000484410F80E0017F1100C0AD0E25D05066B
:101B900042EA060358BF02EA0803E355103F40003B
:101BA000F1E70EF1010ED6E7009A06310132C8E7DF
:101BB000683F00082DE9F84F1D4B4FF0800903EBFB
:101BC000001A107890B300EB80004FF0000E0092E6
:101BD0004FEA400BBEF10A0F24D0164A0EEB0B0061
:101BE000F02732F810400EEB0100082290FBF2F5CE
:101BF00000F007006FF0800242FA00F829FA00F0C6
:101C0000554417F1100C0AD0EA5D260442EA00039D
:101C100058BF02EA0803EB55103F6400F1E70EF1EC
:101C2000010ED7E7009A0B310132CAE7BDE8F88F01
:101C3000500300206844000802EB400301EB400120
:101C4000704720604FF4027028607047086820F0E9
:101C500001000860704791FBF8F30BEB021401F0F0
:101C60000706013127FA06F6E55C3543E55470476F
:101C700008684868B2FA82F04009704701248DF87C
:101C800003000120FFF738BB016821F0400101602B
:101C900070470A20B4FBF0F000EB8001A4EB410197
:101CA00041EA0010C0B2FFF789BE40EA8110111F5F
:101CB000D4F8005440F20376B1FA81F140EA0360AF
:101CC000490935430904C4F80054062A704741689D
:101CD00041F480714160416841F4007141604168A4
:101CE00041F001014160416841F08041416070472D
:101CF0000902B0FBF1F01368013843F001031360EF
:101D0000704701220323CDE9004B3047027000F0F9
:101D100009B94FF480002060152000BF00BF00BF4C
:101D20007047016841F080010160704700F00F01C9
:101D3000C0F3031000EB800001EB40007047A06887
:101D400040F48050A060A06820F00300A060A0686C
:101D500040F00200A0607047C46A44EA4313C362C3
:101D6000C36A23F4F843C362704701220323CDE919
:101D7000004930474FF40271296042F2107121602E
:101D8000411C704744F08000C0B2FFF74BBE53ECDB
:101D9000102B01F0F7BDD020FFF7F2BDC46A44EA72
:101DA0008323C362C36A23F47823C3627047C6F3F4
:101DB0000B1101EB810100EB410081B2B1F5FA6F2B
:101DC00070470446FFF7BABD0A5CFF3AB2FA82F2E6
:101DD0005209824001301643704700002C4951F8E7
:101DE000300C40F0805041F8300C2A48026842F430
:101DF00080720260086800040BD4086840F48070A8
:101E00000860086840F001000860086840F400407D
:101E100008602148CA22826153228261026822F04E
:101E2000200202600968090430D4016841F0800191
:101E300001600168490601D400BFFAE7416847F62E
:101E4000FF7221F4FE0141604168914340F221128A
:101E50004160416841F4E0014160416811434160E3
:101E600050F8041C41F0800140F8041CC16841F0A6
:101E70008001C160C16821F01F01C160C16841F0EB
:101E80001601C160016821F080010160704700BF48
:101E900070380240007000400C28004010B55249D4
:101EA000C86820F02000C8600A68C2F30153C2F37A
:101EB0000340C2F3023443EA830304EB840400EBDF
:101EC00043034A488370C2F3032303EB4403437084
:101ED00002F00F03C2F3021202EB820203EB420292
:101EE0000270496801F48053C1F34232C270C1F3F9
:101EF000032243EA830302EBD322C1F3035342716B
:101F0000C1F3034203EB830302EB4302827101F04E
:101F10000F02C1F3011141EA810102EB410101719C
:101F200010BD00BFF0B53048C16841F08001C1600C
:101F3000C168490601D400BFFAE72C4A0A21137888
:101F400054789578DEB2B6FBF1F606EB8607A3EB84
:101F50004703DBB243EA0613E6B2B6FBF1F63703FA
:101F600006EB8606A4EB4604E4B247EA04242343C6
:101F7000ECB2B4FBF1F4260504EB8404A5EB4404B5
:101F8000E4B246EA0444234303605579D3781479D4
:101F90009279EEB2B6FBF1F6370306EB8606A5EBB7
:101FA0004605D6B2B6FBF1F6EDB247EA0525370590
:101FB00006EB8606A2EB4602D2B247EA024242EAAA
:101FC0004332E3B2B3FBF1F12A4301EB8103A4EB0B
:101FD0004303DBB243EA011111434160C16821F0C0
:101FE0008001C160F0BD00BF002800408A000020D1
:101FF00051490A6842F480520A6007490A6842EA75
:10200000C0004CF207321043086000BF086840F07F
:1020100040000860704700BF003001407B48016805
:10202000002918BF01390160704700BF42480168AC
:1020300041F48041016074485F214160016841F0D2
:1020400006010160704700BF0248016841F4700159
:102050000160704788ED00E010B51D480168C907B0
:1020600034D0016821F0010101601A4890E81E0097
:10207000002918BF01390160002A18BF013A4260E7
:10208000002B18BF013B8360002C18BF013C016985
:10209000C460002918BF013901614169002918BFD6
:1020A000013941618169002918BF01398161C16924
:1020B000002918BF0139C161016A002918BF01391F
:1020C0000162416A002918BF0139416210BD00BF99
:1020D000100001400801002007480168C90709D025
:1020E000016821F00101016004480168002918BF5E
:1020F00001390160704700BF100000404803002014
:102100000D4A4DF808EDFFF7F3FD5DF808EB0B4ABB
:1021100000231360D36843F00103D3609062FF2073
:10212000D0620748016841F000710160106840F01A
:1021300001001060704700BF4438024000000140B9
:1021400000E100E00A48FFF79FBD00BF08480168B2
:1021500021F08001016070470548FFF7E2BD00BF34
:102160000348016841F040010160FFF7DABD00BF9C
:102170001444004010B50E480E4C016841F4003183
:102180000160206820F480502060606820F4405096
:10219000606000F011F8206840F0080020602068BE
:1021A00040F004002060206840F40050206010BD22
:1021B000403802400C4400400B4800210160016897
:1021C00041F4D0710160016841F001010160704784
:1021D000054800210160016841F49C5101600168DB
:1021E00041F00801016070470844004006490A6850
:1021F00042F001020A60054A106010B100BF106889
:10220000FBE7FFF723BD00BF10E000E04C03002018
:10221000F8B5DFF88C43206818B9DFF8880300218F
:102220000180DFF884532868002840F0A681DFF899
:102230007473D24E38783168490706D5FFF79AFD96
:10224000022888BF002108463970C0B2012821D178
:10225000306880070DD542F210700022FFF7F1FCC4
:10226000D2480188172938BF4A1C028090B2FFF774
:10227000D1FA3068C0070DD042F21070FFF7E1FCD0
:10228000CA4801884A1E002908BF1722028090B25E
:10229000FFF7C0FA3878022822D1306880070DD5C0
:1022A00042F210700022FFF7CCFCC14801883B29A4
:1022B00038BF4A1C028090B2FFF7BAFA3068C007F4
:1022C0000DD042F21070FFF7BCFCB94801884A1EDD
:1022D000002908BF3B22028090B2FFF7A9FA3878A4
:1022E000032821D1306880070DD542F210700022FA
:1022F000FFF7A7FCAF4801883B2938BF4A1C028082
:1023000090B2FFF7A3FA3068C0070DD042F2107008
:10231000FFF797FCA74801884A1E002908BF3B2207
:10232000028090B2FFF792FA78783168490506D5B5
:10233000FFF720FD062888BF002108467970C0B24B
:1023400001281DD1306880070BD542F210700022A1
:10235000FFF777FC98480178172938BF4A1CFFF728
:10236000D5FC3068C0070BD042F21070FFF769FC53
:10237000914801784A1E002908BF1722FFF7C6FCC2
:10238000787802281ED1306880070BD542F2107091
:102390000022FFF756FC894801783B2938BF4A1CC8
:1023A000FFF7B4FC3068C0070BD042F21070FFF7A3
:1023B00048FC824801784A1E002908BF3B22FFF7EB
:1023C000A5FC787803281DD1306880070BD542F230
:1023D00010700022FFF735FC794801783B2938BF9F
:1023E0004A1CFFF793FC3068C0070BD042F2107014
:1023F000FFF727FC724801784A1E002908BF3B22DC
:10240000FFF784FC787804281ED1306880070BD54C
:1024100042F210700122FFF714FC6A480178072984
:1024200038BF4A1CFFF772FC3068C0070BD042F27D
:102430001070FFF706FC63480178013998BF072147
:102440000170FFF76FFD7878052860D1306880074C
:102450002BD5DFF874C142F2107020604FF4027087
:102460009CF8001028601E291AD8584A12780C2AA5
:1024700007D8012341F22A509340034201D04B1C5C
:102480000FE01D290CD80B2A04D80120904010F42D
:102490002D6FF4D101231B2903D8022AEFD000E0CD
:1024A00001238CF80030FFF73DFD3068C0072ED0C7
:1024B00042F21070FFF7C5FB43480178022901D3AF
:1024C000013921E0414909780C291ED8012241F245
:1024D0002A538A401A4204D112F42D6F11D01E21C2
:1024E00012E01F2202390270CAB20A2A0DD240F24B
:1024F000B52323FA02F2D20707D049B234A2515CC5
:1025000002E0022901D11C210170FFF70BFD787850
:1025100006281ED1306880070BD542F210700122C8
:10252000FFF78FFB294801780C2938BF4A1CFFF7B9
:10253000EDFB3068C0070BD042F21070FFF781FB53
:1025400022480178013998BF0C210170FFF7EAFC9D
:102550007878072811D1306880070BD542F21070C7
:102560001722FFF76EFB1D480178632938BF4A1C0C
:10257000FFF7CCFB3068C00702D1F8BD1004024061
:1025800042F210706322FFF75CFB144801781729B0
:1025900088BF4A1E0270BDE8F840FFF7C3BC00BF09
:1025A0000C0100208800002010010020BA0000204B
:1025B000B8000020B60000208C0000208B00002016
:1025C0008A0000208D0000208E0000208F00002057
:1025D0001C1E1E1E1E1E1E1E1E1E00009000002021
:1025E0002DE9F04F8BB09846002390420A9302DD0C
:1025F0000C46064603E04446164688460246964286
:1026000017D1444580F28680534B08F10100082120
:10261000802203EB0613A04200F0918094FBF1F5B9
:1026200004F00707013422FA07F75E5D3E435E556A
:10263000F1E7A4EB08001446009001F03CF90546D0
:10264000301B0F4601F037F902460B462846394643
:1026500000F0A8FFCDE90510701CCDE907804046C9
:1026600001F029F99FED3A1B9FED370BDFF8E8B039
:10267000CDE903104FF00808802751EC110BCDE98C
:102680000110089884425AD059EC10ABDDE90510CE
:10269000099452464B4601F075F9DDE9033200F02A
:1026A000CDFE41EC100B00F03BFE51EC100B01F0A5
:1026B000D3F8099D90FBF8F200F0070427FA04F420
:1026C0000BEB05118B5C23438B540799814201D19D
:1026D0000A9114E00099B1F1FF3F07DD0A996A1EE3
:1026E000013181420ADAFFF7B6FAFAE7411C6A1EA5
:1026F0000A9B994202DAFFF7AEFAF9E70A90DDE9A0
:1027000001325046494600F099FE099C41EC100BFD
:102710000134B6E7104A601C0821802302EB061240
:1027200040450CD0454608F0070708F1010895FB25
:10273000F1F523FA07F7565D3E435655F0E70BB027
:10274000BDE8F08F00BF00BF0000000000000000E7
:10275000000000000000F03F5003002000000000D7
:1027600086B01920C021022204234FF00409FEF78D
:1027700075FCFFF75BFCB8484FF47A71FFF7C0FCBB
:10278000FEF750FEB548016841F003010160FFF714
:1027900023F905204FF0050AFFF72AFCFFF71EFB7F
:1027A000FFF7E8FCAE4FAF4C0F2103223846A0479D
:1027B00038460C210322A047A7F580650621032295
:1027C0002846A04707F580600D210322A047384620
:1027D0000D210322A04738460E210322A047A24E16
:1027E0003846002102224FF00008B0473846012148
:1027F00002220124B047384602210222B04738465F
:102800000A210222B047994E2846072100220323BD
:10281000CDE9008A4FF0070BB0472846052100227A
:102820000323CDE9008AB04738460621FFF79DFA19
:1028300038460721FFF799FA28460221FFF761FA87
:1028400028460321FFF75DFA28460021FFF747F8E5
:1028500028460121FFF743F885484FF4F0714161A4
:102860004FF47A710471816182490160FEF786FD3F
:10287000FEF794FADFF804829FED738B9FED749B53
:10288000FFF7C6FCFFF70AFBFEF784FF7A4F787963
:102890003C78BB79FA7939797D78BE78FF788DE814
:1028A0008300404676A1CDE903650594FDF7FAFC67
:1028B000002000214246FFF73DF97A48007848B1F0
:1028C00000EBC00011211C22FFF7B6F908200822F6
:1028D000FFF786FE74487B4C76A103887348028814
:1028E0007348008800904046A047202000214246BF
:1028F0002546FFF75FF97449D1E9010B00F0F2FFBB
:10290000444658EC186B3246434600F04BFE814675
:1029100058468A4600F0E6FF43463246A04600F09D
:1029200041FE41EC100B204668A14A4653468DED0E
:10293000000BA847DFF8AC91302000212246AB46BF
:10294000C8476B4D684869492A46FEF70DFE28883E
:1029500000F0C8FF54EC196B3246234601F012F820
:10296000074668888A4600F0BDFF3246234601F0DC
:1029700009F841EC100B40465EA13A4653465C46CE
:102980008DED000BD847382000214246C8475E48ED
:1029900060A103785D4802785D4800780090404669
:1029A000D8470A2000214246C847644A6048624925
:1029B000127803785F480978007802F5FA62CDE969
:1029C00000125F4900EB400008445EA1C21E404671
:1029D000D847142000214246C847604C2078411E49
:1029E00002290AD800EBC00012211C22FFF724F9AB
:1029F00012201222FFF7F4FD2078011F02290CD8C3
:102A000000EBC0006FF029016FF01F02FFF714F90F
:102A10001C201C22FFF7E4FD2078072805D11C208C
:102A200054211C226A23FFF7DBFDFFF74BF80C490A
:102A30000869C0044FF0805058BF4FF4805088613F
:102A40001EE700BF00BF00BF0000000000B89340B9
:102A50009A9999999999B93F00D8B80530380240A8
:102A6000000402400B190008EF1800089118000834
:102A7000C80000200C080200DC020020E402002054
:102A8000253032782530327825303278253032784A
:102A9000253032782530327825303278253032783A
:102AA0000000000088000020B8000020BA000020CC
:102AB000B6000020253032643A253032643A2530A1
:102AC00032640000A5020008300100204144435F49
:102AD0006368302F313D20252E32662F252E326639
:102AE00042000000351B0008000000200800002004
:102AF00098020020D2E5ECEFE5F02E20252E31667D
:102B0000202F20252E3166008B0000208C00002015
:102B10008A000020C2F0E5ECFF20253032643A251F
:102B20003032643A253032642052544300000000B1
:102B30008E0000208D0000208F00002090000020DB
:102B400010000020C4E0F2E02025732F253032640D
:102B50002F253032642F2530326400008900002098
:102B60005FEA400C08BF91F0000F4FEA8C234FEA58
:102B7000C12243EA51514FEA1C5018BF00F5F04002
:102B80004FEA300018BF41F000415FEA6C5C00F092
:102B90002980BCF1FF3F08BF40F080407047130C14
:102BA00006BF12044FF0100C4FF0000C130E04BFC0
:102BB00012020CF1080C130F04BF12010CF1040CEB
:102BC000930F04BF92000CF1020CD30F04BF52000C
:102BD0000CF1010C11464FF00002A0F11F00A0EB18
:102BE0000C00704711F0004F08BF704731F00041F2
:102BF0003FF4D5AF0B0C06BF09044FF0100C4FF09B
:102C0000000C0B0E04BF09020CF1080C0B0F04BFE3
:102C100009010CF1040C8B0F04BF89000CF1020CAC
:102C2000CB0F04BF49000CF1010CCCF1200322FAB8
:102C300003F341EA030102FA0CF2A0EB0C0000F1ED
:102C40000100704723F07F4720F07F4C80EA0300AB
:102C500000F00040ACEB070303F57C5303F1FF03E6
:102C60002DE9804909B44FEA144324EA03484FEAA6
:102C7000154B25EA0B4E0FF2042606EB13273E7880
:102C800003FB0667C7F5000707FB06F64FEAD646C3
:102C900006F102064FEA543707FB066CCCF1005CE4
:102CA0004FEA1C472CEA074C0CFB06F507FB06F421
:102CB00004EB15464FEA961649085FEA320234BF24
:102CC00000204FF000404FEAD13706FB07FC4FEAE7
:102CD0001C4C0CFB0BF7D21B03FB0CF761EB070141
:102CE0000CFB0EF7B0EB074072EB17420CFB08F73A
:102CF00034BFA2EB0742B2EB074261EB17414FEA48
:102D00000C444FEA910706FB07FC4FEA1C4C0CFBF6
:102D10000BF7B0EBC74072EB573203FB0CF734BF35
:102D2000A2EBC742B2EBC74261EB57310CFB0EF787
:102D3000B0EBC70072EB57720CFB08F734BFA2EB85
:102D4000C702B2EBC70261EB57714FEA816141EAFA
:102D500092114FEA826242EA90124FEA806004EBDD
:102D6000CC04039F4FEAD13706FB07FC4FEA1C4C0B
:102D70000CFB0BF7D21B03FB0CF761EB07010CFB01
:102D80000EF7B0EB074072EB17420CFB08F734BFAD
:102D9000A2EB0742B2EB074261EB17414FEA8C55B9
:102DA00004EB9C244FEA910706FB07FC4FEA1C4CFE
:102DB0000CFB0BF7B0EBC74072EB573203FB0CF781
:102DC00034BFA2EBC742B2EBC74261EB57310CFBF9
:102DD0000EF7B0EBC70072EB57720CFB08F734BF6D
:102DE000A2EBC702B2EBC70261EB57714FEA8161F8
:102DF00041EA92114FEA826242EA90124FEA806001
:102E000015EB4C2544F100044FEAD13706FB07FCD3
:102E10004FEA1C4C0CFB0BF7D21B03FB0CF761EBCE
:102E200007010CFB0EF7B0EB074072EB17420CFBEF
:102E300008F734BFA2EB0742B2EB074261EB174140
:102E40004FEA813141EA92414FEA823242EA9042AE
:102E50004FEA80304FEA0C7615EB1C1544F1000464
:102E600048EA03434EEA0B484FF0000EB2EB080C61
:102E700071EB030724BF624639464EEB0E0E4FF04E
:102E8000000B0018524149414BEB0B0BB2EB080C05
:102E900071EB03077BF1000B24BF624639464EEB12
:102EA0000E0E4FF0000B0018524149414BEB0B0B3B
:102EB000B2EB080C71EB03077BF1000B24BF6246F9
:102EC00039464EEB0E0E51EA020718BF46F00106D6
:102ED00016EB0E7655F1000254F1000103D5BDE862
:102EE0008901BDE80088BDE88901BDE80048B61940
:102EF000524141EB0101A3F10103704780807F7EC5
:102F00007D7C7B7A7978777676757473727171705F
:102F10006F6E6E6D6C6C6B6A6A6968686766666511
:102F20006464636362616160605F5F5E5E5D5D5C9F
:102F30005C5B5B5A5A595958585757565655555510
:102F40005454535352525251515050504F4F4F4E70
:102F50004E4D4D4D4C4C4C4B4B4B4A4A4A494949BE
:102F60004848484747474746464645454544444400
:102F70004443434343424242424141419C46002B29
:102F800030D477002BD04FEA37071CB503B44FF08D
:102F900010004FF01001BAF1000F06D0BCF1000F85
:102FA000DCBF40F0080040F008014FF000000FBC0B
:102FB000BDE810400BF1010BBBF1010F08BF5FEA48
:102FC000170722BF12F1010211F101014FF0004178
:102FD00043F1000300F0004043EA00007047F9D3DA
:102FE0005708D0E746EA06464FEA164613F1400F67
:102FF0001FDD13F1200FDFBF16430A4600212033E7
:103000005B42BED0C3F1200746EA06464FEA1646A9
:1030100002FA07F746EA070622FA03F2C3F120078D
:1030200001FA07F742EA070221FA03F14FF0000321
:10303000A7E746EA020646EA06464FEA164646EA89
:103040000106BCBF46EA0646360C4FF000034FF0BF
:1030500000024FF0000194E72DE9804C70B49A46CD
:10306000934691E8380007C831EA400C48BF34EA7B
:10307000430C03D5FFF7E6FDFFF780FFF0BCBDE88A
:10308000008C2DE9804C70B49A46934691E8380044
:1030900007C810F0804F08BF13F0804F03D100F035
:1030A00005F8FFF76BFFF0BCBDE8008C20F07F4710
:1030B00023F07F4C80EA030000F0004007EB0C0394
:1030C000A3F57C53A3F1FE0392F0000F00F0B38050
:1030D00095F0000F00F077802DE901494FEA11408B
:1030E00021EA00484FEA144624EA064700FB06FCA2
:1030F00008FB06F607FB08F818EB06484CEB164CE5
:1031000000FB07F718EB07484CEB17404FEA124B50
:1031100022EA0B4E4FEA154625EA06470BFB06FC52
:103120000EFB06F607FB0EFE1EEB064E4CEB164C96
:103130000BFB07F71EEB074E4CEB174B18EB0B087E
:1031400040F1000018EB0E0B58EB000840F10000B6
:103150008F1A4FF000014FF000063CBFC943661BB9
:1031600014BFB5EB040C00213CBFC943F61B4FEA6A
:10317000174427EA04454FEA1C472CEA074C04FB96
:10318000076205FB07F70CFB05F616EB074642EB5B
:10319000174204FB0CFC16EB0C4642EB1C421BEBEB
:1031A000060658EB020241414EEA8E0E46EA9E06A2
:1031B00001D5BDE80189B619524141EB0101A3F1E6
:1031C0000103BDE801894FEA144524EA05464FEAA8
:1031D000114721EA074C05FB07F406FB07F70CFB38
:1031E00006F111EB074144EB174405FB0CFC11EB16
:1031F0000C4144EB1C444FEA124722EA074C05FB02
:1032000007F206FB07F70CFB06F616EB074642EB48
:10321000174205FB0CFC16EB0C4642EB1C456A18EA
:1032200054F1000148BF7047B619524141EB01010A
:10323000A3F10103704795F0000F37D04FEA114218
:1032400021EA02464FEA144724EA074C02FB07F141
:1032500006FB07F70CFB06F414EB074441EB1741A0
:1032600002FB0CFC14EB0C4441EB1C414FEA1547EC
:1032700025EA074C02FB07F506FB07F70CFB06F6F1
:1032800016EB074645EB174502FB0CFC16EB0C460C
:1032900045EB1C42121951F1000148BF7047B619A5
:1032A000524141EB0101A3F1010370474FEA14457C
:1032B00024EA05464FEA114721EA074C05FB07F1CE
:1032C00006FB07F70CFB06F212EB074241EB174136
:1032D00005FB0CFC12EB0C4251EB1C414FF00006BD
:1032E00048BF7047921841EB0101A3F101037047F9
:1032F00003B401984100009850EAC12018BF04208F
:103300004A0D18BF40F0010040F2FF72B2EB515F6E
:1033100008BF40F00200012808BF052002B0704736
:1033200010B52DED020B2DED088B84B09DED0C0B2F
:1033300051EC100B00F05AFC41EC180B9DED0C0BFE
:1033400053EC182B51EC100B00F0AAFC41EC190BBC
:103350000D989FED290B10F0004F53EC102B51EC02
:10336000190B9FED21AB9FED22BB0ED000F0CEFAE2
:103370000ED953EC1B2B51EC190B00F001FC1CD2A5
:1033800014E000BF41EC180B17E000F0BFFA06D2C2
:1033900053EC1A2B51EC180B00F082FCF2E753ECC3
:1033A0001B2B51EC190B00F0EBFB06D853EC1A2B3E
:1033B00051EC180B00F042F8E4E78DED028B9DED27
:1033C0000C0B18EE901A10EE900A8DED000B61F3C5
:1033D0001E0003909DED020B04B0BDEC088B02B003
:1033E00010BD000000000000000000000000F03FE1
:1033F000000000000000E03F000000000000E0BF0F
:1034000030380A2801D201207047002070470000A0
:1034100010B500290AD00878002807D0054878445C
:10342000FDF776FC002801D0002010BD024878444A
:1034300010BD00006A2400006224000010B591EA6B
:10344000030F48BF83F0004300F13284841A71EB0C
:10345000030C05D2121943EB0C03001B61EB0C01AA
:103460004FEA1154A4EB135CDFF81CE11EEA430F92
:1034700018BF9EEA445F00F0748021EA045123EAF9
:103480000E0343F48013DCF1200E32D322FA0CFE3B
:1034900010EB0E0023FA0CFE41EB0E01CCF1200ED6
:1034A00003FA0EFE10EB0E00CCF1200E51F10001DC
:1034B000B1F5801F32D201EB045112FA0EF2BDE8D1
:1034C000104058BF7047401C38BF5FEA420218BF27
:1034D0007047002814BF20F0010041F100014FEABD
:1034E000410313F5001F38BF7047A1F1C04100F040
:1034F00041BB012A43EB0302ACF1200CDCF11F0EAF
:1035000032BF4FF0000E23FA0CF310EB030041EB37
:103510000451B4EB115FD0D0A1EB045101F580113F
:10352000490801EB04515FEA30000ED350F100006E
:1035300038BF12FA0EFE08D1BDE81040C9E7401CA2
:1035400038BF5FEA4202CAD1C3E7BDE810404FEA84
:10355000410313F5001F38BF7047A1F1C04100F0CF
:1035600009BB9EEA445F08D011EA5E0FBDE8104037
:1035700004BF01F0004100207047BDE8104070B565
:1035800000F0AAFA64FBBE3E0000E0FF491058BFFD
:10359000C1F140415B1058BFC3F140438B42EFF390
:1035A000008070472DE9C04130B4DFF8A4C23CEA86
:1035B000111418BF3CEA131400F0ED801CEA11143A
:1035C00081EA030544EAD57418BF1CEA131500F01C
:1035D000C880A4EB050404F17F7404F500344FF0B7
:1035E000004545EAC12145EAC32341EA505143EA77
:1035F00052534FEAC0204FEAC222994208BF90427C
:1036000000F09D804FEA13650FF24416765D4FEA95
:10361000134506FB05F7C7F1807706FB07F74FEA6E
:10362000D737A7FB03687642A7FB06CEC8F58038DC
:1036300038BFA8F1010807FB08E6A6FB028C4FF093
:10364000000EE6FB03CEDCF1000CCEF1004E38BFDD
:10365000AEF1010EA6FB0C584FF00007E6FB0E87FB
:10366000A1FB08C6A0FB07CE16EB0E064FF0000527
:1036700045F10005E1FB076515F1E04E7EBFA4F5BD
:1036800080345FEA46066D4116F1800745F100057A
:103690004FEA172747EA05674FEA15254FEA0666FE
:1036A000A6F1DE46B6F1805F20D9384605EBC4713D
:1036B00024F0010C01EB0C11BCF1FE6F02D8F0BC40
:1036C000BDE8008124425CBF01F5801E9EEAC47FF4
:1036D00002D4F0BCBDE80081244200F13980A1F1A0
:1036E000C041F0BCBDE8004100F044BA4FEAD02030
:1036F00040EA41504FEAD1214FEAD22242EA4352F6
:103700004FEAD323A7FB028607FB036605FB02668D
:103710001EEA0E0F58BFA6EB0056B6EB00564FEA56
:10372000520E4EEAC37E18EB0E0E56EB530EBCD56E
:1037300018EB02085E417F1C55F10005B5E74FF418
:1037400080154FF000074FF000064FF00008ACE77F
:1037500001F1C04101F000414FF00000F0BCBDE8B4
:1037600000810CEA131511EA0C1F00D00CE013EADB
:103770000C1F00F026804FF0000081EA030101F0E9
:103780000041F0BCBDE80081F0BCBDE8004181EA29
:10379000030100F0EFB9F0BCBDE8004170B500F0E6
:1037A0009BF900BF097EFC3E00F007B84FF0000017
:1037B00081EA030101F00041704781EA030100F052
:1037C000D9B9F0BCBDE8004122494FF00000704774
:1037D000FFFDFBF9F7F5F4F2F0EEEDEBE9E8E6E4D6
:1037E000E3E1E0DEDDDBDAD8D7D5D4D3D1D0CFCD5D
:1037F000CCCBCAC8C7C6C5C4C2C1C0BFBEBDBCBB96
:10380000BAB9B8B7B6B5B4B3B2B1B0AFAEADACAB90
:10381000AAA9A8A8A7A6A5A4A3A3A2A1A09F9F9E6A
:103820009D9C9C9B9A99999897979695959493931C
:10383000929191908F8F8E8E8D8C8C8B8B8A8989B3
:103840008888878786858584848383828281818036
:103850000000FF070000F87F4FEA41034FEA53538F
:10386000A3F58063D3F11E03C8BFD3F1210C0CDD97
:103870004FF0004242EAC12242EA505232FA03FCBF
:103880008CEAE17CACEBE1707047102BC4BF0020E8
:10389000704703F5787CBCF1FF3F04D06FF0004225
:1038A00082EA2100704770B500F016F94992248031
:1038B00000207047F2E710F0004248BF4042B0FAE3
:1038C00080F310FA03F10AD0C3F11D0303F58063FE
:1038D00002EB03524FEA415002EBD12170474FF007
:1038E00000007047B0FA80F310FA03F10AD0C3F178
:1038F0001D0303F580634FEA03524FEA415002EB88
:10390000D12170474FF000007047000051EA030CCE
:1039100017D41CF5801F58BFBCF5801F00F106802E
:10392000994218BF704708BF9042704707D711F5FA
:10393000801F58BF13F5801F19D4994270478942E0
:1039400070471CF5801F08D5BCF5801FF7D58B424A
:1039500018BF704708BF824270474FF4001C1CEB31
:10396000410F38BF1CEB430F01D28B42704770B53B
:1039700000F0B2F8922449004FF000514FF080530C
:10398000FFF704BE70B5DFF848C11CEA111E1EBF68
:103990001CEA13159EEA0C0F95EA0C0F00F06F80DD
:1039A00081EA03044EEAD47EAE4421EA4C1123EAB4
:1039B0004C1341F4801143F48013AEF17F7EA1FBE0
:1039C000024CA0FB0365361955EB0C05A1FB034C1B
:1039D0004CF10003A0FB021C16EB0C06654153F1F1
:1039E0000003094218BF46F0010613F4007F0BD113
:1039F0004FEA03314FEA053041EA155140EA1650CB
:103A000034036FF003020AE04FEAC3214FEAC520F6
:103A100041EA555140EA5650F4026FF0020202EBBF
:103A20002E4201EB025585EACE710AD05FEA440CC2
:103A300018BF24F0004450F1000041F1000120EAD9
:103A4000D47040F2FE7C624500D270BDA84214BF23
:103A50004FF080444FF04044002E08BF0024BEF1D8
:103A6000806FA8BFA1F1C041BDE8704080F28280A4
:103A700001F1C04101F000414FF0000070470CEA35
:103A800013159EEA0C0F18BF95EA0C0F06D081EAB9
:103A9000030E4FF000000EF0004170BD00F01CF866
:103AA0008900013E00F007B800F009B84FEA430C66
:103AB0005FEA5C5C08D081EA030100F05BB84FEA82
:103AC000410C5FEA5C5CF6D102494FF000007047A0
:103AD0000000FF070000F87F0EF1020E2EF0030E2B
:103AE0005EF8046B364205D4012A43EB030515F555
:103AF000001F12D8012841EB010C1CF5001F0CD847
:103B00000ED14FEAD17C0CEB4C0C0CF1020C15F5EC
:103B1000001F08BF4CEBD37C04E04FF0080C01E021
:103B20004FEAD37C0CEB4C0526FA05F606F00706A7
:103B3000B6F1040C06D20EEB860CBDE870404CF0DA
:103B4000010C6047DFE80CF0090B02024FF0004166
:103B5000A1F500214FF0000070BD19461046012864
:103B600051EB010418BFD4F5001484BF002001F00C
:103B7000004170BD0808A0F500114FEA31017047FF
:103B800053EA010C17D41CF5801F58BFBCF5801FE9
:103B900000F106808B4218BF704708BF8242704711
:103BA00007D713F5801F58BF11F5801F19D48B421A
:103BB00070479B4270471CF5801F08D5BCF5801FDD
:103BC000F7D5994218BF704708BF904270474FF42D
:103BD000001C1CEB430F38BF1CEB410F01D2994274
:103BE00070470FB40CBC03BCFFF7C1BE5FEA410CC9
:103BF0005FEA5C5CACF580635B1C39D4D3F13402C2
:103C000040F34580B2F1200314DA4FF0010C0CFAB6
:103C100002FCACF10103034020EA0300B3EB5C02B9
:103C200008BF10EA0C0F98BF704710EB0C0041F171
:103C3000000170470AD0C3F1200201FA02FC0128FA
:103C40004CF1000021FA03F101FA03F14FF0010CED
:103C50000CFA03FCACF1010321EA0301B0F1004FBF
:103C600008BF11EA0C0F4FF0000088BF6144704795
:103C7000B3F1FF3F28BF50EAC12C01F000414FF0E3
:103C8000000084BF41F07C5141F470017047B3F5EE
:103C9000806FB8BF704770B5FFF71EFF40DBB6BE40
:103CA00010B591EA030F48BF83F000433FF5CEAB58
:103CB000841A71EB030C07D28CF0004C121943EB01
:103CC0000C03001B61EB0C014FEA1154A4EB135CD5
:103CD000DFF8A4E11EEA430F18BF9EEA445F00F03C
:103CE000B48021EA045123EA6E035242C3EB6E030F
:103CF00038BF5B1EDCF1200E25D322FA0CFE10EB40
:103D00000E0043FA0CFE41EB0E01CCF1200E03FA3B
:103D10000EFE10EB0E00CCF1200E51F1000129D463
:103D200001EB045112FA0EF2BDE8104058BF704783
:103D3000401C1CBFB2F1004F704700280CBF491C4B
:103D400020F00100704712EB020E43EB030218BF94
:103D50004FF0010E4EEA4202ACF1200CDCF11E0ED7
:103D600056D943FA0CFE10EB0E00CCF11E0E51F1A9
:103D7000FF31D5D50EF1010E12FA0EFE404141EB96
:103D8000010101EB445C5FEA5C5C10D901EB04517A
:103D900010EBDE7038BFBEF1004FBDE8104018BF19
:103DA000704700280CBF491C20F00100704734D236
:103DB0004FEAD42C24F4006411F500111BD0B1FAA1
:103DC00081F20B3AA41AA41ED2F12003914030FADA
:103DD00003F31943904001EBCC7101EB0451002C2B
:103DE000BDE81040A8BF704701F1C04101F000419B
:103DF0004FF000007047B0FA80F310FA03F102D1DF
:103E0000BDE810407047E41A173C4805C90AE2E7CC
:103E100001EB0451BDE81040704749104FEA3000F3
:103E200001EB0451BDE8104002E04FF00001704783
:103E30004A0008BF0042F8D0B2F5001F28BF704703
:103E400001F000414FF0000070479EEA445F07D048
:103E500011EA5E0FBDE8104004BF0021002070474A
:103E6000BDE8104070B5FFF737FE00BF40DFF63EFB
:103E7000104683F0004170470000E0FFF1EE100AA9
:103E80004FF6FF71C0F2C03120EA010040F04070EF
:103E9000E1EE100A7047FCF7A1BC30313233343503
:103EA0003637383941424344454640305800303176
:103EB0003233343536373839616263646566403091
:103EC000780004000008000000000000000200016B
:103ED0000000100002400000000000A000000000F0
:103EE00005400000000000C8000000000C40000079
:103EF0000000409C00000000194000000020BCBEF3
:103F00000000000034400000BFC91B8E0000000408
:103F1000B5400000504BCFD06607E2CF0100000053
:103F20006C4100003E8251AADFEEA7340100000080
:103F3000D9420000DCB5A0E23A301F97FFFFFFFF37
:103F4000B4450000FD25A0C8E9A3C14FFFFFFFFF56
:103F5000FF3F00000000008000000000FF3F000065
:103F600000000080000000000000000000020502C8
:103F70000000000000000000000000000000000041
:103F80000000000000000000000000000000000031
:103F90000000000000000000000000000000000021
:103FA0000000000000000000000000000000000011
:103FB0000000000000000000000000000000000001
:103FC00000000000000000000000000000000000F1
:103FD00000000000000000000000000000000000E1
:103FE00000000000000000000000000000000000D1
:103FF00000000000000000000000000000000000C1
:104000000000000000000000000000000000005F51
:1040100000000007000700147F147F14242A7F2A61
:10402000124C2C10686436495522500005030000DC
:10403000001C2241000041221C0014083E08140804
:10404000083E0808000050300010101010100060EA
:1040500060000020100804023E5149453E00427FA6
:10406000400042615149462141454B311814127FAD
:104070001027454545393C4A494930017109050336
:104080003649494936064949291E0036360000009E
:104090005636000008142241001414141414004170
:1040A00022140802015109063C425A560C7E111195
:1040B000117E7F494949363E414141227F4141229B
:1040C0001C7F494949417F090909013E4149497A13
:1040D0007F0808087F00417F41002040413F017F69
:1040E000081422417F404040407F020C027F7F0441
:1040F00008107F3E4141413E7F090909063E41517A
:10410000215E7F09192946464949493101017F014C
:10411000013F4040403F1F2040201F3F4038403F6C
:104120006314081463070870080761514945430088
:104130007F41410002040810200041417F00040239
:104140000102044040404040000102040020545459
:1041500054787F48444438384444442038444448E0
:104160007F3854545418087E090102189494947CA2
:104170007F0804047800447D40002040443D007FD7
:104180001028440000417F40007C041804787C081B
:1041900004047838444444387C1414140808141473
:1041A000187C7C080404084854545420043F4440BC
:1041B000203C4040207C1C2040201C3C4030403CA7
:1041C00044281028440C5050503C4464544C440043
:1041D0000836410000007F00000041360800080456
:1041E00008100800000000000000000000000000AF
:1041F00000000000000000000000000000000000BF
:104200000040004000400404FF04042424FF242450
:10421000287CAAAA82000000000000000000000024
:10422000000000000000000000000000000000008E
:104230000000000000000000000000000000060573
:104240000000000005030006050006050503000543
:1042500003183C3C3C180000000000000000000077
:1042600078484878000000000000000000000000CE
:10427000000000000000000000000000000000003E
:10428000000000000000000000000000000000002E
:10429000000000000000000000000000221C141CB0
:1042A000227E020202030000E700004A95A5A952FF
:1042B0007C5554454400182424003E4949412208B5
:1042C000142A1422040404040C0008080800000046
:1042D00000000000457C450000040A040044445FDF
:1042E000444400417F410000007A00000078080C3F
:1042F0000000FC203C200C1EFE02FE0018180000EE
:1043000039545449007810207B0338545444002217
:10431000142A140800000000000000000000000043
:1043200000000000547044007C1211127C7F494947
:1043300049317F494949367F01010101603F213FF1
:10434000607F4949494177087F08772241494936CA
:104350007F1008047F7E1009047E7F0814224140EC
:104360003E01017F7F020C027F7F0808087F3E41EB
:1043700041413E7F0101017F7F090909063E41411C
:10438000412201017F0101074848483F0E117F117A
:104390000E63140814633F20203F60070808087F5D
:1043A0007F407E407F3F203F207F017F4848307F15
:1043B0004830007F007F484830224149493E7F080D
:1043C0003E413E462919097F20545454783C4A4ABC
:1043D0004A317C545454287C04040C00603C243C36
:1043E0006038545454186C107C106C445454542845
:1043F0007C2010087C7C2112097C7C102844004021
:104400003804047C7C0810087C7C1010107C384434
:104410004444387C0404047C7C1414140838444458
:10442000440004047C04040C5050503C08147C14D8
:104430000844281028443C20203C600C1010107CBC
:104440007C407C407C3C203C207C047C5050207C88
:104450005020007C007C50502028445454387C105C
:10446000384438485434147C000000000000000038
:10447000000000000000000000000000000000003C
:10448000000000000000000000000000000000002C
:10449000000000000000000000000000000000001C
:1044A000000000000000000000000000000000000C
:1047000000003E00FF33FF333E00000000000000C9
:10471000000006000F003F00000006000F003F00F1
:104720000000000030033023FE3FFF1F3103302321
:10473000FE3FFF1F3103300330067806CC0CCC0C53
:10474000FF3FFF3FCC0CCC0C980718031038381CE7
:104750006C0E38079003C009E01C7036381C1C082A
:104760001C0EBE1FC330C330E33333171E0E0C1CA8
:104770000036002300000000230033001F000F005C
:10478000000000000000000000000000F000F80140
:104790009C030E07070E030C000000000000000041
:1047A000030C070E0E079C03F801F0000000000048
:1047B00018063003E001C000FC0FFC0FC000E00150
:1047C00030031806C000C000C000C000FC0FFC0F82
:1047D000C000C000C000C0000000000000000000D9
:1047E00000230033001F000E000000000003000340
:1047F00000030003000300030003000300030003A1
:104800000000000000380038003800000000000000
:1048100000000000001C000E00078003C001E00043
:10482000700038001C000E00FC0FFE1F0333033322
:10483000C330C33033303330FE1FFC0F00000000A4
:104840000C300E30FF3FFF3F003000300000000012
:104850000C2006300338033C033603338331C33066
:104860007E303C3006080318033003303330733099
:10487000DB308F39071F030E8003E003700338031A
:104880001C030E03FF3FFF3F000300033F1C7F1884
:1048900063306330633063306330E338C71F800FA9
:1048A000FC0FFE1F8739C330C330C330C330C33859
:1048B000861F000F06000300033F833FC301E30090
:1048C00073003B001F000F001C0FBE1FE639C330F2
:1048D000C330C330C330E639BE1F1C0F3C007E001E
:1048E000E730C330C330C338C31CE70EFE07FC03F8
:1048F000000000003C0F3C0F3C0F000000000000D7
:1049000000000000000000003C033C133C0F0000CE
:104910000000000000000000C000E001F0033807C4
:104920001C0E0E1C0738033001200000300330033A
:1049300030033003300330033003300330033003DF
:1049400000000120033007380E1C1C0E3807F0034E
:10495000E001C0000C000E000700030003338333A6
:10496000C301E7007E003C000C0F8E1FC730C33828
:10497000C33F833703300F38FE1FFC0FFC3FFE3F61
:10498000070303030303030303030703FE3FFC3F83
:10499000FF3FFF3FE739C330C330C330C738E619A4
:1049A0003E1F1C0EFC0FFE1F073803300330033080
:1049B000033007380E1C0C0CFF3FFF3F0738033055
:1049C000033007380E1C1C0EF007E001FF3FFF3FCD
:1049D000C330C330C330C330C330C33003300330BF
:1049E000FF3FFF3FC300C300C300C300C300C300B9
:1049F00003000300FC0FFE1F073803308330C33071
:104A0000C330C7398E1F0C0FFF3FFF3FC000C000EF
:104A1000C000C000C000C000FF3FFF3F000000001A
:104A200003300330FF3FFF3F03300330000000003E
:104A3000000C001C0038003003300338FF1FFF0F4C
:104A400003000300FF3FFF3FE001E001F0033807F0
:104A50001C0E0E1C07380330FF3FFF3F00300030B4
:104A6000003000300030003000000000FF3FFF3F0A
:104A70000E001C00F800F8001C000E00FF3FFF3F76
:104A8000FF3FFF3F38007000E000C00180030007D7
:104A9000FF3FFF3FF807FE1F0618033003300330C7
:104AA00003300618FE1FF807FF3FFF3FC300C30097
:104AB000C300C300C300E7007E003C00F80FFE1FE8
:104AC000063803300331033B030E061CFE37F83370
:104AD000FF3FFF3FC300C301C303C307C30EE71C6F
:104AE0007E383C303C187E30E730C330C330C330B2
:104AF000C330C339831F060F030003000300030004
:104B0000FF3FFF3F0300030003000300FF0FFF1FF1
:104B1000003800300030003000300038FF1FFF0F39
:104B2000FF03FF07000E001C00380038001C000EB9
:104B3000FF07FF03FF0FFF1F00380030C00FC00F3B
:104B400000300038FF1FFF0F0F3C1F3E38073003B7
:104B5000E001E001300338071F3E0F3C3F007F00BB
:104B6000E000C001003F003FC001E0007F003F00C7
:104B7000073C033E03378333C331E33073303B30AC
:104B80001F300F3800000000FF3FFF3F03300330AD
:104B900003300330000000000C001C0038007000DF
:104BA000E000C00180030007000E000C00000000C0
:104BB0000330033003300330FF3FFF3F00000000AD
:104BC000300038001C000E00030003000E001C0023
:104BD000380030000030003000300030003000304D
:104BE00000300030003000300000000003000300FF
:104BF0000C000C003000300000000000000C001E13
:104C000020333033303330333033303EE03FC00F69
:104C1000FF3FFF3FC018E038703030303030603830
:104C2000E01FC00FC00FE01F703830303030303020
:104C3000303030306018000CC00FE01F703830305A
:104C400030307030E030C018FF3FFF3FC00FE01F32
:104C5000B03B30333033303330333033E013C001C6
:104C6000C000C000FC3FFE3FC700C30003000300BC
:104C70000E000C00C003E04770CC30CC30CC30CC00
:104C800030CC30EEF07FF03FFF3FFF3FC000E00050
:104C90007000300030007000E03FC03F00000000B6
:104CA00030303030F33FF33F003000300000000080
:104CB000000C001C0030003030303030F31FF30F98
:104CC00000000000FF3FFF3F00038007C00C60189A
:104CD00030303030000000000000000003300330AE
:104CE000FF3FFF3F0030003000000000F03FF03F8A
:104CF00030006000C003C00330003000E03FC03F20
:104D0000F03FF03F8000C000700030003000300005
:104D1000E03FC03F8007E01F601830303030303057
:104D200030306018E01F8007F03FF03F7003300321
:104D3000300330033003B003E001C000C000E001E5
:104D40003003300330037003E003C001F03FF03F55
:104D5000F03FF03FC001E000300030003000700054
:104D6000E000C000C018E0317033303330333033EE
:104D700030333037201E000C30003000FF0FFF1F93
:104D80003038303000300030001C000CF00FF01FC5
:104D900000380030003000300018000EF03FF03FC7
:104DA000F003F007000E001C00300030001C000E65
:104DB000F007F003F00FF01F00300038000F000F75
:104DC00000380030F01FF00F30307030C018800D08
:104DD00000070003800DC01870303030F000F00183
:104DE000803300330033003300330037F01FF00FFF
:104DF00070303038303C303630333033B031F03012
:104E00007030303800000000C000E0013C0F3F3F30
:104E10000120012000000000000000000000000050
:104E2000FF3FFF3F00000000000000000000000006
:104E3000012001203F3F3C0FE001C00000000000C6
:104E4000C000600030003000E000C001000300033B
:104E50008001C00000000000000000000000000011
:104E60000000000000000000000000000000000042
:104E70000000000000000000000000000000000032
:104E80000000000000000000000000000000000022
:104E90000000000000000000000000000000000012
:104EA0000000000000000000000000000000000002
:104EB00000000000000000000000000000000000F2
:104EC0000000000000000000000000000030003082
:104ED0000000000000300030000000000030003012
:104EE0003000300030003000FFFFFFFF30003000A6
:104EF00030003000300C300C300C300CFFFFFFFF66
:104F0000300C300C300C300CC00CC00CF03FF87F73
:104F1000DCECCCCCCCCCCCCC0CC00CC00000000069
:104F20000000000000000000000000000000000081
:104F30000000000000000000000000000000000071
:104F40000000000000000000000000000000000061
:104F50000000000000000000000000000000000051
:104F60000000000000000000000000000000000041
:104F70000000000000000000000000000000000031
:104F80000000000000000000000000000000000021
:104F90000000000000000000000000000000000011
:104FA0000000000000000000000000000000000001
:104FB00000000000000000000000000000000000F1
:104FC0001C003E0033003100000000000000000023
:104FD0000000000000000000230033001F000E004E
:104FE000000000001C003E00330031000000000003
:104FF0001C003E0033003100230033001F000E0070
:1050000000000000230033001F000E008001C003D9
:10501000E007F00FF00FF00FF00FE007C003800182
:105020000000000000000000000000000000000080
:105030000000000000000000000000000000000070
:105040000000000000000000000000000000000060
:105050000000000000000000000000000000000050
:105060000000000000000000000000000000000040
:105070000000000000000000000000000000000030
:105080000000000000000000000000000000000020
:105090000000000000000000000000000000000010
:1050A0000000000000000000000000000000000000
:1050B00000000000000000000000000000000000F0
:1050C00000000000000000000000000000000000E0
:1050D00000000000000000000000000000000000D0
:1050E00000000000000000000000000000000000C0
:1050F00000000000000000000000000000000000B0
:10510000000000000000000000000000000000009F
:10511000000000000000000000000000000000008F
:10512000000000000000000000000000000000007F
:1051300000000000000000000C0C0C0CF003F00359
:1051400030033003F003F0030C0C0C0CFC3FFC3F6D
:105150000C000C000C000C000C000C000F000F00E9
:1051600000000000000000003FFC3FFC00000000C9
:1051700000000000CC30DE7173E333C733CC33CC96
:10518000E3CCC3DC8E770C33F03FF03F3333333363
:1051900030333033333033303030303000000000C3
:1051A000C003E007300C300C300C2004000000007D
:1051B000FC0FFE1FC330C330C330C3300330033095
:1051C00006180C0CC000E00130031806CC0CE409F2
:1051D000300318060C0C040830003000300030009A
:1051E0003000300030003000F000F000000000001F
:1051F000C000C000C000C000C000C000000000002F
:10520000000000000000000000000000000000009E
:10521000000000000000000033303330F03FF03F6A
:105220003330333000000000000000003000780010
:10523000CC00CC007800300000000000303030306E
:1052400030303030FF33FF333030303030303030BA
:105250000000000003300330FF3FFF3F0330033006
:10526000000000000000000040204020CC3FCC3F68
:10527000002000200000000000000000C03FC03FF0
:10528000C000C000C000F0000000000000000000EE
:10529000F0FFF0FF000C000CF007F00F001C0018EE
:1052A000F000F000FC03FC03FCFFFCFF0C000C0012
:1052B000FCFFFCFF00000000C003C003C003C003EC
:1052C0000000000000000000C30FE31F7033303304
:1052D0003033B033E331C33000000000C03FC03F83
:1052E00000030006000C0018CF3FC93F09000F0063
:1052F000C00FE01F30333033303330333030303094
:105300000000000004080C0C18063003E409CC0C63
:1053100018063003E001C00000000000000000009B
:10532000000000000000000000000000000000007D
:10533000000000000000000000000000000000006D
:10534000000000000000000000000000000000005D
:10535000000000000000000030333033003F003F09
:105360003030303000000000F03FF83F0C030603FF
:105370000303030306030C03F83FF03FFF3FFF3F27
:10538000C338C330C330C330C330C331831F030FAE
:10539000FF3FFF3FC330C330C330C330C330E339B6
:1053A0003E1F1C0EFF3FFF3F0300030003000300EE
:1053B0000300030003000300003C001CFE0FFF0F6E
:1053C000030C030CFF0FFE0F001C003CFF3FFF3FD0
:1053D000C330C330C330C330C330C33003300330B5
:1053E0001F3E3F3FE001C000FF3FFF3FC000E00124
:1053F0003F3F1F3E0C0C061803300330C330C33050
:10540000C330E3313E1F3C0FFF3FFF3F00038001ED
:10541000C000600030001800FF3FFF3FFC3FFC3F32
:1054200000038101C200620031001800FC3FFC3F14
:10543000FF3FFF3FC000E001300318060C0C0618C8
:105440000330012000300038FC1FFE0F0300030072
:1054500003000300FF3FFF3FFF3FFF3F0E001C0024
:10546000F800F8001C000E00FF3FFF3FFF3FFF3F2A
:10547000C000C000C000C000C000C000FF3FFF3F30
:10548000FC0FFE1F061803300330033003300618EC
:10549000FE1FFC0FFF3FFF3F03000300030003005C
:1054A00003000300FF3FFF3FFF7FFF7FE300C300D8
:1054B000C300C300C300C7007E003C00FC0FFE1FFA
:1054C00007380330033003300330033006180C0C68
:1054D0000300030003000300FF3FFF3F030003003E
:1054E000030003003F007F00C030C030C030C03038
:1054F000C0306030FF1FFF0FFC00FE0102010303FC
:10550000FF3FFF3F03030201FE01FC000F3C1F3E73
:105510003003F003C000C000F00330031F3E0F3C17
:10552000FF0FFF0F000C000C000C000CFF0FFF0F13
:10553000003C003C3F007F00C000C000C000C00035
:10554000C0006000FF3FFF3FFF3FFF3F00300030E3
:10555000FC3FFC3F00300030FF3FFF3FFF0FFF0FDD
:10556000000C000CFF0FFF0F000C000CFF3FFF3F73
:1055700003000300FF3FFF3FC030C030C030C030E9
:10558000801F000FFF3FFF3FC030C030801F000F63
:1055900000000000FF3FFF3F00000000FF3FFF3F13
:1055A000C030C030C030C030801F000F0C0C061857
:1055B00003300330C330C330C330C330FE1FFC0F91
:1055C000FF3FFF3FC000C000FC0FFE1F0330033051
:1055D000FE1FFC0F3C307E38C30CC306C303C3015F
:1055E000C300C300FF3FFF3F000C001E30333033C9
:1055F0003033303330333033E03FC03FF00FF81FEB
:105600008C38CC30CC30CC30CC30CC31861F030F32
:10561000F03FF03F3033303330333033E01EC00CD6
:1056200000000000F03FF03F30003000300030005C
:10563000F000F00000000000003C001CE00FF00F44
:10564000300C300CF00FE00F001C003CC00FE01FCE
:10565000303330333033303330333033E003C00154
:105660007038F03C00030003F03FF03F00030003FC
:10567000F03C7038000000003030303030333033D0
:105680003033B037E01CC00CF03FF03F000C000698
:1056900000038001C0006000F03FF03FF03FF03FAA
:1056A000030C030604038401C3006300F03FF03FD2
:1056B000F03FF03F00038007C00C6018303010202E
:1056C0000000000000300038C01FE00F3000300044
:1056D00030003000F03FF03FF03FF03FE000C0010D
:1056E00000030003C001E000F03FF03FF03FF03F57
:1056F000000300030003000300030003F03FF03F3A
:10570000C00FE01F703830303030303030307038FB
:10571000E01FC00FF03FF03F30003000300030009D
:1057200030003000F03FF03FF03FF03F30033003F7
:105730003003300330033003E001C000C00FE01F2E
:105740003030303030303030303020100000000049
:105750003000300030003000F03FF03F30003000CB
:1057600030003000E001E00300660066006600667D
:1057700000660063E03FE01FC000E001300330033B
:10578000F03FF03F30033003E001C00030307038AC
:10579000C00C8004000300038004C00C703830305B
:1057A000F00FF00F000C000C000C000CF00FF00FCD
:1057B000003C003CF000F001000300030003000384
:1057C00000038001F03FF03FF03FF03F0030003039
:1057D000F03FF03F00300030F03FF03FF00FF00FAF
:1057E000000C000CF00FF00F000C000CF03FF03F2D
:1057F00030003000F03FF03F00330033003300331F
:10580000001E000CF03FF03F00330033001E000C80
:1058100000000000F03FF03F00000000F03FF03FCC
:105820000033003300330033001E000CC00C60183E
:10583000303030303033303330333033E01FC00F4E
:10584000F03FF03F00030003C00FE01F3030303066
:10585000E01FC00FC000E0213033303B301B300F61
:1058600030073003F03FF03FA85800080000002048
:1058700028000000D4010008D058000828000020AB
:10588000280D0000F00100081C000000430000008B
:10589000F8FFFFFF0C0000000E0000000F000000EA
:1058A0002E00000000000000287A19C70E00008DAD
:1058B00028D9F175D0013CCECFED00C2F200D1F075
:1058C00000D7F200CFF200D1E100C2F100000000E9
:040000050800019955
:00000001FF
