:020000040800F2
:10000000580B0020650200086D0200086F0200080E
:100010007102000873020008750200080000000069
:10002000000000000000000000000000770200084F
:1000300079020008000000007B020008E5190008B2
:100040007F0200087F0200087F0200087F0200088C
:100050007F0200087F020008A5120008B112000804
:10006000BD1200087F0200087F0200087F0200081E
:100070007F0200087F0200087F0200087F0200085C
:10008000690E0008910E0008090E0008000000002B
:100090000000000000000000000000007F020008D7
:1000A0007F020008351A00087F0200087F0200085E
:1000B0007F0200087F0200087F0200087F0200081C
:1000C0007F0200087F0200087F0200087F0200080C
:1000D0007F0200087F0200087F0200080000000085
:1000E0007F0200087F0200087F0200080000000075
:1000F0000000000000000000000000007F02000877
:10010000000000007F0200087F0200087F02000854
:1001100000000000000000000000000000000000DF
:10012000D50E00087F0200087F0200087F02000849
:100130007F02000800000000000000000000000036
:100140000000000000000000000000007F02000826
:100150007F0200087F0200087F0200087F0200087B
:100160007F0200087F02000800000000000000007D
:10017000000000000000000000000000000000007F
:10018000000000007F0200080000000000000000E6
:100190007F0200087F02000800F002F800F052F829
:1001A0000AA090E8000C82448344AAF10107DA45D2
:1001B00001D100F047F8AFF2090EBAE80F0013F0D2
:1001C000010F18BFFB1A43F001031847FC4F000052
:1001D0001C500000103A24BF78C878C1FAD85207E2
:1001E00024BF30C830C144BF04680C6070470000B1
:1001F0000023002400250026103A28BF78C1FBD830
:10020000520728BF30C148BF0B607047662903F012
:10021000F282642900F0AA80782900F0E380732933
:1002200000F04184002070471FB503F0D7FA00F0BA
:100230003FFC04000020002102F09AFDE0601FBD99
:1002400010B510BD00F034FD1146FFF7EDFF01F0D1
:100250004BFF00F052FD03B4FFF7F2FF03BC00F0C8
:1002600095FD00000948804709480047FEE7FEE782
:10027000FEE7FEE7FEE7FEE7FEE7FEE7FEE7FEE756
:1002800004480549054A064B70470000251A000836
:100290009901000858050020580B0020580700203D
:1002A000580700200FB41CB5074B06AA7B446946CB
:1002B0000090059800F0CDFB0020694600F0DCFBC3
:1002C0001CBC5DF814FB0000C907000070B50446B3
:1002D00085690068C10601D5302600E02026C007E8
:1002E00007D070BDD4E9012130469047206A401CF8
:1002F00020626D1EF6D570BD70B504468569007824
:10030000C00707D170BDD4E9012120209047206AA1
:10031000401C20626D1EF6D570BD70B50C460546BA
:10032000012A05D02878800600D5EA69002302E07A
:10033000012305E05B1C934202D2E05C0028F9D166
:10034000A869E618C01AA861286A184428622846D5
:10035000FFF7BCFF04E0D5E9012114F8010B904739
:10036000B442F8D32846FFF7C7FF70BD2DE9F0412E
:100370000646002410687529314616A510D0AFF343
:100380000080002802DA404213A507E031688A079E
:1003900001D512A502E0490704D511A5012401E009
:1003A000AFF3008000210A2206F1240709E0B0FB28
:1003B000F2FCB0FBF2F302FB1C003030785418461C
:1003C000491C0028F3D123462A463046BDE8F041B7
:1003D00000F0D3B8000000002D0000002B0000004A
:1003E0002000000070B504460D4621461068AFF3AA
:1003F00000802188090502D50F4A7A4402E00E4A9E
:100400007A440E32002104F1240305E000F00F06C7
:100410000009965D5E54491C0028F7D1207800231E
:10042000000704D5702D02D009B1022311322046F5
:10043000BDE8704000F0A1B8FC3300002DE9F05F8A
:10044000894604464FF0000ADFF824B1FB44C0F8A7
:1004500020A02046E168884700287DD0252806D0C6
:10046000D4E901219047206A401C2062F1E7002571
:100470005F462046E16888472028064607DB312E84
:1004800005D2B81910F8200C08B10543F1E7A80708
:1004900001D525F00405C4F81CA00027C4F818A055
:1004A0002A2E09D0304602F05BFC38B304EB8708F3
:1004B000303EC8F8186019E059F8041B204604EBD8
:1004C00087029161E1688847012F064618D1E069EB
:1004D000002820DA25F020051DE0D8F8180000EBF0
:1004E000800006EB40003038C8F818002046E1686C
:1004F0008847064602F034FC0028EED1012F0AD0CE
:100500002E2E08D12046E16888477F1C0646022F20
:1005100045F02005C4DBA069002803DA404245F01D
:100520000105A061E80701D025F01005A6B1A6F1EC
:100530004100192802D8203645F400654A46314664
:10054000204625604D46FFF761FE60B1012807D0C7
:10055000ED1D25F0070000E007E000F1080978E74D
:1005600005F1040975E730467AE7206ABDE8F09F97
:10057000D23300007047704770472DE9F0470D46B1
:1005800099469246044600F124080168880604D57D
:10059000E06921F01001216000E00120A84201DDA6
:1005A000471B00E00027A1697A1902EB0900081A2D
:1005B000A0612078C00602D42046FFF787FE0026FF
:1005C00008E0D4E901211AF806009047206A401C8F
:1005D000761C20624E45F4DB2078C0060AD5204602
:1005E000FFF774FE06E0D4E9012130209047206A2D
:1005F000401C2062381EA7F10107F4DC07E0D4E9B3
:10060000012118F805009047206A401C2062281E2E
:10061000A5F10105F3DC2046FFF76EFE2078000609
:1006200002D50220BDE8F0870120FBE72DE9FF4F4E
:100630000C461E464FF0FF378BB0D2E90001DDF8C3
:1006400060800A908A46C1F30A5505B93D460021EB
:1006500008464FF00000BAF1000F00F4400005DA40
:1006600000EB80004FF4400101EA50004FEA90593E
:10067000B9F1010F00DDB9460A9850EA4A000ED0E0
:1006800044F61050A5F2FF3545432F14B8F1000F82
:100690001ED07542291E1EDDC9F100021CE0B8F112
:1006A000010F4FF0000001D0302103E0F24305E0DC
:1006B0002154401CB042FBDB304600220021215473
:1006C0000B99C1F80880C1E900200FB0BDE8F08F98
:1006D000BD1B6D1CDEE74A4600DA694206A800F041
:1006E00071FA06AB93E8070003AB83E807005046B6
:1006F0000A9901F0E5FE8DE80700A0F500501F38CB
:1007000000900398002D0ADD42F21F014A4608447A
:10071000002303A90390684602F04EF909E0A0F512
:1007200000504A461F38002303A90390684602F090
:1007300058F98DE807000004000C03D04FF0FF309B
:10074000410800E01046B8F1000F03D000220092EB
:1007500015461EE0751E05D400F0AEF93032625524
:100760006D1EF9D5B3460122084302D000227F1C3A
:1007700004E02078302801D100227F1E002A09974A
:1007800084D01DE0112D07DA00F096F93032625561
:100790006D1C50EA0102F5D1084302D00098C8B19F
:1007A0000EE00021681E05E0235C625C6354225465
:1007B000401E491C8142F7DBAB46A81B401E099036
:1007C000002004F80B000B98099AC0F80880C0E9D3
:1007D000002B7AE711264FF0000857E72DE9F04F7C
:1007E00088460446D21D22F0070191B0D1E90001EC
:1007F000CDE90A0102F02CFA02460B98C00F01D095
:100800002D2007E02068810701D52B2002E0202160
:1008100001EAC000032A099001D0072A05DB03463C
:100820004146204600F08EF90BE12078800601D584
:10083000E06900E00620B8F1650F814606D0B8F106
:10084000660F18D0B8F1670F70D131E00020B9F110
:10085000110F009001DB112301E009F101030AAA45
:1008600001A90CA8FFF7E2FEDDE90C70002609F1F2
:100870000105834647E001204B4600904FF00047BA
:100880000AAA01A90CA8FFF7D1FEDDE90DB00C9969
:100890005D46002610B909F101000D18B9EB0500FD
:1008A00003D4C0F1FF3609F10105A5EB09002BE0E7
:1008B000B9F1010F01DA4FF001090020B9F1110F70
:1008C0000090484601DD112300E003460AAA01A971
:1008D0000CA8FFF7ABFEDDE90C704D460026834601
:1008E000207800070AD4AB4500DA5D4601A8012D47
:1008F00004DD411911F8011C302907D04F4502DAF7
:1009000017F1040F04DA012082460FE06D1EEEE7B6
:10091000002F02DCED1B3E4403E0781CA84200DD02
:100920007D1CB81B00F1010A4FF00047207800073A
:1009300003D4AA4501DB4FF0FF3A0021B7F1004F85
:100940000DF143088DF8431024D002202B23002FF3
:1009500001DA7F422D230A21021EA0F1010000DCF2
:100960005FB197FBF1FC97FBF1F201FB1C7C174692
:100970000CF1300C08F801CDEEE7A8F1010003708E
:100980002188090501D5452100E06521A0F1010874
:1009900000F8011C09980FA9A1EB0807FF1D00B181
:1009A0000120411901EBEA70A1693844081A401E80
:1009B000A0612078C00602D42046FFF787FC099882
:1009C00028B1D4E901219047206A401C2062207898
:1009D000C00622D52046FFF779FC1EE0002E04DB7E
:1009E000B34502DD01A8805D00E03020D4E901219B
:1009F0009047206A401C2062761CAAF101005FEA41
:100A0000000A0AD100F054F8C0680168405CD4E9DB
:100A100001219047206A401C2062281EA5F1010593
:100A2000DCDC07E0D4E9012118F8010B9047206ACB
:100A3000401C2062381EA7F10107F3DC2046FFF7B7
:100A40005BFC032011B041E601694A1C0261087891
:100A5000704700B58FB0CDE90131002105910549FE
:100A60007944CDE9031011466846FFF7E7FC0FB063
:100A700000BD0000E5FFFFFF0A6802F8010B0A60F5
:100A8000704710B5436913B1AFF3008001E0FFF781
:100A900044FC012010BD127800F124010A700022EC
:100AA0004A700122EDE711684FF0FF32E9E70000DC
:100AB000004870473800002030B5B0F10A0271F1EB
:100AC00000034FEA900E4EEA817EB0EB0E0061EB20
:100AD00091014FEA101E4EEA017E10EB0E0041EB31
:100AE00011114FEA102E4EEA016E10EB0E0041EB91
:100AF00011214FEA104E4EEA014E10EB0E0041EB71
:100B00001141401841F100014FEAD00040EA417024
:100B10004FEAD1014FEA810444EA907410EB80055A
:100B200044EB01046D1944EB0404521BA3414FF044
:100B3000000348BF0A3200D530BD401C41F100011E
:100B400030BD00002DE9F0411F4604460326016830
:100B5000072A01F4006004DB08B116A505E016A51C
:100B600003E008B115A500E015A521F010002060F4
:100B7000A069C01EA0610FB1401EA0612046FFF712
:100B8000A5FB4FB1D4E9012138469047206A401CAB
:100B90002062C01C206206E0206AFAE7D4E9012145
:100BA00015F8010B9047761EF8D22046FFF7A4FBFC
:100BB000BDE8F0814E414E006E616E00494E460028
:100BC000696E66002DE9F047814616468AB03548C1
:100BD00078440DC88DE80D0032487844801C03AC81
:100BE0000DC884E80D0041F69B300844372190FB86
:100BF000F1F290FBF1F5A5F1800501FB12041B3C1D
:100C000002D56442012000E00020DFF898A0804671
:100C10000027FA44AAF1BE0A0EE0E0070AD03246E5
:100C2000684607EB470101230AEB810101F0D9FE79
:100C30008DE8070064107F1C002CEED1194F7F4413
:100C4000AE3F19E0E80715D007EB04100DF1180AC4
:100C500090E80E008AE80E00C068F04201D19819B1
:100C600008903246012306A903A801F0BAFE03AB9F
:100C700083E807006D10641C002DE3D14FF00103E1
:100C800032466946B8F1000F03A802D001F094FE85
:100C900001E001F0A6FEC9E90001C9F808200AB088
:100CA000BDE8F087DC2C00000048704718000020E9
:100CB0007546FFF7F9FFAE4605006946534620F03A
:100CC0000700854618B020B5FFF7DAFABDE82040E6
:100CD0004FF000064FF000074FF000084FF0000BF8
:100CE000AC46ACE8C009ACE8C009ACE8C009ACE867
:100CF000C00921F007018D46704710B50446AFF3D7
:100D000000802046BDE81040FFF7A5BA00000000B3
:100D100030B44FF0013C50F8042B51F8043BCCFAAE
:100D200052F4D51A20D1FCB950F8042B51F8043BE9
:100D3000CCFA52F4D51A17D1B4B950F8042B51F8A3
:100D4000043BCCFA52F4D51A0ED16CB950F8042BEE
:100D500051F8043BCCFA52F4D51A05D1002CDAD064
:100D600030BC4FF00000704729BAB1FA81F111F0A0
:100D70001801D1F120008440F2D1CA40CB4012F0DA
:100D8000FF0213F0FF0330BCD01A7047014918204E
:100D9000ABBEFEE72600020070470000184801685D
:100DA00041F4807101601748D0F8001341F44031DC
:100DB000C0F80013816A41F480118162016B21F057
:100DC0001F010163016B41F020010163C16841F023
:100DD0000701C160016841F480710160416841F41C
:100DE00080714160416841F400714160416841F0A7
:100DF00001014160416841F080414160704700BF9E
:100E000044380240042001407047000014484FF469
:100E10008031016001688903FCD5D0F8001440F2EC
:100E200003721143C0F800140E494160016841F09B
:100E3000807101600168890101D400BFFAE781680F
:100E400041F480518160816821F0030181608168F3
:100E500041F00201816081680907FCD5704700BF3D
:100E6000003802401930400418480168090558BF8D
:100E700070478168002241F40061816014490A7062
:100E8000D0F8841021F00101C0F8841000F01ABEDF
:100E90000E480168890258BF7047816841F400110B
:100EA0008160C3490A68520601D400BFFAE7D0F84E
:100EB0009C1021F00101C0F89C10D0F88400C007FC
:100EC00002D103480021017000F000BE046002401E
:100ED0009800002070B516480168890627D58168FA
:100EE000414B41F02001816012481A885B880168FB
:100EF0004E1C114906600C682244104C0A6025689B
:100F00002B4444F62065AE4223600BD300260660D6
:100F10000E60B2FBF5F00A4926600860B3FBF5F0FD
:100F2000084908600848016841F08041016070BDCF
:100F300000640240E4000020D8000020E00000200F
:100F4000D4000020DC000020082001402448016873
:100F5000C9073CD150F8081C4FF0807241F02001C5
:100F600040F8081C1F4981601F49C160022141608F
:100F7000016821F060610160016841F44031016065
:100F8000416921F004014161016821F0C001016063
:100F9000016841F480610160016821F40071016021
:100FA000016841F400610160016841F40051016091
:100FB000016841F480710160016841F01001016035
:100FC0000A490A60016841F0010101607047016847
:100FD00021F0010101600168C907BBD000BFFAE739
:100FE000106402404C200140CE00002004E100E0EB
:100FF0000248016841F4C001016070473038024086
:1010000010B500F099FD6A4CF02060602068400641
:1010100002D400BFFAE700BF20688006FBD500F0CD
:101020007FFD6068F03818BF012010BD80B5012039
:1010300000F0AEF85E480168890601D400BFFAE707
:101040004068FF38B0FA80F0400980BDB0B507486D
:10105000002400250068082C04BFE8B2B0BDFFF7EB
:10106000E5FFA04001340543F5E700BF044400401C
:101070002DE9F041404F787878B9FFF7C1FF00289B
:1010800052D0CC2000F096F8442000F093F83B4872
:101090004FF47A710160012078707878012804D1CA
:1010A000FFF7C4FF08B102207870787802285AD17F
:1010B000FFF7A6FFC0B3552000F07CF8002430A550
:1010C000082C04D0285D00F075F80134F8E7BE2044
:1010D00000F070F8FFF7BAFF0446FFF7B7FF44EAE5
:1010E0000020060904F00F0002F095F89FED200B98
:1010F00058EC105B2A46434602F0F4F802F05CF824
:1011000006EB860100EB4100B880FFF779FF58B18C
:10111000552000F04FF800261BA4082E07D0A05D34
:1011200000F048F80136F8E70020BDE8F081BE2065
:1011300000F040F8FFF78AFF0646FFF787FF46EA10
:1011400000200021040906F00F00797002F063F816
:101150002A46434602F0C6F802F02EF804EB84015A
:1011600000EB4100F8800120BDE8F08100BF00BF26
:10117000000000000000E43F9800002084000020F0
:10118000287A19C70E00008D28D9F175D0013CCE00
:1011900010B5044600F0C4FC0548002C18BFFF241D
:1011A00044600168490648BF10BD00BFF9E700BFB1
:1011B00000440040B0B504460025082D28BFB0BD4E
:1011C00004F00100FFF7E4FF01356408F5E70000D3
:1011D000B0B500F0EBF800F0E1FA002000F026F9DD
:1011E00000F0E4F8D02000F0F3F800F0D3F8164D4A
:1011F000A847164C2080A8476080A847A080A84731
:10120000E080A8472081A847608100F0C9F8A8477E
:10121000A08100F0D7F8208800F0A5FA208060882F
:1012200000F0A1FA6080A08800F09DFAA0802089DB
:1012300000F099FA2081608900F095FA6081A08918
:1012400000F091FAA081B0BD11140008C000002088
:1012500010B500F0A6FA00F0A1FA022000F0E6F8BE
:1012600000F065FABDE8104000F0ACB810B500F031
:1012700098FA00F093FA012000F0D8F800F057FA3D
:10128000BDE8104000F09EB810B500F08AFA00F0FA
:1012900085FA002000F0CAF800F049FABDE81040D5
:1012A00000F090B80848016841F001010160704702
:1012B0000548016841F00201016070470248016879
:1012C00041F0040101607047143C0140094840F2BC
:1012D0001113816841F007018160074942581A43A0
:1012E000425006494FF4E0720A60016841F007017C
:1012F00001607047003C014008FCFFFF00E100E096
:1013000070B54C00022506688A40A540354305604B
:1013100045682A43426003FA04F283681A438260F4
:10132000049AC368A2401A43C2606FF01F020829E2
:1013300002EB810238BF8A00059901FA02F14FF0F1
:10134000240238BF202283581943815070BD4900C0
:10135000032202FA01F1026811430160704710B5DF
:101360004900032304688B4002FA01F124EA0303D5
:101370000360C2681143C16010BD10B5490001236C
:1013800004688B4002FA01F1234303608268114331
:10139000816010BD3E48016841F480610160704782
:1013A0003B48016821F4806101607047384801685A
:1013B00041F4807101604169C90718BF704700BFDF
:1013C000F9E700BF3248016841F4007101607047DD
:1013D0000E4901300A6841F8040C40F671000A68B1
:1013E00012F0020201D10138F9D100F095B900BF25
:1013F00006490A6841F8040C40F671000A6812F0C8
:10140000020201D10138F9D100F086B9145400402C
:101410000C4940F671004A68520604D4013804BFF2
:1014200000207047F7E70868704700BF054908606B
:101430004868400701D400BFFAE74868C0F380203D
:10144000704700BF10540040104840F6FF7201681A
:1014500041F4001101600E48416821F03F014160F4
:10146000416841F030014160C16941F40041C1610E
:10147000C1699143C161C16941F02801C1610F2176
:101480000162016841F0010101607047403802408B
:101490000054004010B5254C4021F8222160244919
:1014A0004A600A68920701D400BFFAE700F0F00230
:1014B0004A600A68920701D400BFFAE70001C0B28F
:1014C00048600868800701D400BFFAE7052000F0F3
:1014D00051FB00F040F9BDE8104000F04BBB00BFED
:1014E00010B5124C4021FA22216011494A600A6865
:1014F000920701D400BFFAE700F0F0024A600A68E0
:10150000920701D400BFFAE70001C0B24860086842
:10151000800701D400BFFAE7052000F02BFB00F0A4
:101520001AF9BDE8104000F025BB00BF18000240CA
:1015300008300140B0B53620FFF7ACFF0024E0B220
:101540001F2888BFB0BD00F024F98020FFF7A2FF5C
:1015500000250F2D07D80020FFF7C2FF0020FFF75E
:10156000BFFF0135F5E70134E9E70000F8B55A4D52
:101570000024202C0FD000F00CF98020FFF78AFF08
:101580000026102E04D0A85DFFF7AAFF0136F8E769
:1015900010350134EDE7504C002604F50075202E7F
:1015A00012D046F08000C0B2FFF774FF8820FFF72A
:1015B00071FF0027102F04D0E85DFFF791FF01377E
:1015C000F8E710350136EAE700200021FF2908BFBF
:1015D000F8BD44F821000131F8E700BF2DE9F84FCC
:1015E0003D4BDFF8749003EB001A92F800B0BBF1AA
:1015F000000F08BFBDE8F88F4FF0000E0092BEF15B
:10160000050F25D00EEB01000822702790FBF2F4A5
:1016100000F007006FF0800242FA00F8802222FA00
:1016200000F60BEB8B005444484410F80E0017F101
:10163000100C0AD0E25D050642EA060358BF02EA32
:101640000803E355103F4000F1E70EF1010ED6E725
:10165000009A06310132C8E7C83800082DE9F84F72
:101660001D4B4FF0800903EB001A107890B300EB8C
:1016700080004FF0000E00924FEA400BBEF10A0FBF
:1016800024D0164A0EEB0B00F02732F810400EEB78
:101690000100082290FBF2F500F007006FF08002D5
:1016A00042FA00F829FA00F0554417F1100C0AD05C
:1016B000EA5D260442EA000358BF02EA0803EB553C
:1016C000103F6400F1E70EF1010ED7E7009A0B31ED
:1016D0000132CAE7BDE8F88F58010020C83D000874
:1016E00001220323CDE900A8304720604FF40270A7
:1016F00028607047086820F001000860704791FB7F
:10170000F8F30BEB021401F00706013127FA06F695
:10171000E55C3543E554704708684868B2FA82F0E2
:1017200040097047016821F04001016070470A20BC
:10173000B4FBF0F000EB8001A4EB410141EA0010A2
:10174000C0B2FFF773BE01220323CDE900A43047E6
:10175000027000F0CDB84FF480002060152000BF6B
:1017600000BF00BF704700F00F01C0F3031000EB93
:10177000800001EB4000704702EB400301EB4001A9
:1017800070474FF40271296042F210712160411CD0
:10179000704744F08000C0B2FFF77CBED020FFF756
:1017A00027BE0446FFF702BE2C4951F8300C40F02A
:1017B000805041F8300C2A48026842F4807202607E
:1017C000086800040BD4086840F48070086008685A
:1017D00040F001000860086840F4004008602148BB
:1017E000CA22826153228261026822F020020260D2
:1017F0000968090430D4016841F080010160016882
:10180000490601D400BFFAE7416847F6FF7221F4A8
:10181000FE0141604168914340F2211241604168FC
:1018200041F4E001416041681143416050F8041CFB
:1018300041F0800140F8041CC16841F08001C160A2
:10184000C16821F01F01C160C16841F01601C1608B
:10185000016821F080010160704700BF70380240CC
:10186000007000400C28004010B55249C86820F0B4
:101870002000C8600A68C2F30153C2F30340C2F3F8
:10188000023443EA830304EB840400EB43034A4835
:101890008370C2F3032303EB4403437002F00F038E
:1018A000C2F3021202EB820203EB420202704968A9
:1018B00001F48053C1F34232C270C1F3032243EA00
:1018C000830302EBD322C1F303534271C1F30342FA
:1018D00003EB830302EB4302827101F00F02C1F3B9
:1018E000011141EA810102EB4101017110BD00BF0C
:1018F000F0B53048C16841F08001C160C168490657
:1019000001D400BFFAE72C4A0A211378547895785D
:10191000DEB2B6FBF1F606EB8607A3EB4703DBB2BC
:1019200043EA0613E6B2B6FBF1F6370306EB86068A
:10193000A4EB4604E4B247EA04242343ECB2B4FB2C
:10194000F1F4260504EB8404A5EB4404E4B246EA72
:101950000444234303605579D37814799279EEB225
:10196000B6FBF1F6370306EB8606A5EB4605D6B2C5
:10197000B6FBF1F6EDB247EA0525370506EB86061C
:10198000A2EB4602D2B247EA024242EA4332E3B253
:10199000B3FBF1F12A4301EB8103A4EB4303DBB278
:1019A00043EA011111434160C16821F08001C16027
:1019B000F0BD00BF00280040900000203E484CF2DF
:1019C0002F32016841F480510160054801681143DC
:1019D000016000BF016841F040010160704700BF35
:1019E000003001406B480168002918BF01390160CF
:1019F0000448016809044FF0004158BF4FF400410A
:101A000081607047100402402B48016841F4804116
:101A100001605F485F214160016841F0060101609B
:101A2000704700BF0248016841F4700101607047CF
:101A300088ED00E010B510480168C9071BD00168A7
:101A400021F0010101600D4890E81E00002918BF37
:101A500001390160002A18BF013A4260002B18BF0B
:101A6000013B8360002C18BF013C0169C460002960
:101A700018BF0139016110BD100001407C00002039
:101A80000D48016841F0010101600C48002101602E
:101A9000C16841F00101C1604FF4BB718162FF2157
:101AA000C16207490A6842F000720A60016841F0A9
:101AB00001010160704700BF44380240000001404E
:101AC00000E100E00448FFF72DBE00BF02480168B6
:101AD00021F08001016070471444004010B50E48A9
:101AE0000E4C016841F400310160206820F4805000
:101AF0002060606820F44050606000F011F82068B9
:101B000040F008002060206840F004002060206859
:101B100040F40050206010BD403802400C440040AA
:101B20000B4800210160016841F4D0710160016837
:101B300041F0010101607047054800210160016822
:101B400041F49C510160016841F008010160704757
:101B5000084400400E490A6842F001020A604FF44E
:101B60007A7242430B48026012B100BF0268FBE781
:101B7000FFF7C0BD06490A6842F001020A60054A43
:101B8000106010B100BF1068FBE7FFF7B3BD00BFE6
:101B900010E000E054010020F8B5DFF88C43206825
:101BA00018B9DFF8880300210180DFF88453286822
:101BB000002840F0A681DFF87473D24E387831687F
:101BC000490706D5FFF7DDFD022888BF002108463A
:101BD0003970C0B2012821D1306880070DD542F29A
:101BE00010700022FFF781FDD2480188172938BF05
:101BF0004A1C028090B2FFF72BFB3068C0070DD063
:101C000042F21070FFF771FDCA4801884A1E002990
:101C100008BF1722028090B2FFF71AFB387802281B
:101C200022D1306880070DD542F210700022FFF7F4
:101C30005CFDC14801883B2938BF4A1C028090B234
:101C4000FFF714FB3068C0070DD042F21070FFF7A9
:101C50004CFDB94801884A1E002908BF3B2202807A
:101C600090B2FFF703FB3878032821D13068800752
:101C70000DD542F210700022FFF737FDAF48018802
:101C80003B2938BF4A1C028090B2FFF7FDFA30684A
:101C9000C0070DD042F21070FFF727FDA74801885A
:101CA0004A1E002908BF3B22028090B2FFF7ECFADF
:101CB00078783168490506D5FFF763FD062888BFA7
:101CC000002108467970C0B201281DD13068800714
:101CD0000BD542F210700022FFF707FD98480178FB
:101CE000172938BF4A1CFFF733FD3068C0070BD0F7
:101CF00042F21070FFF7F9FC914801784A1E002962
:101D000008BF1722FFF724FD787802281ED130681B
:101D100080070BD542F210700022FFF7E6FC8948DD
:101D200001783B2938BF4A1CFFF712FD3068C00715
:101D30000BD042F21070FFF7D8FC824801784A1E9F
:101D4000002908BF3B22FFF703FD787803281DD147
:101D5000306880070BD542F210700022FFF7C5FCF7
:101D6000794801783B2938BF4A1CFFF7F1FC3068FD
:101D7000C0070BD042F21070FFF7B7FC7248017831
:101D80004A1E002908BF3B22FFF7E2FC78780428AE
:101D90001ED1306880070BD542F210700122FFF788
:101DA000A4FC6A480178072938BF4A1CFFF7D0FC19
:101DB0003068C0070BD042F21070FFF796FC634802
:101DC0000178013998BF07210170FFF791FD7878FC
:101DD000052860D1306880072BD5DFF874C142F246
:101DE000107020604FF402709CF8001028601E29CB
:101DF0001AD8584A12780C2A07D8012341F22A50DF
:101E00009340034201D04B1C0FE01D290CD80B2A34
:101E100004D80120904010F42D6FF4D101231B2928
:101E200003D8022AEFD000E001238CF80030FFF73E
:101E30005FFD3068C0072ED042F21070FFF755FCEE
:101E400043480178022901D3013921E04149097849
:101E50000C291ED8012241F22A538A401A4204D189
:101E600012F42D6F11D01E2112E01F2202390270D0
:101E7000CAB20A2A0DD240F2B52323FA02F2D207DF
:101E800007D049B234A2515C02E0022901D11C21E1
:101E90000170FFF72DFD787806281ED13068800785
:101EA0000BD542F210700122FFF71FFC2948017880
:101EB0000C2938BF4A1CFFF74BFC3068C0070BD019
:101EC00042F21070FFF711FC22480178013998BFE7
:101ED0000C210170FFF70CFD7878072811D13068CC
:101EE00080070BD542F210701722FFF7FEFB1D484A
:101EF0000178632938BF4A1CFFF72AFC3068C00705
:101F000002D1F8BD1004024042F210706322FFF7C4
:101F1000ECFB14480178172988BF4A1E0270BDE8FF
:101F2000F840FFF7E5BC00BF8000002078000020EB
:101F30007C000020C4000020C2000020C00000205F
:101F400092000020910000209000002093000020CB
:101F500094000020950000201C1E1E1E1E1E1E1E2A
:101F60001E1E0000960000202DE9F04F8BB0984611
:101F7000002390420A9302DD0C46064603E04446E5
:101F8000164688460246964217D1444580F286801E
:101F9000534B08F101000821802203EB0613A042F5
:101FA00000F0918094FBF1F504F00707013422FA68
:101FB00007F75E5D3E435E55F1E7A4EB080014466B
:101FC000009001F028F90546301B0F4601F023F977
:101FD00002460B462846394600F094FFCDE905102D
:101FE000701CCDE90780404601F015F99FED3A1BC2
:101FF0009FED370BDFF8E8B0CDE903104FF008088C
:10200000802751EC110BCDE90110089884425AD079
:1020100059EC10ABDDE90510099452464B4601F02E
:1020200061F9DDE9033200F0B9FE41EC100B00F07C
:1020300027FE51EC100B01F0BFF8099D90FBF8F260
:1020400000F0070427FA04F40BEB05118B5C234323
:102050008B540799814201D10A9114E00099B1F1A2
:10206000FF3F07DD0A996A1E013181420ADAFFF754
:1020700046FBFAE7411C6A1E0A9B994202DAFFF707
:102080003EFBF9E70A90DDE901325046494600F08F
:1020900085FE099C41EC100B0134B6E7104A601C28
:1020A0000821802302EB061240450CD0454608F07B
:1020B000070708F1010895FBF1F523FA07F7565DCC
:1020C0003E435655F0E70BB0BDE8F08F00BF00BFB0
:1020D0000000000000000000000000000000F03FD1
:1020E000580100200000000086B0FEF78FFEFFF7C9
:1020F0008BFCFFF7C5FCB448B44FB54C0322016814
:1021000041F00301016038460F21A04738460C21F9
:102110000322A047A7F58065062103222846A04791
:1021200007F580600D210322A04738460D210322C8
:10213000A04738460E210322A047A64E384600216C
:1021400002224FF00009B0473846012102224FF029
:10215000010AB047384602210222B04738460A2118
:102160000222B0479C4E0524284607210022032363
:102170004FF00708CDE90094B0472846052100221A
:102180000323CDE90094B047042438460621FFF725
:10219000DAFA38460721FFF7D6FA28460221FFF778
:1021A0009FFA28460321FFF79BFA28460021FFF7F4
:1021B000CEF828460121FFF7CAF8FFF745F9FFF7E7
:1021C000FDFBFFF7F1FAFFF781F8FEF711FFFEF7CD
:1021D000BDFEFEF7E3FDFFF781FC6420FFF7BAFCCC
:1021E000FFF7A8F9DFF8F8819FED738B9FED749BE3
:1021F000FFF7D2FCFFF738FBFEF7EAFF774F78795D
:102200003C78BB79FA7939797D78BE78FF788DE8AA
:102210008300404673A1CDE903650594FEF742F8BB
:10222000002000214246FFF7D9F97748007848B1ED
:1022300000EBC00011211C22FFF79EFA08200822A3
:10224000FFF792FE7148784C73A1038870480288AA
:102250007048008800904046A04720200021424658
:102260002546FFF7FBF97148006800F0EBFF444694
:1022700059EC188B42464B4600F044FE82466C48AF
:102280008B46006800F0DEFF42464B46A04600F059
:1022900039FE41EC100B204666A152465B468DED9F
:1022A000000BA847DFF8A491302000212246AB465E
:1022B000C847FEF7DDFEDFF898A1BAF8000000F08D
:1022C000C1FF57EC196B32463B4601F00BF8044650
:1022D000BAF802000D4600F0B5FF32463B4601F069
:1022E00001F841EC100B224640465AA12B465C46B1
:1022F0008DED000BD847382000214246C8475A4888
:102300005CA103785948027859480078009040460B
:10231000D8470A2000214246C847604A5C485E49C7
:10232000127803785B480978007802F5FA62CDE903
:1023300000125B4900EB400008445AA1C21E40460F
:10234000D847142000214246C8475C4C2078411EE3
:1023500002290AD800EBC00012211C22FFF70CFA58
:1023600012201222FFF700FE2078011F02290CD84C
:1023700000EBC0006FF029016FF01F02FFF7FCF9BE
:102380001C201C22FFF7F0FD2078072805D11C2017
:1023900054211C226A23FFF7E7FDFFF7E7F80B49FA
:1023A0000869C0044FF0805058BF4FF480508861D6
:1023B0001EE700BF00BF00BF0000000000B8934050
:1023C0009A9999999999B93F30380240000402408E
:1023D0007B1300085F13000801130008E8000020C9
:1023E000F0000020253032782530327825303278E0
:1023F00025303278253032782530327825303278E1
:10240000253032780000000078000020C200002053
:10241000C4000020C0000020253032643A2530324C
:10242000643A253032640000A5020008D400002080
:10243000DC0000204144435F6368302F313D20259C
:102440002E32662F252E326642000000DD15000870
:102450009C000020D2E5ECEFE5F02E20252E316621
:10246000202F20252E3166009100002092000020B0
:1024700090000020C2F0E5ECFF20253032643A25C0
:102480003032643A25303264205254430000000058
:10249000940000209300002095000020960000206A
:1024A00000000020C4E0F2E02025732F25303264C4
:1024B0002F253032642F253032640000790000204F
:1024C0005FEA400C08BF91F0000F4FEA8C234FEAFF
:1024D000C12243EA51514FEA1C5018BF00F5F040A9
:1024E0004FEA300018BF41F000415FEA6C5C00F039
:1024F0002980BCF1FF3F08BF40F080407047130CBB
:1025000006BF12044FF0100C4FF0000C130E04BF66
:1025100012020CF1080C130F04BF12010CF1040C91
:10252000930F04BF92000CF1020CD30F04BF5200B2
:102530000CF1010C11464FF00002A0F11F00A0EBBE
:102540000C00704711F0004F08BF704731F0004198
:102550003FF4D5AF0B0C06BF09044FF0100C4FF041
:10256000000C0B0E04BF09020CF1080C0B0F04BF8A
:1025700009010CF1040C8B0F04BF89000CF1020C53
:10258000CB0F04BF49000CF1010CCCF1200322FA5F
:1025900003F341EA030102FA0CF2A0EB0C0000F194
:1025A0000100704723F07F4720F07F4C80EA030052
:1025B00000F00040ACEB070303F57C5303F1FF038D
:1025C0002DE9804909B44FEA144324EA03484FEA4D
:1025D000154B25EA0B4E0FF2042606EB13273E7827
:1025E00003FB0667C7F5000707FB06F64FEAD6466A
:1025F00006F102064FEA543707FB066CCCF1005C8B
:102600004FEA1C472CEA074C0CFB06F507FB06F4C7
:1026100004EB15464FEA961649085FEA320234BFCA
:1026200000204FF000404FEAD13706FB07FC4FEA8D
:102630001C4C0CFB0BF7D21B03FB0CF761EB0701E7
:102640000CFB0EF7B0EB074072EB17420CFB08F7E0
:1026500034BFA2EB0742B2EB074261EB17414FEAEE
:102660000C444FEA910706FB07FC4FEA1C4C0CFB9D
:102670000BF7B0EBC74072EB573203FB0CF734BFDC
:10268000A2EBC742B2EBC74261EB57310CFB0EF72E
:10269000B0EBC70072EB57720CFB08F734BFA2EB2C
:1026A000C702B2EBC70261EB57714FEA816141EAA1
:1026B00092114FEA826242EA90124FEA806004EB84
:1026C000CC04039F4FEAD13706FB07FC4FEA1C4CB2
:1026D0000CFB0BF7D21B03FB0CF761EB07010CFBA8
:1026E0000EF7B0EB074072EB17420CFB08F734BF54
:1026F000A2EB0742B2EB074261EB17414FEA8C5560
:1027000004EB9C244FEA910706FB07FC4FEA1C4CA4
:102710000CFB0BF7B0EBC74072EB573203FB0CF727
:1027200034BFA2EBC742B2EBC74261EB57310CFB9F
:102730000EF7B0EBC70072EB57720CFB08F734BF13
:10274000A2EBC702B2EBC70261EB57714FEA81619E
:1027500041EA92114FEA826242EA90124FEA8060A7
:1027600015EB4C2544F100044FEAD13706FB07FC7A
:102770004FEA1C4C0CFB0BF7D21B03FB0CF761EB75
:1027800007010CFB0EF7B0EB074072EB17420CFB96
:1027900008F734BFA2EB0742B2EB074261EB1741E7
:1027A0004FEA813141EA92414FEA823242EA904255
:1027B0004FEA80304FEA0C7615EB1C1544F100040B
:1027C00048EA03434EEA0B484FF0000EB2EB080C08
:1027D00071EB030724BF624639464EEB0E0E4FF0F5
:1027E000000B0018524149414BEB0B0BB2EB080CAC
:1027F00071EB03077BF1000B24BF624639464EEBB9
:102800000E0E4FF0000B0018524149414BEB0B0BE1
:10281000B2EB080C71EB03077BF1000B24BF62469F
:1028200039464EEB0E0E51EA020718BF46F001067C
:1028300016EB0E7655F1000254F1000103D5BDE808
:102840008901BDE80088BDE88901BDE80048B619E6
:10285000524141EB0101A3F10103704780807F7E6B
:102860007D7C7B7A79787776767574737271717006
:102870006F6E6E6D6C6C6B6A6A69686867666665B8
:102880006464636362616160605F5F5E5E5D5D5C46
:102890005C5B5B5A5A5959585857575656555555B7
:1028A0005454535352525251515050504F4F4F4E17
:1028B0004E4D4D4D4C4C4C4B4B4B4A4A4A49494965
:1028C00048484847474747464646454545444444A7
:1028D0004443434343424242424141419C46002BD0
:1028E00030D477002BD04FEA37071CB503B44FF034
:1028F00010004FF01001BAF1000F06D0BCF1000F2C
:10290000DCBF40F0080040F008014FF000000FBCB1
:10291000BDE810400BF1010BBBF1010F08BF5FEAEE
:10292000170722BF12F1010211F101014FF000411E
:1029300043F1000300F0004043EA00007047F9D380
:102940005708D0E746EA06464FEA164613F1400F0D
:102950001FDD13F1200FDFBF16430A46002120338D
:102960005B42BED0C3F1200746EA06464FEA164650
:1029700002FA07F746EA070622FA03F2C3F1200734
:1029800001FA07F742EA070221FA03F14FF00003C8
:10299000A7E746EA020646EA06464FEA164646EA30
:1029A0000106BCBF46EA0646360C4FF000034FF066
:1029B00000024FF0000194E72DE9804C70B49A4674
:1029C000934691E8380007C831EA400C48BF34EA22
:1029D000430C03D5FFF7E6FDFFF780FFF0BCBDE831
:1029E000008C2DE9804C70B49A46934691E83800EB
:1029F00007C810F0804F08BF13F0804F03D100F0DC
:102A000005F8FFF76BFFF0BCBDE8008C20F07F47B6
:102A100023F07F4C80EA030000F0004007EB0C033A
:102A2000A3F57C53A3F1FE0392F0000F00F0B380F6
:102A300095F0000F00F077802DE901494FEA114031
:102A400021EA00484FEA144624EA064700FB06FC48
:102A500008FB06F607FB08F818EB06484CEB164C8B
:102A600000FB07F718EB07484CEB17404FEA124BF7
:102A700022EA0B4E4FEA154625EA06470BFB06FCF9
:102A80000EFB06F607FB0EFE1EEB064E4CEB164C3D
:102A90000BFB07F71EEB074E4CEB174B18EB0B0825
:102AA00040F1000018EB0E0B58EB000840F100005D
:102AB0008F1A4FF000014FF000063CBFC943661B60
:102AC00014BFB5EB040C00213CBFC943F61B4FEA11
:102AD000174427EA04454FEA1C472CEA074C04FB3D
:102AE000076205FB07F70CFB05F616EB074642EB02
:102AF000174204FB0CFC16EB0C4642EB1C421BEB92
:102B0000060658EB020241414EEA8E0E46EA9E0648
:102B100001D5BDE80189B619524141EB0101A3F18C
:102B20000103BDE801894FEA144524EA05464FEA4E
:102B3000114721EA074C05FB07F406FB07F70CFBDE
:102B400006F111EB074144EB174405FB0CFC11EBBC
:102B50000C4144EB1C444FEA124722EA074C05FBA8
:102B600007F206FB07F70CFB06F616EB074642EBEF
:102B7000174205FB0CFC16EB0C4642EB1C456A1891
:102B800054F1000148BF7047B619524141EB0101B1
:102B9000A3F10103704795F0000F37D04FEA1142BF
:102BA00021EA02464FEA144724EA074C02FB07F1E8
:102BB00006FB07F70CFB06F414EB074441EB174147
:102BC00002FB0CFC14EB0C4441EB1C414FEA154793
:102BD00025EA074C02FB07F506FB07F70CFB06F698
:102BE00016EB074645EB174502FB0CFC16EB0C46B3
:102BF00045EB1C42121951F1000148BF7047B6194C
:102C0000524141EB0101A3F1010370474FEA144522
:102C100024EA05464FEA114721EA074C05FB07F174
:102C200006FB07F70CFB06F212EB074241EB1741DC
:102C300005FB0CFC12EB0C4251EB1C414FF0000663
:102C400048BF7047921841EB0101A3F1010370479F
:102C500003B401984100009850EAC12018BF042035
:102C60004A0D18BF40F0010040F2FF72B2EB515F15
:102C700008BF40F00200012808BF052002B07047DD
:102C800010B52DED020B2DED088B84B09DED0C0BD6
:102C900051EC100B00F05AFC41EC180B9DED0C0BA5
:102CA00053EC182B51EC100B00F0AAFC41EC190B63
:102CB0000D989FED290B10F0004F53EC102B51ECA9
:102CC000190B9FED21AB9FED22BB0ED000F0CEFA89
:102CD0000ED953EC1B2B51EC190B00F001FC1CD24C
:102CE00014E000BF41EC180B17E000F0BFFA06D269
:102CF00053EC1A2B51EC180B00F082FCF2E753EC6A
:102D00001B2B51EC190B00F0EBFB06D853EC1A2BE4
:102D100051EC180B00F042F8E4E78DED028B9DEDCD
:102D20000C0B18EE901A10EE900A8DED000B61F36B
:102D30001E0003909DED020B04B0BDEC088B02B0A9
:102D400010BD000000000000000000000000F03F87
:102D5000000000000000E03F000000000000E0BFB5
:102D600030380A2801D20120704700207047000047
:102D700010B500290AD00878002807D00548784403
:102D8000FDF7C6FF002801D0002010BD024878449E
:102D900010BD00006A2400006224000010B591EA12
:102DA000030F48BF83F0004300F13284841A71EBB3
:102DB000030C05D2121943EB0C03001B61EB0C0151
:102DC0004FEA1154A4EB135CDFF81CE11EEA430F39
:102DD00018BF9EEA445F00F0748021EA045123EAA0
:102DE0000E0343F48013DCF1200E32D322FA0CFEE2
:102DF00010EB0E0023FA0CFE41EB0E01CCF1200E7D
:102E000003FA0EFE10EB0E00CCF1200E51F1000182
:102E1000B1F5801F32D201EB045112FA0EF2BDE877
:102E2000104058BF7047401C38BF5FEA420218BFCD
:102E30007047002814BF20F0010041F100014FEA63
:102E4000410313F5001F38BF7047A1F1C04100F0E6
:102E500041BB012A43EB0302ACF1200CDCF11F0E55
:102E600032BF4FF0000E23FA0CF310EB030041EBDE
:102E70000451B4EB115FD0D0A1EB045101F58011E6
:102E8000490801EB04515FEA30000ED350F1000015
:102E900038BF12FA0EFE08D1BDE81040C9E7401C49
:102EA00038BF5FEA4202CAD1C3E7BDE810404FEA2B
:102EB000410313F5001F38BF7047A1F1C04100F076
:102EC00009BB9EEA445F08D011EA5E0FBDE81040DE
:102ED00004BF01F0004100207047BDE8104070B50C
:102EE00000F0AAFA64FBBE3E0000E0FF491058BFA4
:102EF000C1F140415B1058BFC3F140438B42EFF337
:102F0000008070472DE9C04130B4DFF8A4C23CEA2C
:102F1000111418BF3CEA131400F0ED801CEA1114E0
:102F200081EA030544EAD57418BF1CEA131500F0C2
:102F3000C880A4EB050404F17F7404F500344FF05D
:102F4000004545EAC12145EAC32341EA505143EA1D
:102F500052534FEAC0204FEAC222994208BF904222
:102F600000F09D804FEA13650FF24416765D4FEA3C
:102F7000134506FB05F7C7F1807706FB07F74FEA15
:102F8000D737A7FB03687642A7FB06CEC8F5803883
:102F900038BFA8F1010807FB08E6A6FB028C4FF03A
:102FA000000EE6FB03CEDCF1000CCEF1004E38BF84
:102FB000AEF1010EA6FB0C584FF00007E6FB0E87A2
:102FC000A1FB08C6A0FB07CE16EB0E064FF00005CE
:102FD00045F10005E1FB076515F1E04E7EBFA4F564
:102FE00080345FEA46066D4116F1800745F1000521
:102FF0004FEA172747EA05674FEA15254FEA0666A5
:10300000A6F1DE46B6F1805F20D9384605EBC471E3
:1030100024F0010C01EB0C11BCF1FE6F02D8F0BCE6
:10302000BDE8008124425CBF01F5801E9EEAC47F9A
:1030300002D4F0BCBDE80081244200F13980A1F146
:10304000C041F0BCBDE8004100F044BA4FEAD020D6
:1030500040EA41504FEAD1214FEAD22242EA43529C
:103060004FEAD323A7FB028607FB036605FB026634
:103070001EEA0E0F58BFA6EB0056B6EB00564FEAFD
:10308000520E4EEAC37E18EB0E0E56EB530EBCD515
:1030900018EB02085E417F1C55F10005B5E74FF4BF
:1030A00080154FF000074FF000064FF00008ACE726
:1030B00001F1C04101F000414FF00000F0BCBDE85B
:1030C00000810CEA131511EA0C1F00D00CE013EA82
:1030D0000C1F00F026804FF0000081EA030101F090
:1030E0000041F0BCBDE80081F0BCBDE8004181EAD0
:1030F000030100F0EFB9F0BCBDE8004170B500F08D
:103100009BF900BF097EFC3E00F007B84FF00000BD
:1031100081EA030101F00041704781EA030100F0F8
:10312000D9B9F0BCBDE8004122494FF0000070471A
:10313000FFFDFBF9F7F5F4F2F0EEEDEBE9E8E6E47C
:10314000E3E1E0DEDDDBDAD8D7D5D4D3D1D0CFCD03
:10315000CCCBCAC8C7C6C5C4C2C1C0BFBEBDBCBB3C
:10316000BAB9B8B7B6B5B4B3B2B1B0AFAEADACAB37
:10317000AAA9A8A8A7A6A5A4A3A3A2A1A09F9F9E11
:103180009D9C9C9B9A9999989797969595949393C3
:10319000929191908F8F8E8E8D8C8C8B8B8A89895A
:1031A00088888787868585848483838282818180DD
:1031B0000000FF070000F87F4FEA41034FEA535336
:1031C000A3F58063D3F11E03C8BFD3F1210C0CDD3E
:1031D0004FF0004242EAC12242EA505232FA03FC66
:1031E0008CEAE17CACEBE1707047102BC4BF00208F
:1031F000704703F5787CBCF1FF3F04D06FF00042CC
:1032000082EA2100704770B500F016F949922480D7
:1032100000207047F2E710F0004248BF4042B0FA89
:1032200080F310FA03F10AD0C3F11D0303F58063A4
:1032300002EB03524FEA415002EBD12170474FF0AD
:1032400000007047B0FA80F310FA03F10AD0C3F11E
:103250001D0303F580634FEA03524FEA415002EB2E
:10326000D12170474FF000007047000051EA030C75
:1032700017D41CF5801F58BFBCF5801F00F10680D5
:10328000994218BF704708BF9042704707D711F5A1
:10329000801F58BF13F5801F19D499427047894287
:1032A00070471CF5801F08D5BCF5801FF7D58B42F1
:1032B00018BF704708BF824270474FF4001C1CEBD8
:1032C000410F38BF1CEB430F01D28B42704770B5E2
:1032D00000F0B2F8922449004FF000514FF08053B3
:1032E000FFF704BE70B5DFF848C11CEA111E1EBF0F
:1032F0001CEA13159EEA0C0F95EA0C0F00F06F8084
:1033000081EA03044EEAD47EAE4421EA4C1123EA5A
:103310004C1341F4801143F48013AEF17F7EA1FB86
:10332000024CA0FB0365361955EB0C05A1FB034CC1
:103330004CF10003A0FB021C16EB0C06654153F197
:103340000003094218BF46F0010613F4007F0BD1B9
:103350004FEA03314FEA053041EA155140EA165071
:1033600034036FF003020AE04FEAC3214FEAC5209D
:1033700041EA555140EA5650F4026FF0020202EB66
:103380002E4201EB025585EACE710AD05FEA440C69
:1033900018BF24F0004450F1000041F1000120EA80
:1033A000D47040F2FE7C624500D270BDA84214BFCA
:1033B0004FF080444FF04044002E08BF0024BEF17F
:1033C000806FA8BFA1F1C041BDE8704080F282804B
:1033D00001F1C04101F000414FF0000070470CEADC
:1033E00013159EEA0C0F18BF95EA0C0F06D081EA60
:1033F000030E4FF000000EF0004170BD00F01CF80D
:103400008900013E00F007B800F009B84FEA430C0C
:103410005FEA5C5C08D081EA030100F05BB84FEA28
:10342000410C5FEA5C5CF6D102494FF00000704746
:103430000000FF070000F87F0EF1020E2EF0030ED1
:103440005EF8046B364205D4012A43EB030515F5FB
:10345000001F12D8012841EB010C1CF5001F0CD8ED
:103460000ED14FEAD17C0CEB4C0C0CF1020C15F593
:10347000001F08BF4CEBD37C04E04FF0080C01E0C8
:103480004FEAD37C0CEB4C0526FA05F606F007064E
:10349000B6F1040C06D20EEB860CBDE870404CF081
:1034A000010C6047DFE80CF0090B02024FF000410D
:1034B000A1F500214FF0000070BD1946104601280B
:1034C00051EB010418BFD4F5001484BF002001F0B3
:1034D000004170BD0808A0F500114FEA31017047A6
:1034E00053EA010C17D41CF5801F58BFBCF5801F90
:1034F00000F106808B4218BF704708BF82427047B8
:1035000007D713F5801F58BF11F5801F19D48B42C0
:1035100070479B4270471CF5801F08D5BCF5801F83
:10352000F7D5994218BF704708BF904270474FF4D3
:10353000001C1CEB430F38BF1CEB410F01D299421A
:1035400070470FB40CBC03BCFFF7C1BE5FEA410C6F
:103550005FEA5C5CACF580635B1C39D4D3F1340268
:1035600040F34580B2F1200314DA4FF0010C0CFA5D
:1035700002FCACF10103034020EA0300B3EB5C0260
:1035800008BF10EA0C0F98BF704710EB0C0041F118
:10359000000170470AD0C3F1200201FA02FC0128A1
:1035A0004CF1000021FA03F101FA03F14FF0010C94
:1035B0000CFA03FCACF1010321EA0301B0F1004F66
:1035C00008BF11EA0C0F4FF0000088BF614470473C
:1035D000B3F1FF3F28BF50EAC12C01F000414FF08A
:1035E000000084BF41F07C5141F470017047B3F595
:1035F000806FB8BF704770B5FFF71EFF40DBB6BEE7
:1036000010B591EA030F48BF83F000433FF5CEABFE
:10361000841A71EB030C07D28CF0004C121943EBA7
:103620000C03001B61EB0C014FEA1154A4EB135C7B
:10363000DFF8A4E11EEA430F18BF9EEA445F00F0E2
:10364000B48021EA045123EA6E035242C3EB6E03B5
:1036500038BF5B1EDCF1200E25D322FA0CFE10EBE6
:103660000E0043FA0CFE41EB0E01CCF1200E03FAE2
:103670000EFE10EB0E00CCF1200E51F1000129D40A
:1036800001EB045112FA0EF2BDE8104058BF70472A
:10369000401C1CBFB2F1004F704700280CBF491CF2
:1036A00020F00100704712EB020E43EB030218BF3B
:1036B0004FF0010E4EEA4202ACF1200CDCF11E0E7E
:1036C00056D943FA0CFE10EB0E00CCF11E0E51F150
:1036D000FF31D5D50EF1010E12FA0EFE404141EB3D
:1036E000010101EB445C5FEA5C5C10D901EB045121
:1036F00010EBDE7038BFBEF1004FBDE8104018BFC0
:10370000704700280CBF491C20F00100704734D2DC
:103710004FEAD42C24F4006411F500111BD0B1FA47
:1037200081F20B3AA41AA41ED2F12003914030FA80
:1037300003F31943904001EBCC7101EB0451002CD1
:10374000BDE81040A8BF704701F1C04101F0004141
:103750004FF000007047B0FA80F310FA03F102D185
:10376000BDE810407047E41A173C4805C90AE2E773
:1037700001EB0451BDE81040704749104FEA30009A
:1037800001EB0451BDE8104002E04FF0000170472A
:103790004A0008BF0042F8D0B2F5001F28BF7047AA
:1037A00001F000414FF0000070479EEA445F07D0EF
:1037B00011EA5E0FBDE8104004BF002100207047F1
:1037C000BDE8104070B5FFF737FE00BF40DFF63EA2
:1037D000104683F0004170470000E0FFF1EE100A50
:1037E0004FF6FF71C0F2C03120EA010040F0407096
:1037F000E1EE100A7047FCF7F1BF30313233343557
:10380000363738394142434445464030580030311C
:103810003233343536373839616263646566403037
:103820007800040000080000000000000002000111
:103830000000100002400000000000A00000000096
:1038400005400000000000C8000000000C4000001F
:103850000000409C00000000194000000020BCBE99
:103860000000000034400000BFC91B8E00000004AF
:10387000B5400000504BCFD06607E2CF01000000FA
:103880006C4100003E8251AADFEEA7340100000027
:10389000D9420000DCB5A0E23A301F97FFFFFFFFDE
:1038A000B4450000FD25A0C8E9A3C14FFFFFFFFFFD
:1038B000FF3F00000000008000000000FF3F00000C
:1038C000000000800000000000000000000205026F
:1038D00000000000000000000000000000000000E8
:1038E00000000000000000000000000000000000D8
:1038F00000000000000000000000000000000000C8
:1039000000000000000000000000000000000000B7
:1039100000000000000000000000000000000000A7
:103920000000000000000000000000000000000097
:103930000000000000000000000000000000000087
:103940000000000000000000000000000000000077
:103950000000000000000000000000000000000067
:103960000000000000000000000000000000005FF8
:1039700000000007000700147F147F14242A7F2A08
:10398000124C2C1068643649552250000503000083
:10399000001C2241000041221C0014083E081408AB
:1039A000083E080800005030001010101010006091
:1039B00060000020100804023E5149453E00427F4D
:1039C000400042615149462141454B311814127F54
:1039D0001027454545393C4A4949300171090503DD
:1039E0003649494936064949291E00363600000045
:1039F0005636000008142241001414141414004117
:103A000022140802015109063C425A560C7E11113B
:103A1000117E7F494949363E414141227F41412241
:103A20001C7F494949417F090909013E4149497AB9
:103A30007F0808087F00417F41002040413F017F0F
:103A4000081422417F404040407F020C027F7F04E7
:103A500008107F3E4141413E7F090909063E415120
:103A6000215E7F09192946464949493101017F01F3
:103A7000013F4040403F1F2040201F3F4038403F13
:103A8000631408146307087008076151494543002F
:103A90007F41410002040810200041417F000402E0
:103AA0000102044040404040000102040020545400
:103AB00054787F4844443838444444203844444887
:103AC0007F3854545418087E090102189494947C49
:103AD0007F0804047800447D40002040443D007F7E
:103AE0001028440000417F40007C041804787C08C2
:103AF00004047838444444387C141414080814141A
:103B0000187C7C080404084854545420043F444062
:103B1000203C4040207C1C2040201C3C4030403C4D
:103B200044281028440C5050503C4464544C4400E9
:103B30000836410000007F000000413608000804FC
:103B40000810080000000000000000000000000055
:103B50000000000000000000000000000000000065
:103B60000040004000400404FF04042424FF2424F7
:103B7000287CAAAA820000000000000000000000CB
:103B80000000000000000000000000000000000035
:103B9000000000000000000000000000000006051A
:103BA00000000000050300060500060505030005EA
:103BB00003183C3C3C18000000000000000000001E
:103BC0007848487800000000000000000000000075
:103BD00000000000000000000000000000000000E5
:103BE00000000000000000000000000000000000D5
:103BF000000000000000000000000000221C141C57
:103C0000227E020202030000E700004A95A5A952A5
:103C10007C5554454400182424003E49494122085B
:103C2000142A1422040404040C00080808000000EC
:103C300000000000457C450000040A040044445F85
:103C4000444400417F410000007A00000078080CE5
:103C50000000FC203C200C1EFE02FE001818000094
:103C600039545449007810207B03385454440022BE
:103C7000142A1408000000000000000000000000EA
:103C800000000000547044007C1211127C7F4949EE
:103C900049317F494949367F01010101603F213F98
:103CA000607F4949494177087F0877224149493671
:103CB0007F1008047F7E1009047E7F081422414093
:103CC0003E01017F7F020C027F7F0808087F3E4192
:103CD00041413E7F0101017F7F090909063E4141C3
:103CE000412201017F0101074848483F0E117F1121
:103CF0000E63140814633F20203F60070808087F04
:103D00007F407E407F3F203F207F017F4848307FBB
:103D10004830007F007F484830224149493E7F08B3
:103D20003E413E462919097F20545454783C4A4A62
:103D30004A317C545454287C04040C00603C243CDC
:103D40006038545454186C107C106C4454545428EB
:103D50007C2010087C7C2112097C7C1028440040C7
:103D60003804047C7C0810087C7C1010107C3844DB
:103D70004444387C0404047C7C14141408384444FF
:103D8000440004047C04040C5050503C08147C147F
:103D90000844281028443C20203C600C1010107C63
:103DA0007C407C407C3C203C207C047C5050207C2F
:103DB0005020007C007C50502028445454387C1003
:103DC000384438485434147C0000000000000000DF
:103DD00000000000000000000000000000000000E3
:103DE00000000000000000000000000000000000D3
:103DF00000000000000000000000000000000000C3
:103E000000000000000000000000000000000000B2
:1040600000003E00FF33FF333E0000000000000070
:10407000000006000F003F00000006000F003F0098
:104080000000000030033023FE3FFF1F31033023C8
:10409000FE3FFF1F3103300330067806CC0CCC0CFA
:1040A000FF3FFF3FCC0CCC0C980718031038381C8E
:1040B0006C0E38079003C009E01C7036381C1C08D1
:1040C0001C0EBE1FC330C330E33333171E0E0C1C4F
:1040D0000036002300000000230033001F000F0003
:1040E000000000000000000000000000F000F801E7
:1040F0009C030E07070E030C0000000000000000E8
:10410000030C070E0E079C03F801F00000000000EE
:1041100018063003E001C000FC0FFC0FC000E001F6
:1041200030031806C000C000C000C000FC0FFC0F28
:10413000C000C000C000C00000000000000000007F
:1041400000230033001F000E0000000000030003E6
:104150000003000300030003000300030003000347
:1041600000000000003800380038000000000000A7
:1041700000000000001C000E00078003C001E000EA
:10418000700038001C000E00FC0FFE1F03330333C9
:10419000C330C33033303330FE1FFC0F000000004B
:1041A0000C300E30FF3FFF3F0030003000000000B9
:1041B0000C2006300338033C033603338331C3300D
:1041C0007E303C3006080318033003303330733040
:1041D000DB308F39071F030E8003E00370033803C1
:1041E0001C030E03FF3FFF3F000300033F1C7F182B
:1041F00063306330633063306330E338C71F800F50
:10420000FC0FFE1F8739C330C330C330C330C338FF
:10421000861F000F06000300033F833FC301E30036
:1042200073003B001F000F001C0FBE1FE639C33098
:10423000C330C330C330E639BE1F1C0F3C007E00C4
:10424000E730C330C330C338C31CE70EFE07FC039E
:10425000000000003C0F3C0F3C0F0000000000007D
:1042600000000000000000003C033C133C0F000075
:104270000000000000000000C000E001F00338076B
:104280001C0E0E1C073803300120000030033003E1
:104290003003300330033003300330033003300386
:1042A00000000120033007380E1C1C0E3807F003F5
:1042B000E001C0000C000E0007000300033383334D
:1042C000C301E7007E003C000C0F8E1FC730C338CF
:1042D000C33F833703300F38FE1FFC0FFC3FFE3F08
:1042E000070303030303030303030703FE3FFC3F2A
:1042F000FF3FFF3FE739C330C330C330C738E6194B
:104300003E1F1C0EFC0FFE1F073803300330033026
:10431000033007380E1C0C0CFF3FFF3F07380330FB
:10432000033007380E1C1C0EF007E001FF3FFF3F73
:10433000C330C330C330C330C330C3300330033065
:10434000FF3FFF3FC300C300C300C300C300C3005F
:1043500003000300FC0FFE1F073803308330C33017
:10436000C330C7398E1F0C0FFF3FFF3FC000C00096
:10437000C000C000C000C000FF3FFF3F00000000C1
:1043800003300330FF3FFF3F0330033000000000E5
:10439000000C001C0038003003300338FF1FFF0FF3
:1043A00003000300FF3FFF3FE001E001F003380797
:1043B0001C0E0E1C07380330FF3FFF3F003000305B
:1043C000003000300030003000000000FF3FFF3FB1
:1043D0000E001C00F800F8001C000E00FF3FFF3F1D
:1043E000FF3FFF3F38007000E000C001800300077E
:1043F000FF3FFF3FF807FE1F06180330033003306E
:1044000003300618FE1FF807FF3FFF3FC300C3003D
:10441000C300C300C300E7007E003C00F80FFE1F8E
:10442000063803300331033B030E061CFE37F83316
:10443000FF3FFF3FC300C301C303C307C30EE71C15
:104440007E383C303C187E30E730C330C330C33058
:10445000C330C339831F060F0300030003000300AA
:10446000FF3FFF3F0300030003000300FF0FFF1F98
:10447000003800300030003000300038FF1FFF0FE0
:10448000FF03FF07000E001C00380038001C000E60
:10449000FF07FF03FF0FFF1F00380030C00FC00FE2
:1044A00000300038FF1FFF0F0F3C1F3E380730035E
:1044B000E001E001300338071F3E0F3C3F007F0062
:1044C000E000C001003F003FC001E0007F003F006E
:1044D000073C033E03378333C331E33073303B3053
:1044E0001F300F3800000000FF3FFF3F0330033054
:1044F00003300330000000000C001C003800700086
:10450000E000C00180030007000E000C0000000066
:104510000330033003300330FF3FFF3F0000000053
:10452000300038001C000E00030003000E001C00C9
:1045300038003000003000300030003000300030F3
:1045400000300030003000300000000003000300A5
:104550000C000C003000300000000000000C001EB9
:1045600020333033303330333033303EE03FC00F10
:10457000FF3FFF3FC018E0387030303030306038D7
:10458000E01FC00FC00FE01F7038303030303030C7
:10459000303030306018000CC00FE01F7038303001
:1045A00030307030E030C018FF3FFF3FC00FE01FD9
:1045B000B03B30333033303330333033E013C0016D
:1045C000C000C000FC3FFE3FC700C3000300030063
:1045D0000E000C00C003E04770CC30CC30CC30CCA7
:1045E00030CC30EEF07FF03FFF3FFF3FC000E000F7
:1045F0007000300030007000E03FC03F000000005D
:1046000030303030F33FF33F003000300000000026
:10461000000C001C0030003030303030F31FF30F3E
:1046200000000000FF3FFF3F00038007C00C601840
:104630003030303000000000000000000330033054
:10464000FF3FFF3F0030003000000000F03FF03F30
:1046500030006000C003C00330003000E03FC03FC6
:10466000F03FF03F8000C0007000300030003000AC
:10467000E03FC03F8007E01F6018303030303030FE
:1046800030306018E01F8007F03FF03F70033003C8
:10469000300330033003B003E001C000C000E0018C
:1046A0003003300330037003E003C001F03FF03FFC
:1046B000F03FF03FC001E0003000300030007000FB
:1046C000E000C000C018E031703330333033303395
:1046D00030333037201E000C30003000FF0FFF1F3A
:1046E0003038303000300030001C000CF00FF01F6C
:1046F00000380030003000300018000EF03FF03F6E
:10470000F003F007000E001C00300030001C000E0B
:10471000F007F003F00FF01F00300038000F000F1B
:1047200000380030F01FF00F30307030C018800DAE
:1047300000070003800DC01870303030F000F00129
:10474000803300330033003300330037F01FF00FA5
:1047500070303038303C303630333033B031F030B8
:104760007030303800000000C000E0013C0F3F3FD7
:1047700001200120000000000000000000000000F7
:10478000FF3FFF3F000000000000000000000000AD
:10479000012001203F3F3C0FE001C000000000006D
:1047A000C000600030003000E000C00100030003E2
:1047B0008001C000000000000000000000000000B8
:1047C00000000000000000000000000000000000E9
:1047D00000000000000000000000000000000000D9
:1047E00000000000000000000000000000000000C9
:1047F00000000000000000000000000000000000B9
:1048000000000000000000000000000000000000A8
:104810000000000000000000000000000000000098
:104820000000000000000000000000000030003028
:1048300000000000003000300000000000300030B8
:104840003000300030003000FFFFFFFF300030004C
:1048500030003000300C300C300C300CFFFFFFFF0C
:10486000300C300C300C300CC00CC00CF03FF87F1A
:10487000DCECCCCCCCCCCCCC0CC00CC00000000010
:104880000000000000000000000000000000000028
:104890000000000000000000000000000000000018
:1048A0000000000000000000000000000000000008
:1048B00000000000000000000000000000000000F8
:1048C00000000000000000000000000000000000E8
:1048D00000000000000000000000000000000000D8
:1048E00000000000000000000000000000000000C8
:1048F00000000000000000000000000000000000B8
:1049000000000000000000000000000000000000A7
:104910000000000000000000000000000000000097
:104920001C003E00330031000000000000000000C9
:104930000000000000000000230033001F000E00F4
:10494000000000001C003E003300310000000000A9
:104950001C003E0033003100230033001F000E0016
:1049600000000000230033001F000E008001C00380
:10497000E007F00FF00FF00FF00FE007C003800129
:104980000000000000000000000000000000000027
:104990000000000000000000000000000000000017
:1049A0000000000000000000000000000000000007
:1049B00000000000000000000000000000000000F7
:1049C00000000000000000000000000000000000E7
:1049D00000000000000000000000000000000000D7
:1049E00000000000000000000000000000000000C7
:1049F00000000000000000000000000000000000B7
:104A000000000000000000000000000000000000A6
:104A10000000000000000000000000000000000096
:104A20000000000000000000000000000000000086
:104A30000000000000000000000000000000000076
:104A40000000000000000000000000000000000066
:104A50000000000000000000000000000000000056
:104A60000000000000000000000000000000000046
:104A70000000000000000000000000000000000036
:104A80000000000000000000000000000000000026
:104A900000000000000000000C0C0C0CF003F00300
:104AA00030033003F003F0030C0C0C0CFC3FFC3F14
:104AB0000C000C000C000C000C000C000F000F0090
:104AC00000000000000000003FFC3FFC0000000070
:104AD00000000000CC30DE7173E333C733CC33CC3D
:104AE000E3CCC3DC8E770C33F03FF03F333333330A
:104AF000303330333330333030303030000000006A
:104B0000C003E007300C300C300C20040000000023
:104B1000FC0FFE1FC330C330C330C330033003303B
:104B200006180C0CC000E00130031806CC0CE40998
:104B3000300318060C0C0408300030003000300040
:104B40003000300030003000F000F00000000000C5
:104B5000C000C000C000C000C000C00000000000D5
:104B60000000000000000000000000000000000045
:104B7000000000000000000033303330F03FF03F11
:104B800033303330000000000000000030007800B7
:104B9000CC00CC0078003000000000003030303015
:104BA00030303030FF33FF33303030303030303061
:104BB0000000000003300330FF3FFF3F03300330AD
:104BC000000000000000000040204020CC3FCC3F0F
:104BD000002000200000000000000000C03FC03F97
:104BE000C000C000C000F000000000000000000095
:104BF000F0FFF0FF000C000CF007F00F001C001895
:104C0000F000F000FC03FC03FCFFFCFF0C000C00B8
:104C1000FCFFFCFF00000000C003C003C003C00392
:104C20000000000000000000C30FE31F70333033AA
:104C30003033B033E331C33000000000C03FC03F29
:104C400000030006000C0018CF3FC93F09000F0009
:104C5000C00FE01F3033303330333033303030303A
:104C60000000000004080C0C18063003E409CC0C0A
:104C700018063003E001C000000000000000000042
:104C80000000000000000000000000000000000024
:104C90000000000000000000000000000000000014
:104CA0000000000000000000000000000000000004
:104CB000000000000000000030333033003F003FB0
:104CC0003030303000000000F03FF83F0C030603A6
:104CD0000303030306030C03F83FF03FFF3FFF3FCE
:104CE000C338C330C330C330C330C331831F030F55
:104CF000FF3FFF3FC330C330C330C330C330E3395D
:104D00003E1F1C0EFF3FFF3F030003000300030094
:104D10000300030003000300003C001CFE0FFF0F14
:104D2000030C030CFF0FFE0F001C003CFF3FFF3F76
:104D3000C330C330C330C330C330C330033003305B
:104D40001F3E3F3FE001C000FF3FFF3FC000E001CA
:104D50003F3F1F3E0C0C061803300330C330C330F6
:104D6000C330E3313E1F3C0FFF3FFF3F0003800194
:104D7000C000600030001800FF3FFF3FFC3FFC3FD9
:104D800000038101C200620031001800FC3FFC3FBB
:104D9000FF3FFF3FC000E001300318060C0C06186F
:104DA0000330012000300038FC1FFE0F0300030019
:104DB00003000300FF3FFF3FFF3FFF3F0E001C00CB
:104DC000F800F8001C000E00FF3FFF3FFF3FFF3FD1
:104DD000C000C000C000C000C000C000FF3FFF3FD7
:104DE000FC0FFE1F06180330033003300330061893
:104DF000FE1FFC0FFF3FFF3F030003000300030003
:104E000003000300FF3FFF3FFF7FFF7FE300C3007E
:104E1000C300C300C300C7007E003C00FC0FFE1FA0
:104E200007380330033003300330033006180C0C0E
:104E30000300030003000300FF3FFF3F03000300E4
:104E4000030003003F007F00C030C030C030C030DE
:104E5000C0306030FF1FFF0FFC00FE0102010303A2
:104E6000FF3FFF3F03030201FE01FC000F3C1F3E1A
:104E70003003F003C000C000F00330031F3E0F3CBE
:104E8000FF0FFF0F000C000C000C000CFF0FFF0FBA
:104E9000003C003C3F007F00C000C000C000C000DC
:104EA000C0006000FF3FFF3FFF3FFF3F003000308A
:104EB000FC3FFC3F00300030FF3FFF3FFF0FFF0F84
:104EC000000C000CFF0FFF0F000C000CFF3FFF3F1A
:104ED00003000300FF3FFF3FC030C030C030C03090
:104EE000801F000FFF3FFF3FC030C030801F000F0A
:104EF00000000000FF3FFF3F00000000FF3FFF3FBA
:104F0000C030C030C030C030801F000F0C0C0618FD
:104F100003300330C330C330C330C330FE1FFC0F37
:104F2000FF3FFF3FC000C000FC0FFE1F03300330F7
:104F3000FE1FFC0F3C307E38C30CC306C303C30105
:104F4000C300C300FF3FFF3F000C001E303330336F
:104F50003033303330333033E03FC03FF00FF81F91
:104F60008C38CC30CC30CC30CC30CC31861F030FD9
:104F7000F03FF03F3033303330333033E01EC00C7D
:104F800000000000F03FF03F300030003000300003
:104F9000F000F00000000000003C001CE00FF00FEB
:104FA000300C300CF00FE00F001C003CC00FE01F75
:104FB000303330333033303330333033E003C001FB
:104FC0007038F03C00030003F03FF03F00030003A3
:104FD000F03C703800000000303030303033303377
:104FE0003033B037E01CC00CF03FF03F000C00063F
:104FF00000038001C0006000F03FF03FF03FF03F51
:10500000030C030604038401C3006300F03FF03F78
:10501000F03FF03F00038007C00C601830301020D4
:105020000000000000300038C01FE00F30003000EA
:1050300030003000F03FF03FF03FF03FE000C001B3
:1050400000030003C001E000F03FF03FF03FF03FFD
:10505000000300030003000300030003F03FF03FE0
:10506000C00FE01F703830303030303030307038A2
:10507000E01FC00FF03FF03F300030003000300044
:1050800030003000F03FF03FF03FF03F300330039E
:105090003003300330033003E001C000C00FE01FD5
:1050A00030303030303030303030201000000000F0
:1050B0003000300030003000F03FF03F3000300072
:1050C00030003000E001E003006600660066006624
:1050D00000660063E03FE01FC000E00130033003E2
:1050E000F03FF03F30033003E001C0003030703853
:1050F000C00C8004000300038004C00C7038303002
:10510000F00FF00F000C000C000C000CF00FF00F73
:10511000003C003CF000F00100030003000300032A
:1051200000038001F03FF03FF03FF03F00300030DF
:10513000F03FF03F00300030F03FF03FF00FF00F55
:10514000000C000CF00FF00F000C000CF03FF03FD3
:1051500030003000F03FF03F0033003300330033C5
:10516000001E000CF03FF03F00330033001E000C27
:1051700000000000F03FF03F00000000F03FF03F73
:105180000033003300330033001E000CC00C6018E5
:10519000303030303033303330333033E01FC00FF5
:1051A000F03FF03F00030003C00FE01F303030300D
:1051B000E01FC00FC000E0213033303B301B300F08
:1051C00030073003F03FF03F085200080000002095
:1051D00018000000D4010008205200081800002028
:1051E000400B0000F00100081C000000430000001C
:1051F000F8FFFFFF0C0000000E0000000F00000091
:105200002E00000000000000CFED00C2F200D1F03F
:1052100000D7F200CFF200D1E100C2F1000000009F
:040000050800019955
:00000001FF
