:020000040800F2
:10000000400B00205D02000865020008670200083E
:10001000690200086B0200086D0200080000000081
:100020000000000000000000000000006F02000857
:100030007102000800000000730200083119000876
:1000400077020008770200087702000877020008AC
:100050007702000877020008111100081D1100083E
:1000600029110008770200087702000877020008CB
:10007000770200087702000877020008770200087C
:10008000090E0008410E0008A90D0008000000003C
:1000900000000000000000000000000077020008DF
:1000A000770200087D19000877020008770200082F
:1000B000770200087702000877020008770200083C
:1000C000770200087702000877020008770200082C
:1000D000770200087702000877020008000000009D
:1000E000770200087702000877020008000000008D
:1000F000000000000000000000000000770200087F
:10010000000000007702000877020008770200086C
:1001100000000000000000000000000000000000DF
:10012000850E0008770200087702000877020008B1
:10013000770200080000000000000000000000003E
:10014000000000000000000000000000770200082E
:10015000770200087702000877020008770200089B
:10016000770200087702000800000000000000008D
:10017000000000000000000000000000000000007F
:1001800000000000770200080000000000000000EE
:10019000770200087702000800F002F800F04FF83C
:1001A0000AA090E8000C82448344AAF10107DA45D2
:1001B00001D100F044F8AFF2090EBAE80F0013F0D5
:1001C000010F18BFFB1A43F001031847803A0000E3
:1001D000A03A0000103A24BF78C878C1FAD8520774
:1001E00024BF30C830C144BF04680C6070470000B1
:1001F0000023002400250026103A28BF78C1FBD830
:10020000520728BF30C148BF0B607047662903F012
:100210002E82642900F0A680732900F01484002047
:1002200070471FB503F016FA00F012FC040000201E
:10023000002102F0D9FCE0601FBD10B510BD00F038
:1002400007FD1146FFF7EDFF01F096FE00F025FDDA
:1002500003B4FFF7F2FF03BC00F068FD09488047D4
:1002600009480047FEE7FEE7FEE7FEE7FEE7FEE798
:10027000FEE7FEE7FEE7FEE704480549054A064BB0
:10028000704700006D190008990100084005002022
:10029000400B002040070020400700200FB41CB591
:1002A000074B06AA7B4469460090059800F0A1FB25
:1002B0000020694600F0B0FB1CBC5DF814FB000098
:1002C0007107000070B5044685690068C10601D554
:1002D000302600E02026C00707D070BDD4E90121F8
:1002E00030469047206A401C20626D1EF6D570BDD6
:1002F00070B5044685690078C00707D170BDD4E9A0
:10030000012120209047206A401C20626D1EF6D5F6
:1003100070BD70B50C460546012A05D028788006C8
:1003200000D5EA69002302E0012305E05B1C93424B
:1003300002D2E05C0028F9D1A869E618C01AA861C9
:10034000286A184428622846FFF7BCFF04E0D5E974
:10035000012114F8010B9047B442F8D32846FFF767
:10036000C7FF70BD2DE9F0410646002410687529CD
:10037000314616A510D0AFF30080002802DA4042C3
:1003800013A507E031688A0701D512A502E04907E5
:1003900004D511A5012401E0AFF3008000210A2259
:1003A00006F1240709E0B0FBF2FCB0FBF2F302FB1C
:1003B0001C00303078541846491C0028F3D12346DD
:1003C0002A463046BDE8F04100F0A7B80000000022
:1003D0002D0000002B000000200000002DE9F05F40
:1003E000894604464FF0000ADFF824B1FB44C0F808
:1003F00020A02046E168884700287DD0252806D027
:10040000D4E901219047206A401C2062F1E70025D1
:100410005F462046E16888472028064607DB312EE4
:1004200005D2B81910F8200C08B10543F1E7A80768
:1004300001D525F00405C4F81CA00027C4F818A0B5
:100440002A2E09D0304602F0C7FB38B304EB8708E8
:10045000303EC8F8186019E059F8041B204604EB38
:1004600087029161E1688847012F064618D1E0694B
:10047000002820DA25F020051DE0D8F8180000EB50
:10048000800006EB40003038C8F818002046E168CC
:100490008847064602F0A0FB0028EED1012F0AD0C3
:1004A0002E2E08D12046E16888477F1C0646022F81
:1004B00045F02005C4DBA069002803DA404245F07E
:1004C0000105A061E80701D025F01005A6B1A6F14D
:1004D0004100192802D8203645F400654A463146C5
:1004E000204625604D46FFF791FE60B1012807D0F8
:1004F000ED1D25F0070000E007E000F1080978E7AE
:1005000005F1040975E730467AE7206ABDE8F09FF7
:10051000823200007047704770472DE9F0470D4662
:1005200099469246044600F124080168880604D5DD
:10053000E06921F01001216000E00120A84201DD06
:10054000471B00E00027A1697A1902EB0900081A8D
:10055000A0612078C00602D42046FFF7B3FE002633
:1005600008E0D4E901211AF806009047206A401CEF
:10057000761C20624E45F4DB2078C0060AD5204662
:10058000FFF7A0FE06E0D4E9012130209047206A61
:10059000401C2062381EA7F10107F4DC07E0D4E913
:1005A000012118F805009047206A401C2062281E8F
:1005B000A5F10105F3DC2046FFF79AFE207800063E
:1005C00002D50220BDE8F0870120FBE72DE9FF4FAF
:1005D0000C461E464FF0FF378BB0D2E90001DDF824
:1005E00060800A908A46C1F30A5505B93D4600214C
:1005F00008464FF00000BAF1000F00F4400005DAA1
:1006000000EB80004FF4400101EA50004FEA90599E
:10061000B9F1010F00DDB9460A9850EA4A000ED040
:1006200044F61050A5F2FF3545432F14B8F1000FE2
:100630001ED07542291E1EDDC9F100021CE0B8F172
:10064000010F4FF0000001D0302103E0F24305E03C
:100650002154401CB042FBDB3046002200212154D3
:100660000B99C1F80880C1E900200FB0BDE8F08FF8
:10067000BD1B6D1CDEE74A4600DA694206A800F0A1
:1006800071FA06AB93E8070003AB83E80700504616
:100690000A9901F051FE8DE80700A0F500501F38BF
:1006A00000900398002D0ADD42F21F014A460844DB
:1006B000002303A90390684602F0BAF809E0A0F508
:1006C00000504A461F38002303A90390684602F0F1
:1006D000C4F88DE807000004000C03D04FF0FF3091
:1006E000410800E01046B8F1000F03D0002200924C
:1006F00015461EE0751E05D400F0AEF93032625585
:100700006D1EF9D5B3460122084302D000227F1C9A
:1007100004E02078302801D100227F1E002A0997AA
:1007200084D01DE0112D07DA00F096F930326255C1
:100730006D1C50EA0102F5D1084302D00098C8B1FF
:100740000EE00021681E05E0235C625C63542254C5
:10075000401E491C8142F7DBAB46A81B401E099096
:10076000002004F80B000B98099AC0F80880C0E933
:10077000002B7AE711264FF0000857E72DE9F04FDC
:1007800088460446D21D22F0070191B0D1E900014C
:10079000CDE90A0102F098F902460B98C00F01D08A
:1007A0002D2007E02068810701D52B2002E02021C1
:1007B00001EAC000032A099001D0072A05DB03469D
:1007C0004146204600F08EF90BE12078800601D5E5
:1007D000E06900E00620B8F1650F814606D0B8F167
:1007E000660F18D0B8F1670F70D131E00020B9F171
:1007F000110F009001DB112301E009F101030AAAA6
:1008000001A90CA8FFF7E2FEDDE90C70002609F152
:100810000105834647E001204B4600904FF000471A
:100820000AAA01A90CA8FFF7D1FEDDE90DB00C99C9
:100830005D46002610B909F101000D18B9EB05005D
:1008400003D4C0F1FF3609F10105A5EB09002BE047
:10085000B9F1010F01DA4FF001090020B9F1110FD0
:100860000090484601DD112300E003460AAA01A9D1
:100870000CA8FFF7ABFEDDE90C704D460026834661
:10088000207800070AD4AB4500DA5D4601A8012DA7
:1008900004DD411911F8011C302907D04F4502DA57
:1008A00017F1040F04DA012082460FE06D1EEEE717
:1008B000002F02DCED1B3E4403E0781CA84200DD63
:1008C0007D1CB81B00F1010A4FF00047207800079B
:1008D00003D4AA4501DB4FF0FF3A0021B7F1004FE6
:1008E0000DF143088DF8431024D002202B23002F54
:1008F00001DA7F422D230A21021EA0F1010000DC53
:100900005FB197FBF1FC97FBF1F201FB1C7C1746F2
:100910000CF1300C08F801CDEEE7A8F101000370EE
:100920002188090501D5452100E06521A0F10108D4
:1009300000F8011C09980FA9A1EB0807FF1D00B1E1
:100940000120411901EBEA70A1693844081A401EE0
:10095000A0612078C00602D42046FFF7B3FC0998B6
:1009600028B1D4E901219047206A401C20622078F8
:10097000C00622D52046FFF7A5FC1EE0002E04DBB2
:10098000B34502DD01A8805D00E03020D4E90121FB
:100990009047206A401C2062761CAAF101005FEAA1
:1009A000000A0AD100F054F8C0680168405CD4E93C
:1009B00001219047206A401C2062281EA5F10105F4
:1009C000DCDC07E0D4E9012118F8010B9047206A2C
:1009D000401C2062381EA7F10107F3DC2046FFF718
:1009E00087FC032011B041E601694A1C02610878C6
:1009F000704700B58FB0CDE901310021059105495F
:100A00007944CDE9031011466846FFF7E7FC0FB0C3
:100A100000BD0000E5FFFFFF0A6802F8010B0A6055
:100A2000704710B5436913B1AFF3008001E0FFF7E1
:100A300070FC012010BD127800F124010A70002220
:100A40004A700122EDE711684FF0FF32E9E700003C
:100A5000004870473800002030B5B0F10A0271F14B
:100A600000034FEA900E4EEA817EB0EB0E0061EB80
:100A700091014FEA101E4EEA017E10EB0E0041EB91
:100A800011114FEA102E4EEA016E10EB0E0041EBF1
:100A900011214FEA104E4EEA014E10EB0E0041EBD1
:100AA0001141401841F100014FEAD00040EA417085
:100AB0004FEAD1014FEA810444EA907410EB8005BB
:100AC00044EB01046D1944EB0404521BA3414FF0A5
:100AD000000348BF0A3200D530BD401C41F100017F
:100AE00030BD00002DE9F0411F4604460326016891
:100AF000072A01F4006004DB08B116A505E016A57D
:100B000003E008B115A500E015A521F01000206054
:100B1000A069C01EA0610FB1401EA0612046FFF772
:100B2000D1FB4FB1D4E9012138469047206A401CDF
:100B30002062C01C206206E0206AFAE7D4E90121A5
:100B400015F8010B9047761EF8D22046FFF7D0FB30
:100B5000BDE8F0814E414E006E616E00494E460088
:100B6000696E66002DE9F047814616468AB0354821
:100B700078440DC88DE80D0032487844801C03ACE1
:100B80000DC884E80D0041F69B300844372190FBE6
:100B9000F1F290FBF1F5A5F1800501FB12041B3C7D
:100BA00002D56442012000E00020DFF898A08046D2
:100BB0000027FA44AAF1BE0A0EE0E0070AD0324646
:100BC000684607EB470101230AEB810101F045FE6E
:100BD0008DE8070064107F1C002CEED1194F7F4474
:100BE000AE3F19E0E80715D007EB04100DF1180A25
:100BF00090E80E008AE80E00C068F04201D1981912
:100C000008903246012306A903A801F026FE03AB93
:100C100083E807006D10641C002DE3D14FF0010341
:100C200032466946B8F1000F03A802D001F000FE79
:100C300001E001F012FEC9E90001C9F808200AB07C
:100C4000BDE8F0878C2B000000487047180000209A
:100C50007546FFF7F9FFAE4605006946534620F09A
:100C60000700854618B020B5FFF706FBBDE8204019
:100C70004FF000064FF000074FF000084FF0000B58
:100C8000AC46ACE8C009ACE8C009ACE8C009ACE8C7
:100C9000C00921F007018D46704710B50446AFF337
:100CA00000802046BDE81040FFF7D2BA00000000E7
:100CB00030B44FF0013C50F8042B51F8043BCCFA0F
:100CC00052F4D51A20D1FCB950F8042B51F8043B4A
:100CD000CCFA52F4D51A17D1B4B950F8042B51F804
:100CE000043BCCFA52F4D51A0ED16CB950F8042B4F
:100CF00051F8043BCCFA52F4D51A05D1002CDAD0C5
:100D000030BC4FF00000704729BAB1FA81F111F000
:100D10001801D1F120008440F2D1CA40CB4012F03A
:100D2000FF0213F0FF0330BCD01A704701491820AE
:100D3000ABBEFEE7260002007047000018480168BD
:100D400041F4807101601748D0F8001341F440313C
:100D5000C0F80013816A41F480118162016B21F0B7
:100D60001F010163016B41F020010163C16841F083
:100D70000701C160016841F480710160416841F47C
:100D800080714160416841F400714160416841F007
:100D900001014160416841F080414160704700BFFE
:100DA00044380240042001407047000014484FF4CA
:100DB0008031016001688903FCD5D0F8001440F24D
:100DC00003721143C0F800140E494160016841F0FC
:100DD000807101600168890101D400BFFAE7816870
:100DE00041F480518160816821F003018160816854
:100DF00041F00201816081680907FCD5704700BF9E
:100E0000003802401930400480B51C4801680905CB
:100E10000ED58168002241F40061816018490A7092
:100E2000D0F8841021F00101C0F8841000F0DEFD3C
:100E300002484FF48041016080BD00BF18040240A9
:100E40000E480168890258BF7047816841F400115B
:100E5000816079490A68520601D400BFFAE7D0F8E8
:100E60009C1021F00101C0F89C10D0F88400C0074C
:100E700002D103480021017000F0BCBD04600240B3
:100E80009C00002070B516480168890627D5816846
:100E9000414B41F02001816012481A885B8801684B
:100EA0004E1C114906600C682244104C0A602568EB
:100EB0002B4444F62065AE4223600BD30026066027
:100EC0000E60B2FBF5F00A4926600860B3FBF5F04E
:100ED000084908600848016841F08041016070BD20
:100EE00000640240D4000020C8000020D000002090
:100EF000C4000020CC0000200820014024480168E4
:100F0000C9073CD150F8081C4FF0807241F0200115
:100F100040F8081C1F4981601F49C16002214160DF
:100F2000016821F060610160016841F440310160B5
:100F3000416921F004014161016821F0C0010160B3
:100F4000016841F480610160016821F40071016071
:100F5000016841F400610160016841F400510160E1
:100F6000016841F480710160016841F01001016085
:100F70000A490A60016841F0010101607047016897
:100F800021F0010101600168C907BBD000BFFAE789
:100F9000106402404C200140C000002004E100E049
:100FA0000248016841F4C0010160704730380240D6
:100FB00070B5144C2068C00713D10021124B0825CE
:100FC00000F05BFB1C4800F00AFB674B1E60A66943
:100FD000F6070DD100F063FB0C4900F0A1FA00F018
:100FE00038BB00F06CFB2068C007E6D000BFFAE712
:100FF000A66926F00106A661A669F607EAD000BF39
:10100000FAE700BF88600240A0000020183C0008FA
:1010100080B500F02FFD0848F021416001684906C5
:1010200002D400BFFAE700BF01688906FBD540681B
:10103000F03818BF012080BD00440040B0B500F07A
:10104000EBF800F0C9FA002000F026F900F0E4F80F
:10105000D02000F0F3F800F0D3F8144DA847144C5A
:101060002060A847606000F0D1F8A847A06000F0B9
:10107000DFF894E8070000F00F03C0F3031000EB63
:10108000800003EB400001F00F03C1F3031101EBFB
:10109000810103EB410102F00F03C2F3031202EBE3
:1010A000820203EB420207C4B0BD00BF7D120008FC
:1010B0009000002010B5044600F0AEF800F08CFA65
:1010C000022000F0E9F800F019FABDE8104000F045
:1010D000AFB810B5044600F09FF800F07DFA01208B
:1010E00000F0DAF800F00AFABDE8104000F0A0B80D
:1010F00010B5044600F090F800F06EFA002000F001
:10110000CBF800F0FBF9BDE8104000F091B800000A
:101110000848016841F00101016070470548016815
:1011200041F00201016070470248016841F004018A
:1011300001607047143C0140094840F21113816876
:1011400041F007018160074942581A43425006495D
:101150004FF4E0720A60016841F0070101607047D6
:10116000003C014008FCFFFF00E100E070B54C00CE
:10117000022506688A40A5403543056045682A4334
:10118000426003FA04F283681A438260049AC368D7
:10119000A2401A43C2606FF01F02082902EB8102CD
:1011A00038BF8A00059901FA02F14FF0240238BFD6
:1011B000202283581943815070BD4900032202FA4E
:1011C00001F1026811430160704710B54900032323
:1011D00004688B4002FA01F124EA03030360C26849
:1011E0001143C16010BD10B54900012304688B4054
:1011F00002FA01F12343036082681143816010BD4C
:101200003E48016841F48061016070473B480168D5
:1012100021F48061016070473848016841F48071B1
:1012200001604169C90718BF704700BFF9E700BFF7
:101230003248016841F40071016070470E49013085
:101240000A6841F8040C40F671000A6812F00202C4
:1012500001D10138F9D100F05DB900BF06490A6833
:1012600041F8040C40F671000A6812F0020201D144
:101270000138F9D100F04EB9145400400C4940F641
:1012800071004A68520604D4013804BF0020704738
:10129000F7E70868704700BF0549086048684007DD
:1012A00001D400BFFAE74868C0F38020704700BF50
:1012B00010540040104840F6FF72016841F40011DC
:1012C00001600E48416821F03F014160416841F0F2
:1012D00030014160C16941F40041C161C16991437C
:1012E000C161C16941F02801C1610F21016201683A
:1012F00041F0010101607047403802400054004055
:1013000010B5254C4021F822216024494A600A6822
:10131000920701D400BFFAE700F0F0024A600A68C1
:10132000920701D400BFFAE70001C0B24860086824
:10133000800701D400BFFAE7052000F0B3FB00F0FE
:1013400043F9BDE8104000F0ADBB00BF10B5124C32
:101350004021FA22216011494A600A68920701D4AB
:1013600000BFFAE700F0F0024A600A68920701D471
:1013700000BFFAE70001C0B248600868800701D4E6
:1013800000BFFAE7052000F08DFB00F01DF9BDE875
:10139000104000F087BB00BF180002400830014039
:1013A000B0B53620FFF7ACFF0024E0B21F2888BF9D
:1013B000B0BD00F049F98020FFF7A2FF00250F2DF6
:1013C00007D80020FFF7C2FF0020FFF7BFFF01355D
:1013D000F5E70134E9E70000F8B53A4D0024202C88
:1013E0000FD000F031F98020FFF78AFF0026102E81
:1013F00004D0A85DFFF7AAFF0136F8E710350134E5
:10140000EDE7304C002604F50075202E12D046F092
:101410008000C0B2FFF774FF8820FFF771FF00273C
:10142000102F04D0E85DFFF791FF0137F8E7103582
:101430000136EAE700200021FF2908BFF8BD44F883
:1014400021000131F8E700BF2DE9F84F1D4BDFF80F
:10145000789003EB001A92F800B0BBF1000F08BFC0
:10146000BDE8F88F4FF0000E0092BEF1050F25D0B9
:101470000EEB01000822702790FBF2F400F0070049
:101480006FF0800242FA00F8802222FA00F60BEB9D
:101490008B005444484410F80E0017F1100C0AD089
:1014A000E25D050642EA060358BF02EA0803E35577
:1014B000103F4000F1E70EF1010ED6E7009A063129
:1014C0000132C8E73C0100201837000800212A46F5
:1014D0002047C4F80090C5F8008001784A1E002912
:1014E000704791FBF8F30BEB021401F00706013192
:1014F00027FA06F6E55C3543E55470470A20B4FB4D
:10150000F0F000EB8001A4EB410141EA0010C0B211
:10151000FFF7C2BE08684868B2FA82F04009704717
:1015200022626162E561A16941F00061A161A16986
:1015300041F48031A161E16A21F00401E162A16915
:1015400041F04001A161A16941F48061A161A169FB
:1015500021F40071A161A16921F4C051A161A169C7
:1015600021F4C041A161A16921F48071A161A16947
:1015700041F01001A1614FF400311960016821F0C0
:1015800040010160016821F02001016000F038BADB
:10159000016821F04001016070476288FF39B1FAAB
:1015A00081F149098140013011436180704702EBAC
:1015B000400301EB40017047C4F80090C5F800807B
:1015C0000A68501E002A70474FF4800020601520E2
:1015D00000BF00BF00BF7047D020FFF73FBE021D15
:1015E000A260E3606560236843F0006323602368C2
:1015F00043F440332360636923F004036361236889
:1016000023F0C0032360236843F4806323602368CE
:1016100023F400732360236823F4C05323602368FA
:1016200023F4C0432360236823F48073236023687A
:1016300043F010032360704701220323CDE900A883
:101640003047027000F0FAB844F08000C0B2FFF7F3
:1016500057BE206840F001002060A06940F0010002
:10166000A06170BD01220323CDE900A43047C4F876
:101670000090C5F80080017870474FF480362160F3
:1016800054F87C0C40F4006044F87C0C7047002255
:10169000C4F80090C5F8008001783B297047A1612B
:1016A00054F87C1C41F4001144F87C1C70474146FE
:1016B000C5F80080C4F800904946411C7047206876
:1016C00020F00100206070470020C4F80090C5F8A9
:1016D00000800A683B2A7047C4F80090C5F8008073
:1016E000017801397047C4F80090C5F8008001788E
:1016F000172970472C4951F8300C40F0805041F8C0
:10170000300C2A48026842F48072026008680004C3
:101710000BD4086840F480700860086840F001004D
:101720000860086840F4004008602148CA228261CD
:1017300053228261026822F02002026009680904D3
:1017400030D4016841F0800101600168490601D48C
:1017500000BFFAE7416847F6FF7221F4FE014160DD
:101760004168914340F221124160416841F4E00137
:10177000416041681143416050F8041C41F0800110
:1017800040F8041CC16841F08001C160C16821F0CB
:101790001F01C160C16841F01601C160016821F0FC
:1017A00080010160704700BF703802400070004047
:1017B0000C28004010B55249C86820F02000C860CD
:1017C0000A68C2F30153C2F30340C2F3023443EA8E
:1017D000830304EB840400EB43034A488370C2F3A1
:1017E000032303EB4403437002F00F03C2F302121E
:1017F00002EB820203EB42020270496801F480535B
:10180000C1F34232C270C1F3032243EA830302EB05
:10181000D322C1F303534271C1F3034203EB8303A9
:1018200002EB4302827101F00F02C1F3011141EAA0
:10183000810102EB4101017110BD00BFF0B53048DC
:10184000C16841F08001C160C168490601D400BF90
:10185000FAE72C4A0A21137854789578DEB2B6FB61
:10186000F1F606EB8607A3EB4703DBB243EA061368
:10187000E6B2B6FBF1F6370306EB8606A4EB4604A8
:10188000E4B247EA04242343ECB2B4FBF1F42605A6
:1018900004EB8404A5EB4404E4B246EA0444234385
:1018A00003605579D37814799279EEB2B6FBF1F6EC
:1018B000370306EB8606A5EB4605D6B2B6FBF1F676
:1018C000EDB247EA0525370506EB8606A2EB460290
:1018D000D2B247EA024242EA4332E3B2B3FBF1F149
:1018E0002A4301EB8103A4EB4303DBB243EA01117A
:1018F00011434160C16821F08001C160F0BD00BFAB
:10190000002800408800002035484CF22F32016842
:1019100041F480510160054801681143016000BF36
:10192000016841F040010160704700BF0030014094
:10193000604890E80E00002B18BF013B002918BF3B
:101940000139002A18BF013A0EC0704724480168C7
:1019500041F48041016004485F214160016841F029
:1019600007010160704700BF10E000E00248016815
:1019700041F470010160704788ED00E0084801689B
:10198000C9070CD0016821F0010101600548016818
:1019900009044FF0004158BF4FF400418160704787
:1019A00010000140100402400D48016841F001019F
:1019B00001600C4800210160C16841F00101C16073
:1019C0004FF4487181624FF6FF71C16206490A689F
:1019D00042F000720A60016841F001010160704745
:1019E000443802400000014000E100E00948FFF7F0
:1019F000CFBD00BF0748016821F08001016070473A
:101A00000448016841F040010160016841F0800133
:101A1000016070471444004010B50E480E4C016838
:101A200041F400310160206820F48050206060683B
:101A300020F44050606000F01DF8206840F008007D
:101A40002060206840F004002060206840F40050CE
:101A5000206010BD403802400C4400400B4800217B
:101A60000160016841F4D0710160016841F0010139
:101A700001607047054800210160016841F49C51F4
:101A80000160016841F008010160704708440040AE
:101A90004FF47A7141430748816011B100BF8168FA
:101AA000FBE770470349886010B100BF8868FBE717
:101AB000704700BF7C0000202DE9F843BA4C206835
:101AC00010B9BA4800210180B94D2868002840F0BB
:101AD0005E81B64EB74F307839684907B6498846B7
:101AE000B649894606D5FFF7E2FD022888BF0021E6
:101AF00008463170C0B201281AD1386880070CD569
:101B0000AF490020C4F80090C5F800800A68172A81
:101B100038BF501C0860FFF7CDFA3868C00707D0FF
:101B2000A749FFF749FD08BF17200860FFF7C2FA71
:101B30003078022816D13868800707D5A149FFF709
:101B4000C3FD38BF501C0860FFF7C3FA3868C007F0
:101B500007D09C49FFF730FD08BF3B200860FFF726
:101B6000B8FA3078032815D13868800707D5964928
:101B7000FFF7AAFD38BF501C0860FFF7B9FA3868B4
:101B8000C00707D09049FFF717FD08BF3B2008604A
:101B9000FFF7AEFA70783968490506D5FFF787FD7B
:101BA000062888BF002108467170C0B2012814D1F0
:101BB0003868800707D585480022FFF794FD38BFB5
:101BC0004A1CFFF73EFD3868C00706D07F48FFF784
:101BD00080FC08BF1722FFF734FD7078022814D16B
:101BE0003868800706D57A48FFF751FD38BF4A1C90
:101BF000FFF727FD3868C00706D07548FFF769FC76
:101C000008BF3B22FFF71DFD7078032813D1386809
:101C1000800706D56F48FFF73AFD38BF4A1CFFF72B
:101C200010FD3868C00706D06A48FFF752FC08BFAD
:101C30003B22FFF706FD7078042817D1386880072B
:101C400008D565480122FFF712FD072938BF4A1C55
:101C5000FFF7F7FC3868C00707D05F48FFF73CFD87
:101C600098BF07210170FFF7E9FD7078052862D160
:101C7000386880072BD5DFF864C14846C4F8009067
:101C8000C5F8008040469CF800101E291AD8544A16
:101C900012780C2A07D8012341F22A5093400342BC
:101CA00001D04B1C0FE01D290CD80B2A04D80120B1
:101CB000904010F42D6FF4D101231B2903D8022A80
:101CC000EFD000E001238CF80030FFF7B7FD386853
:101CD000C00730D04846C4F80090C5F800804046A0
:101CE0003E480178022901D3013921E03C490978B5
:101CF0000C291ED8012241F22A538A401A4204D1EB
:101D000012F42D6F11D01E2112E01F220239027031
:101D1000CAB20A2A0DD240F2B52323FA02F2D20740
:101D200007D049B22FA2515C02E0022901D11C2147
:101D30000170FFF783FD7078062817D13868800797
:101D400008D527480122FFF792FC0C2938BF4A1C0E
:101D5000FFF777FC3868C00707D02148FFF7BCFCC5
:101D600098BF0C210170FFF769FD707807280ED12C
:101D70003868800708D51E481722FFF778FC6329CA
:101D800038BF4A1CFFF75DFC3868C00701D1BDE8C9
:101D9000F88317486322FFF7A6FC88BF4A1E02702B
:101DA000BDE8F843FFF74ABD80000020780000201E
:101DB0007C0000201004024040EF0700809698004D
:101DC0009800002094000020900000208A0000204D
:101DD00089000020880000208B0000208C0000205B
:101DE0008D0000201C1E1E1E1E1E1E1E1E1E00001C
:101DF0008E000020000000002DE9F04F8BB09846C7
:101E0000002390420A9302DD0C46064603E0444656
:101E1000164688460246964217D1444580F286808F
:101E2000534B08F101000821802203EB0613A04266
:101E300000F0918094FBF1F504F00707013422FAD9
:101E400007F75E5D3E435E55F1E7A4EB08001446DC
:101E5000009001F01CF90546301B0F4601F017F900
:101E600002460B462846394600F088FFCDE90510AA
:101E7000701CCDE90780404601F009F99FED3A1B3F
:101E80009FED370BDFF8E8B0CDE903104FF00808FD
:101E9000802751EC110BCDE90110089884425AD0EB
:101EA00059EC10ABDDE90510099452464B4601F0A0
:101EB00055F9DDE9033200F0ADFE41EC100B00F006
:101EC0001BFE51EC100B01F0B3F8099D90FBF8F2EA
:101ED00000F0070427FA04F40BEB05118B5C234395
:101EE0008B540799814201D10A9114E00099B1F114
:101EF000FF3F07DD0A996A1E013181420ADAFFF7C6
:101F0000F0FAFAE7411C6A1E0A9B994202DAFFF7CF
:101F1000E8FAF9E70A90DDE901325046494600F057
:101F200079FE099C41EC100B0134B6E7104A601CA5
:101F30000821802302EB061240450CD0454608F0EC
:101F4000070708F1010895FBF1F523FA07F7565D3D
:101F50003E435655F0E70BB0BDE8F08F00BF00BF21
:101F60000000000000000000000000000000F03F42
:101F70003C0100200000000082B0FEF717FFFFF7D1
:101F8000E5FCFFF711FDA448A44FA54C032201680E
:101F900041F00301016038460F21A04738460C216B
:101FA0000322A047A7F58065062103222846A04703
:101FB00007F580600D210322A04738460D2103223A
:101FC000A04738460E210322A047964E38460021EE
:101FD00002224FF00009B0473846012102224FF09B
:101FE000010AB047384602210222B04738460A218A
:101FF0000222B0478C4E05242846072100220323E5
:102000004FF00708CDE90094B0472846052100228B
:102010000323CDE90094B047042438460621FFF796
:1020200021FB38460721FFF71DFB28460221FFF759
:1020300003FB28460321FFF7FFFA28460021FFF79C
:10204000BCF828460121FFF7B8F8FFF733F9FFF78E
:102050005BFCFFF74FFBFFF76FF8FEF7A1FFFEF702
:102060004DFFFEF76BFEFFF7D7FC6420FFF710FD76
:10207000FFF796F9714DDFF8EC817B4C9FED628B99
:102080009FED639B9E4FFFF717FDFFF793FBFEF756
:10209000D5FF67486AA10368664802686648006819
:1020A00000902846FEF7FAF8002000212A46FFF7A4
:1020B000CBF96A48007848B100EBC00011211C221E
:1020C000FFF775FA08200822FFF796FE574E64497D
:1020D00030683368C0F306426FF3DF332846C047E9
:1020E0002020FFF7F3F9B06860A100F01F02284636
:1020F000C0472820FFF7EAF96048006800F0DEFFDB
:102100005AEC189B4A46534600F038FE83465C481A
:102110000E46006800F0D2FF4A46534600F02EFEFD
:1021200041EC100B284657A15A4633468DED000B63
:10213000C0473020FFF7CAF900F0E4F800F0BEFF16
:1021400053EC192B01F00AF802460B46284653A11E
:10215000C0473820FFF7BAF9544857A103785448CC
:1021600002785448007800902846C0470A20FFF7BC
:10217000ADF95B4A574859491278037856480978AF
:10218000007802F5FA62CDE90012564900EB4000F2
:10219000084455A1C21E2846C0471420FFF796F9EF
:1021A0003878411E02290AD800EBC00012211C22F7
:1021B000FFF7FDF912201222FFF71EFE3878011FEB
:1021C00002290CD800EBC0006FF029016FF01F024C
:1021D000FFF7EDF91C201C22FFF70EFE38780728C8
:1021E00005D11C2054211C226A23FFF705FEFFF7AE
:1021F000F3F80A490869C0044FF0805058BF4FF403
:10220000805088613FE700BF0000000000B89340A5
:102210009A9999999999B93F30380240000402403F
:10222000E7110008CB1100086D11000810280040CC
:10223000940000209800002090000020D80000208A
:10224000C2F0E5ECFF20253032643A253032643AA2
:10225000253032642044533332333100780000207B
:10226000383C00089D0200084914000844435F639D
:10227000616C69627220256400000000C4000020C7
:10228000CC0000204144435F6368302F313D20255E
:102290002E32662F252E326642000000D2E5ECEF8A
:1022A000E5F02E20252E3166000000008900002078
:1022B0008A00002088000020C2F0E5ECFF202530D5
:1022C00032643A253032643A253032642052544325
:1022D000000000008C0000208B0000208D000020FA
:1022E0008E00002000000020C4E0F2E02025732FC3
:1022F000253032642F253032642F253032640000BF
:102300007900002010B50B4C207880B90120207096
:10231000FFF7A4FB00206080202804D02118097951
:10232000FFF73BF9F8E7FEF773FEFEF741FE608822
:1023300010BD00BF9C0000205FEA400C08BF91F078
:10234000000F4FEA8C234FEAC12243EA51514FEA72
:102350001C5018BF00F5F0404FEA300018BF41F0A4
:1023600000415FEA6C5C00F02980BCF1FF3F08BFD0
:1023700040F080407047130C06BF12044FF0100C61
:102380004FF0000C130E04BF12020CF1080C130FD7
:1023900004BF12010CF1040C930F04BF92000CF166
:1023A000020CD30F04BF52000CF1010C11464FF088
:1023B0000002A0F11F00A0EB0C00704711F0004FCD
:1023C00008BF704731F000413FF4D5AF0B0C06BF9A
:1023D00009044FF0100C4FF0000C0B0E04BF090263
:1023E0000CF1080C0B0F04BF09010CF1040C8B0F4E
:1023F00004BF89000CF1020CCB0F04BF49000CF1A3
:10240000010CCCF1200322FA03F341EA030102FAA2
:102410000CF2A0EB0C0000F10100704723F07F47A5
:1024200020F07F4C80EA030000F00040ACEB070393
:1024300003F57C5303F1FF032DE9804909B44FEA0A
:10244000144324EA03484FEA154B25EA0B4E0FF2DA
:10245000042606EB13273E7803FB0667C7F5000743
:1024600007FB06F64FEAD64606F102064FEA543756
:1024700007FB066CCCF1005C4FEA1C472CEA074CCA
:102480000CFB06F507FB06F404EB15464FEA96161F
:1024900049085FEA320234BF00204FF000404FEAA3
:1024A000D13706FB07FC4FEA1C4C0CFB0BF7D21B89
:1024B00003FB0CF761EB07010CFB0EF7B0EB0740D9
:1024C00072EB17420CFB08F734BFA2EB0742B2EBEA
:1024D000074261EB17414FEA0C444FEA910706FBB4
:1024E00007FC4FEA1C4C0CFB0BF7B0EBC74072EB40
:1024F000573203FB0CF734BFA2EBC742B2EBC74223
:1025000061EB57310CFB0EF7B0EBC70072EB577263
:102510000CFB08F734BFA2EBC702B2EBC70261EBBA
:1025200057714FEA816141EA92114FEA826242EAB1
:1025300090124FEA806004EBCC04039F4FEAD1373E
:1025400006FB07FC4FEA1C4C0CFB0BF7D21B03FBF2
:102550000CF761EB07010CFB0EF7B0EB074072EBD9
:1025600017420CFB08F734BFA2EB0742B2EB07425D
:1025700061EB17414FEA8C5504EB9C244FEA91071D
:1025800006FB07FC4FEA1C4C0CFB0BF7B0EBC740FB
:1025900072EB573203FB0CF734BFA2EBC742B2EB2E
:1025A000C74261EB57310CFB0EF7B0EBC70072EB83
:1025B00057720CFB08F734BFA2EBC702B2EBC7029D
:1025C00061EB57714FEA816141EA92114FEA8262F1
:1025D00042EA90124FEA806015EB4C2544F100046A
:1025E0004FEAD13706FB07FC4FEA1C4C0CFB0BF7FC
:1025F000D21B03FB0CF761EB07010CFB0EF7B0EBF2
:10260000074072EB17420CFB08F734BFA2EB0742FE
:10261000B2EB074261EB17414FEA813141EA924147
:102620004FEA823242EA90424FEA80304FEA0C761B
:1026300015EB1C1544F1000448EA03434EEA0B482D
:102640004FF0000EB2EB080C71EB030724BF62469B
:1026500039464EEB0E0E4FF0000B00185241494127
:102660004BEB0B0BB2EB080C71EB03077BF1000B90
:1026700024BF624639464EEB0E0E4FF0000B001899
:10268000524149414BEB0B0BB2EB080C71EB0307CA
:102690007BF1000B24BF624639464EEB0E0E51EA29
:1026A000020718BF46F0010616EB0E7655F1000240
:1026B00054F1000103D5BDE88901BDE80088BDE8FB
:1026C0008901BDE80048B619524141EB0101A3F16F
:1026D0000103704780807F7E7D7C7B7A7978777676
:1026E00076757473727171706F6E6E6D6C6C6B6AEF
:1026F0006A6968686766666564646363626161608D
:10270000605F5F5E5E5D5D5C5C5B5B5A5A59595809
:102710005857575656555555545453535252525173
:10272000515050504F4F4F4E4E4D4D4D4C4C4C4BC9
:102730004B4B4A4A4A494949484848474747474610
:10274000464645454544444444434343434242424C
:10275000424141419C46002B30D477002BD04FEAB8
:1027600037071CB503B44FF010004FF01001BAF159
:10277000000F06D0BCF1000FDCBF40F0080040F0B5
:1027800008014FF000000FBCBDE810400BF1010B39
:10279000BBF1010F08BF5FEA170722BF12F1010268
:1027A00011F101014FF0004143F1000300F000403E
:1027B00043EA00007047F9D35708D0E746EA0646D7
:1027C0004FEA164613F1400F1FDD13F1200FDFBF54
:1027D00016430A46002120335B42BED0C3F12007D6
:1027E00046EA06464FEA164602FA07F746EA0706A1
:1027F00022FA03F2C3F1200701FA07F742EA0702BF
:1028000021FA03F14FF00003A7E746EA020646EA81
:1028100006464FEA164646EA0106BCBF46EA0646A9
:10282000360C4FF000034FF000024FF0000194E728
:102830002DE9804C70B49A46934691E8380007C859
:1028400031EA400C48BF34EA430C03D5FFF7E6FDFC
:10285000FFF780FFF0BCBDE8008C2DE9804C70B420
:102860009A46934691E8380007C810F0804F08BF99
:1028700013F0804F03D100F005F8FFF76BFFF0BCB9
:10288000BDE8008C20F07F4723F07F4C80EA0300F6
:1028900000F0004007EB0C03A3F57C53A3F1FE030B
:1028A00092F0000F00F0B38095F0000F00F07780F9
:1028B0002DE901494FEA114021EA00484FEA144648
:1028C00024EA064700FB06FC08FB06F607FB08F8AF
:1028D00018EB06484CEB164C00FB07F718EB0748C3
:1028E0004CEB17404FEA124B22EA0B4E4FEA1546CB
:1028F00025EA06470BFB06FC0EFB06F607FB0EFE61
:102900001EEB064E4CEB164C0BFB07F71EEB074E6F
:102910004CEB174B18EB0B0840F1000018EB0E0BBB
:1029200058EB000840F100008F1A4FF000014FF003
:1029300000063CBFC943661B14BFB5EB040C002165
:102940003CBFC943F61B4FEA174427EA04454FEA48
:102950001C472CEA074C04FB076205FB07F70CFB3E
:1029600005F616EB074642EB174204FB0CFC16EB90
:102970000C4642EB1C421BEB060658EB020241419F
:102980004EEA8E0E46EA9E0601D5BDE80189B619CB
:10299000524141EB0101A3F10103BDE801894FEA76
:1029A000144524EA05464FEA114721EA074C05FB86
:1029B00007F406FB07F70CFB06F111EB074144EBAC
:1029C000174405FB0CFC11EB0C4144EB1C444FEA93
:1029D000124722EA074C05FB07F206FB07F70CFB40
:1029E00006F616EB074642EB174205FB0CFC16EB0E
:1029F0000C4642EB1C456A1854F1000148BF704771
:102A0000B619524141EB0101A3F10103704795F062
:102A1000000F37D04FEA114221EA02464FEA14472D
:102A200024EA074C02FB07F106FB07F70CFB06F450
:102A300014EB074441EB174102FB0CFC14EB0C4474
:102A400041EB1C414FEA154725EA074C02FB07F50D
:102A500006FB07F70CFB06F616EB074645EB17459A
:102A600002FB0CFC16EB0C4645EB1C42121951F113
:102A7000000148BF7047B619524141EB0101A3F173
:102A8000010370474FEA144524EA05464FEA11470F
:102A900021EA074C05FB07F106FB07F70CFB06F2E2
:102AA00012EB074241EB174105FB0CFC12EB0C4209
:102AB00051EB1C414FF0000648BF7047921841EBA4
:102AC0000101A3F10103704703B40198410000988C
:102AD00050EAC12018BF04204A0D18BF40F0010081
:102AE00040F2FF72B2EB515F08BF40F002000128D4
:102AF00008BF052002B0704710B52DED020B2DED7B
:102B0000088B84B09DED0C0B51EC100B00F05AFCBF
:102B100041EC180B9DED0C0B53EC182B51EC100BEA
:102B200000F0AAFC41EC190B0D989FED290B10F059
:102B3000004F53EC102B51EC190B9FED21AB9FED87
:102B400022BB0ED000F0CEFA0ED953EC1B2B51EC69
:102B5000190B00F001FC1CD214E000BF41EC180B73
:102B600017E000F0BFFA06D253EC1A2B51EC180B09
:102B700000F082FCF2E753EC1B2B51EC190B00F038
:102B8000EBFB06D853EC1A2B51EC180B00F042F873
:102B9000E4E78DED028B9DED0C0B18EE901A10EE14
:102BA000900A8DED000B61F31E0003909DED020B6A
:102BB00004B0BDEC088B02B010BD000000000000A6
:102BC000000000000000F03F000000000000E03FB7
:102BD000000000000000E0BF30380A2801D20120C8
:102BE000704700207047000010B500290AD008780F
:102BF000002807D005487844FEF75AF8002801D08D
:102C0000002010BD0248784410BD0000761000007E
:102C10006E10000010B591EA030F48BF83F0004327
:102C200000F13284841A71EB030C05D2121943EBC4
:102C30000C03001B61EB0C014FEA1154A4EB135C75
:102C4000DFF81CE11EEA430F18BF9EEA445F00F064
:102C5000748021EA045123EA0E0343F48013DCF16B
:102C6000200E32D322FA0CFE10EB0E0023FA0CFEDB
:102C700041EB0E01CCF1200E03FA0EFE10EB0E001C
:102C8000CCF1200E51F10001B1F5801F32D201EBE1
:102C9000045112FA0EF2BDE8104058BF7047401CB4
:102CA00038BF5FEA420218BF7047002814BF20F007
:102CB000010041F100014FEA410313F5001F38BF45
:102CC0007047A1F1C04100F041BB012A43EB030270
:102CD000ACF1200CDCF11F0E32BF4FF0000E23FAD6
:102CE0000CF310EB030041EB0451B4EB115FD0D0B7
:102CF000A1EB045101F58011490801EB04515FEA91
:102D000030000ED350F1000038BF12FA0EFE08D189
:102D1000BDE81040C9E7401C38BF5FEA4202CAD193
:102D2000C3E7BDE810404FEA410313F5001F38BF69
:102D30007047A1F1C04100F009BB9EEA445F08D092
:102D400011EA5E0FBDE8104004BF01F00041002011
:102D50007047BDE8104070B500F0AAFA64FBBE3EB3
:102D60000000E0FF491058BFC1F140415B1058BF5F
:102D7000C3F140438B42EFF3008070472DE9C0411F
:102D800030B4DFF8A4C23CEA111418BF3CEA1314B3
:102D900000F0ED801CEA111481EA030544EAD574C1
:102DA00018BF1CEA131500F0C880A4EB050404F159
:102DB0007F7404F500344FF0004545EAC12145EA2F
:102DC000C32341EA505143EA52534FEAC0204FEA2D
:102DD000C222994208BF904200F09D804FEA1365DD
:102DE0000FF24416765D4FEA134506FB05F7C7F16F
:102DF000807706FB07F74FEAD737A7FB03687642D1
:102E0000A7FB06CEC8F5803838BFA8F1010807FB3C
:102E100008E6A6FB028C4FF0000EE6FB03CEDCF1C9
:102E2000000CCEF1004E38BFAEF1010EA6FB0C58DF
:102E30004FF00007E6FB0E87A1FB08C6A0FB07CEFC
:102E400016EB0E064FF0000545F10005E1FB0765A6
:102E500015F1E04E7EBFA4F580345FEA46066D4171
:102E600016F1800745F100054FEA172747EA056785
:102E70004FEA15254FEA0666A6F1DE46B6F1805FF9
:102E800020D9384605EBC47124F0010C01EB0C117C
:102E9000BCF1FE6F02D8F0BCBDE8008124425CBFEB
:102EA00001F5801E9EEAC47F02D4F0BCBDE800811B
:102EB000244200F13980A1F1C041F0BCBDE80041DD
:102EC00000F044BA4FEAD02040EA41504FEAD12105
:102ED0004FEAD22242EA43524FEAD323A7FB0286AB
:102EE00007FB036605FB02661EEA0E0F58BFA6EB42
:102EF0000056B6EB00564FEA520E4EEAC37E18EB70
:102F00000E0E56EB530EBCD518EB02085E417F1C2B
:102F100055F10005B5E74FF480154FF000074FF06D
:102F200000064FF00008ACE701F1C04101F000419C
:102F30004FF00000F0BCBDE800810CEA131511EA67
:102F40000C1F00D00CE013EA0C1F00F026804FF09D
:102F5000000081EA030101F00041F0BCBDE80081FE
:102F6000F0BCBDE8004181EA030100F0EFB9F0BC1C
:102F7000BDE8004170B500F09BF900BF097EFC3E42
:102F800000F007B84FF0000081EA030101F00041B2
:102F9000704781EA030100F0D9B9F0BCBDE80041F7
:102FA00022494FF000007047FFFDFBF9F7F5F4F2FE
:102FB000F0EEEDEBE9E8E6E4E3E1E0DEDDDBDAD8D4
:102FC000D7D5D4D3D1D0CFCDCCCBCAC8C7C6C5C432
:102FD000C2C1C0BFBEBDBCBBBAB9B8B7B6B5B4B349
:102FE000B2B1B0AFAEADACABAAA9A8A8A7A6A5A434
:102FF000A3A3A2A1A09F9F9E9D9C9C9B9A999998F8
:103000009797969595949393929191908F8F8E8E9A
:103010008D8C8C8B8B8A8989888887878685858427
:1030200084838382828181800000FF070000F87F13
:103030004FEA41034FEA5353A3F58063D3F11E03D4
:10304000C8BFD3F1210C0CDD4FF0004242EAC1228F
:1030500042EA505232FA03FC8CEAE17CACEBE170BC
:103060007047102BC4BF0020704703F5787CBCF17B
:10307000FF3F04D06FF0004282EA2100704770B534
:1030800000F016F94992248000207047F2E710F012
:10309000004248BF4042B0FA80F310FA03F10AD070
:1030A000C3F11D0303F5806302EB03524FEA415065
:1030B00002EBD12170474FF000007047B0FA80F367
:1030C00010FA03F10AD0C3F11D0303F580634FEA40
:1030D00003524FEA415002EBD12170474FF00000FC
:1030E0007047000051EA030C17D41CF5801F58BF2D
:1030F000BCF5801F00F10680994218BF704708BFD9
:103100009042704707D711F5801F58BF13F5801FF5
:1031100019D499427047894270471CF5801F08D521
:10312000BCF5801FF7D58B4218BF704708BF82429D
:1031300070474FF4001C1CEB410F38BF1CEB430FD2
:1031400001D28B42704770B500F0B2F8922449006A
:103150004FF000514FF08053FFF704BE70B5DFF819
:1031600048C11CEA111E1EBF1CEA13159EEA0C0F73
:1031700095EA0C0F00F06F8081EA03044EEAD47EDA
:10318000AE4421EA4C1123EA4C1341F4801143F47C
:103190008013AEF17F7EA1FB024CA0FB03653619C4
:1031A00055EB0C05A1FB034C4CF10003A0FB021CEA
:1031B00016EB0C06654153F10003094218BF46F0B7
:1031C000010613F4007F0BD14FEA03314FEA0530BB
:1031D00041EA155140EA165034036FF003020AE049
:1031E0004FEAC3214FEAC52041EA555140EA565003
:1031F000F4026FF0020202EB2E4201EB025585EA67
:10320000CE710AD05FEA440C18BF24F0004450F19C
:10321000000041F1000120EAD47040F2FE7C6245DA
:1032200000D270BDA84214BF4FF080444FF040441C
:10323000002E08BF0024BEF1806FA8BFA1F1C041DD
:10324000BDE8704080F2828001F1C04101F0004190
:103250004FF0000070470CEA13159EEA0C0F18BFE0
:1032600095EA0C0F06D081EA030E4FF000000EF035
:10327000004170BD00F01CF88900013E00F007B865
:1032800000F009B84FEA430C5FEA5C5C08D081EAC1
:10329000030100F05BB84FEA410C5FEA5C5CF6D1D9
:1032A00002494FF0000070470000FF070000F87F60
:1032B0000EF1020E2EF0030E5EF8046B364205D4BA
:1032C000012A43EB030515F5001F12D8012841EB35
:1032D000010C1CF5001F0CD80ED14FEAD17C0CEB71
:1032E0004C0C0CF1020C15F5001F08BF4CEBD37C05
:1032F00004E04FF0080C01E04FEAD37C0CEB4C05E6
:1033000026FA05F606F00706B6F1040C06D20EEB17
:10331000860CBDE870404CF0010C6047DFE80CF013
:10332000090B02024FF00041A1F500214FF000000F
:1033300070BD19461046012851EB010418BFD4F5A1
:10334000001484BF002001F0004170BD0808A0F502
:1033500000114FEA3101704753EA010C17D41CF5F4
:10336000801F58BFBCF5801F00F106808B4218BF3C
:10337000704708BF8242704707D713F5801F58BFB8
:1033800011F5801F19D48B4270479B4270471CF582
:10339000801F08D5BCF5801FF7D5994218BF70472C
:1033A00008BF904270474FF4001C1CEB430F38BF1E
:1033B0001CEB410F01D2994270470FB40CBC03BC07
:1033C000FFF7C1BE5FEA410C5FEA5C5CACF580636D
:1033D0005B1C39D4D3F1340240F34580B2F12003B1
:1033E00014DA4FF0010C0CFA02FCACF101030340BB
:1033F00020EA0300B3EB5C0208BF10EA0C0F98BF91
:10340000704710EB0C0041F1000170470AD0C3F186
:10341000200201FA02FC01284CF1000021FA03F11C
:1034200001FA03F14FF0010C0CFA03FCACF10103BB
:1034300021EA0301B0F1004F08BF11EA0C0F4FF071
:10344000000088BF61447047B3F1FF3F28BF50EAD6
:10345000C12C01F000414FF0000084BF41F07C51CD
:1034600041F470017047B3F5806FB8BF704770B515
:10347000FFF71EFF40DBB6BE10B591EA030F48BF51
:1034800083F000433FF5CEAB841A71EB030C07D2F7
:103490008CF0004C121943EB0C03001B61EB0C0188
:1034A0004FEA1154A4EB135CDFF8A4E11EEA430FCA
:1034B00018BF9EEA445F00F0B48021EA045123EA79
:1034C0006E035242C3EB6E0338BF5B1EDCF1200E6D
:1034D00025D322FA0CFE10EB0E0043FA0CFE41EB52
:1034E0000E01CCF1200E03FA0EFE10EB0E00CCF113
:1034F000200E51F1000129D401EB045112FA0EF211
:10350000BDE8104058BF7047401C1CBFB2F1004FCF
:10351000704700280CBF491C20F00100704712EBD7
:10352000020E43EB030218BF4FF0010E4EEA4202B7
:10353000ACF1200CDCF11E0E56D943FA0CFE10EB58
:103540000E00CCF11E0E51F1FF31D5D50EF1010E5A
:1035500012FA0EFE404141EB010101EB445C5FEACF
:103560005C5C10D901EB045110EBDE7038BFBEF18A
:10357000004FBDE8104018BF704700280CBF491C21
:1035800020F00100704734D24FEAD42C24F40064B8
:1035900011F500111BD0B1FA81F20B3AA41AA41E46
:1035A000D2F12003914030FA03F31943904001EB2C
:1035B000CC7101EB0451002CBDE81040A8BF70474E
:1035C00001F1C04101F000414FF000007047B0FA36
:1035D00080F310FA03F102D1BDE810407047E41AFD
:1035E000173C4805C90AE2E701EB0451BDE8104069
:1035F000704749104FEA300001EB0451BDE810401C
:1036000002E04FF0000170474A0008BF0042F8D0C6
:10361000B2F5001F28BF704701F000414FF00000D5
:1036200070479EEA445F07D011EA5E0FBDE8104084
:1036300004BF002100207047BDE8104070B5FFF7BF
:1036400037FE00BF40DFF63E104683F00041704772
:103650000000E0FFF1EE100A4FF6FF71C0F2C0313A
:1036600020EA010040F04070E1EE100A7047FDF7DB
:1036700085B80400000800000000000000020001FE
:103680000000100002400000000000A00000000048
:1036900005400000000000C8000000000C400000D1
:1036A0000000409C00000000194000000020BCBE4B
:1036B0000000000034400000BFC91B8E0000000461
:1036C000B5400000504BCFD06607E2CF01000000AC
:1036D0006C4100003E8251AADFEEA73401000000D9
:1036E000D9420000DCB5A0E23A301F97FFFFFFFF90
:1036F000B4450000FD25A0C8E9A3C14FFFFFFFFFAF
:10370000FF3F00000000008000000000FF3F0000BD
:103710000000008000000000000000000002050220
:103720000000000000000000000000000000000099
:103730000000000000000000000000000000000089
:103740000000000000000000000000000000000079
:103750000000000000000000000000000000000069
:103760000000000000000000000000000000000059
:103770000000000000000000000000000000000049
:103780000000000000000000000000000000000039
:103790000000000000000000000000000000000029
:1037A0000000000000000000000000000000000019
:1037B0000000000000000000000000000000005FAA
:1037C00000000007000700147F147F14242A7F2ABA
:1037D000124C2C1068643649552250000503000035
:1037E000001C2241000041221C0014083E0814085D
:1037F000083E080800005030001010101010006043
:1038000060000020100804023E5149453E00427FFE
:10381000400042615149462141454B311814127F05
:103820001027454545393C4A49493001710905038E
:103830003649494936064949291E003636000000F6
:1038400056360000081422410014141414140041C8
:1038500022140802015109063C425A560C7E1111ED
:10386000117E7F494949363E414141227F414122F3
:103870001C7F494949417F090909013E4149497A6B
:103880007F0808087F00417F41002040413F017FC1
:10389000081422417F404040407F020C027F7F0499
:1038A00008107F3E4141413E7F090909063E4151D2
:1038B000215E7F09192946464949493101017F01A5
:1038C000013F4040403F1F2040201F3F4038403FC5
:1038D00063140814630708700807615149454300E1
:1038E0007F41410002040810200041417F00040292
:1038F00001020440404040400001020400205454B2
:1039000054787F4844443838444444203844444838
:103910007F3854545418087E090102189494947CFA
:103920007F0804047800447D40002040443D007F2F
:103930001028440000417F40007C041804787C0873
:1039400004047838444444387C14141408081414CB
:10395000187C7C080404084854545420043F444014
:10396000203C4040207C1C2040201C3C4030403CFF
:1039700044281028440C5050503C4464544C44009B
:103980000836410000007F000000413608000804AE
:103990000810080000000000000000000000000007
:1039A0000000000000000000000000000000000017
:1039B0000040004000400404FF04042424FF2424A9
:1039C000287CAAAA8200000000000000000000007D
:1039D00000000000000000000000000000000000E7
:1039E00000000000000000000000000000000605CC
:1039F000000000000503000605000605050300059C
:103A000003183C3C3C1800000000000000000000CF
:103A10007848487800000000000000000000000026
:103A20000000000000000000000000000000000096
:103A30000000000000000000000000000000000086
:103A4000000000000000000000000000221C141C08
:103A5000227E020202030000E700004A95A5A95257
:103A60007C5554454400182424003E49494122080D
:103A7000142A1422040404040C000808080000009E
:103A800000000000457C450000040A040044445F37
:103A9000444400417F410000007A00000078080C97
:103AA0000000FC203C200C1EFE02FE001818000046
:103AB00039545449007810207B0338545444002270
:103AC000142A14080000000000000000000000009C
:103AD00000000000547044007C1211127C7F4949A0
:103AE00049317F494949367F01010101603F213F4A
:103AF000607F4949494177087F0877224149493623
:103B00007F1008047F7E1009047E7F081422414044
:103B10003E01017F7F020C027F7F0808087F3E4143
:103B200041413E7F0101017F7F090909063E414174
:103B3000412201017F0101074848483F0E117F11D2
:103B40000E63140814633F20203F60070808087FB5
:103B50007F407E407F3F203F207F017F4848307F6D
:103B60004830007F007F484830224149493E7F0865
:103B70003E413E462919097F20545454783C4A4A14
:103B80004A317C545454287C04040C00603C243C8E
:103B90006038545454186C107C106C44545454289D
:103BA0007C2010087C7C2112097C7C102844004079
:103BB0003804047C7C0810087C7C1010107C38448D
:103BC0004444387C0404047C7C14141408384444B1
:103BD000440004047C04040C5050503C08147C1431
:103BE0000844281028443C20203C600C1010107C15
:103BF0007C407C407C3C203C207C047C5050207CE1
:103C00005020007C007C50502028445454387C10B4
:103C1000384438485434147C0000FFFF0000FFFF94
:103C200000FFFFFFFFFF00FFFFFFFFFFFFFFFFFFA2
:103C3000FFFFFFFFFFFFFFFF5072656469765F4182
:103C40002F532025642F256400000000883C0008C5
:103C50000000002018000000D4010008A03C00086B
:103C600018000020280B0000F00100081C000000D4
:103C700043000000F8FFFFFF0C0000000E000000F2
:103C80000F0000002E000000CFED00C2F200D1F0C6
:103C900000D7F200CFF200D1E100C2F10000000035
:040000050800019955
:00000001FF
