:020000040800F2
:10000000600600201D0300082503000827030008E0
:10001000290300082B0300082D030008000000003E
:100020000000000000000000000000002F03000896
:100030003103000800000000330300083503000806
:1000400037030008370300083703000837030008A8
:100050003703000837030008370300083703000898
:100060003703000837030008370300083703000888
:100070003703000837030008370300083703000878
:100080003703000837030008370300083703000868
:100090003703000837030008370300083703000858
:1000A0003703000837030008370300083703000848
:1000B0003703000837030008370300083703000838
:1000C0003703000837030008370300083703000828
:1000D0003703000837030008370300083703000818
:1000E000370300083703000800000000370300084A
:1000F00037030008370300083703000837030008F8
:1001000037030008370300083703000837030008E7
:1001100037030008370300083703000837030008D7
:1001200037030008370300083703000837030008C7
:1001300037030008370300083703000837030008B7
:1001400000000000000000000000000000000000AF
:100150003703000837030008370300083703000897
:100160003703000837030008370300083703000887
:100170003703000837030008370300083703000877
:100180003703000837030008370300083703000867
:100190003703000837030008370300083703000857
:1001A0003703000837030008370300083703000847
:1001B0003703000837030008370300083703000837
:1001C0003703000837030008370300083703000827
:1001D0003703000837030008370300083703000817
:1001E0003703000837030008370300083703000807
:1001F00037030008370300083703000837030008F7
:1002000037030008370300083703000837030008E6
:1002100037030008370300083703000837030008D6
:100220003703000837030008370300080000000008
:1002300037030008370300080000000037030008F8
:1002400037030008370300083703000837030008A6
:100250003703000837030008370300083703000896
:100260003703000837030008370300083703000886
:1002700037030008370300083703000800000000B8
:1002800037030008370300083703000800000000A8
:10029000000000003703000800F002F800F02EF81C
:1002A0000AA090E8000C82448344AAF10107DA45D1
:1002B00001D100F023F8AFF2090EBAE80F0013F0F5
:1002C000010F18BFFB1A43F0010318471C0300007D
:1002D0002C0300000023002400250026103A28BF2C
:1002E00078C1FBD8520728BF30C148BF0B607047A8
:1002F0001FB500F06BF91FBD10B510BD00F031F84F
:100300001146FFF7F5FF00F03BF900F04FF803B49A
:10031000FFF7F2FF03BC00F057F8000009488047E0
:1003200009480047FEE7FEE7FEE7FEE7FEE7FEE7D7
:10033000FEE7FEE7FEE7FEE704480549054A064BEF
:1003400070470000210400089902000860000020A6
:1003500060060020600200206002002070477047A5
:100360007047754600F02CF8AE46050069465346C6
:1003700020F00700854618B020B5FFF7DDFFBDE887
:1003800020404FF000064FF000074FF000084FF0FC
:10039000000BAC46ACE8C009ACE8C009ACE8C00949
:1003A000ACE8C00921F007018D46704710B504463E
:1003B000AFF300802046BDE81040FFF7A8BF000063
:1003C000004870470000002001491820ABBEFEE73E
:1003D000260002007047000083B002900191009255
:1003E00001984100032000FA01F202990868904345
:1003F000086001984100012000FA01F202990868A2
:100400001043086000980199490000FA01F202992E
:1004100088681043886003B0704700000000000047
:1004200081B04EF68851CEF20001086840F47000A9
:10043000086042F20000C5F20020006800F00F00E2
:1004400006280AD8FFE742F20001C5F20021086839
:10045000072262F303000860FFE744F20041C5F69B
:100460000201086840F00100086044F21042C5F63D
:1004700002020020106008684EF67F52CEF6F62287
:100480001040086042F20000C5F20020006800F051
:100490000F0008280AD3FFE742F20001C5F200214D
:1004A0000868072262F303000860FFE744F218417E
:1004B000C5F6020100200090086044F21C41C5F618
:1004C0000201086044F22041C5F60201086044F2CE
:1004D0002842C5F6020240F20021C0F2022111605A
:1004E00044F22C42C5F602020021C0F2FF11116055
:1004F00044F23042C5F6020240F28021C0F20111FE
:10050000116044F23442C5F60202106044F23842EF
:10051000C5F60202116044F23C42C5F602021060C8
:1005200044F24042C5F60202116044F24441C5F66D
:100530000201086044F20042C5F60202116821F48B
:100540008021116044F26041C5F60201086041F269
:100550000001C5F600410968B0EB517F07D1FFE704
:1005600048F20811C5F2001101200860FFE744F2CB
:100570000001C5F2002143F2D200086001B07047CB
:1005800080B582B00021019144F2E042C5F602023A
:10059000106840F002001060106840F00100106028
:1005A000106840F01000106041F20000C5F6020033
:1005B0000322FFF711FFFFE741F21801C5F6020120
:1005C0004FF48030086001200860F5E7F1EE100A72
:1005D0004FF6FF71C0F2C03120EA010040F04070D8
:1005E000E1EE100A70470000F80500080000002046
:0805F00060060000D4020008BF
:040000050800031DCF
:00000001FF
