:020000040800F2
:100000008806002039030008410300084303000864
:1000100045030008470300084903000800000000EA
:100020000000000000000000000000004B0300087A
:100030004D030008000000004F030008910A00086B
:100040005303000853030008530300085303000838
:100050005303000853030008530300085303000828
:100060005303000853030008530300085303000818
:100070005303000853030008530300085303000808
:1000800053030008530300085303000853030008F8
:1000900053030008530300085303000853030008E8
:1000A00053030008530300085303000853030008D8
:1000B00053030008530300085303000853030008C8
:1000C00053030008530300085303000853030008B8
:1000D00053030008530300085303000853030008A8
:1000E00053030008530300080000000053030008F6
:1000F0005303000853030008530300085303000888
:100100005303000853030008530300085303000877
:100110005303000853030008530300085303000867
:100120005303000853030008530300085303000857
:100130005303000853030008530300085303000847
:1001400000000000000000000000000000000000AF
:100150005303000853030008530300085303000827
:100160005303000853030008530300085303000817
:100170005303000853030008530300085303000807
:1001800053030008530300085303000853030008F7
:1001900053030008530300085303000853030008E7
:1001A00053030008530300085303000853030008D7
:1001B00053030008530300085303000853030008C7
:1001C00053030008530300085303000853030008B7
:1001D00053030008530300085303000853030008A7
:1001E0005303000853030008530300085303000897
:1001F0005303000853030008530300085303000887
:100200005303000853030008530300085303000876
:100210005303000853030008530300085303000866
:1002200053030008530300085303000800000000B4
:1002300053030008530300080000000053030008A4
:100240005303000853030008530300085303000836
:100250005303000853030008530300085303000826
:100260005303000853030008530300085303000816
:100270005303000853030008530300080000000064
:100280005303000853030008530300080000000054
:10029000000000005303000800F002F800F03CF8F2
:1002A0000AA090E8000C82448344AAF10107DA45D1
:1002B00001D100F031F8AFF2090EBAE80F0013F0E7
:1002C000010F18BFFB1A43F001031847600B000031
:1002D000800B0000103A24BF78C878C1FAD85207C2
:1002E00024BF30C830C144BF04680C6070470000B0
:1002F0000023002400250026103A28BF78C1FBD82F
:10030000520728BF30C148BF0B6070471FB500F0CF
:100310007FFD1FBD10B510BD00F031F81146FFF78D
:10032000F5FF00F07DFC00F04FF803B4FFF7F2FF9B
:1003300003BC00F057F8000009488047094800470F
:10034000FEE7FEE7FEE7FEE7FEE7FEE7FEE7FEE785
:10035000FEE7FEE704480549054A064B70470000E2
:10036000C10A0008990200088800002088060020C1
:100370008802002088020020704770477047754649
:1003800000F02CF8AE4605006946534620F0070001
:10039000854618B020B5FFF7DDFFBDE820404FF0DF
:1003A00000064FF000074FF000084FF0000BAC467E
:1003B000ACE8C009ACE8C009ACE8C009ACE8C009C9
:1003C00021F007018D46704710B50446AFF3008059
:1003D0002046BDE81040FFF7A8BF00000048704766
:1003E0000800002001491820ABBEFEE726000200ED
:1003F000704700000000000080B582B08446049879
:100400008DF807C08DF806108DF805208DF80430A2
:100410008DF8030042F20001C5F20021086820F0C7
:100420003F0008602420086044F20041C5F6020144
:10043000086840F480300860FFE744F20040C5F6E9
:10044000020000688003002802D4FFE700BFF4E741
:1004500044F21841C5F60201086840F048000860FF
:1004600044F21C41C5F60201086840F48860086047
:1004700044F22041C5F60201086840F040000860DF
:1004800044F22841C5F60201086840F2F332904375
:1004900008609DF80720086840EA021040F002005A
:1004A000086044F22C41C5F6020108680C22C0F233
:1004B00007021043086044F23041C5F602010868A3
:1004C0006FF3160008609DF8060001389DF80530AE
:1004D0004FF60062CFF6FF7202EB432210439DF805
:1004E00004300022CFF6FF7202EB034210439DF866
:1004F0000320013A40EA026208681043086044F2AF
:100500000041C5F60201086840F080700860FFE70E
:1005100044F20040C5F6020000688001002802D4C1
:10052000FFE700BFF4E744F21041C5F60201086896
:1005300020F007000860086840F003000860FFE74B
:1005400044F21040C5F602000068800710B9FFE7CA
:1005500000BFF5E702B080BD44F2D841C5F6020104
:10056000086840F0010008601020C4F20200006832
:10057000C00790B1FFE71021C4F20201086820F023
:1005800001000860FFE71020C4F202000068C00705
:1005900010B1FFE700BFF6E7FFE71821C4F2020140
:1005A00043F22000C4F20100086040F20000C2F2F1
:1005B000000000681C21C4F2020108601421C4F28A
:1005C00002010020086040F60001C4F20201086840
:1005D00020F0FF000860086840F026000860102145
:1005E000C4F20201086820F020000860086840F0AA
:1005F00020000860086820F440300860086808603F
:10060000086820F4C0400860086840F48040086032
:10061000086820F4C0500860086840F48050086002
:10062000086820F48060086008680860086820F4A2
:100630000070086008680860086820F4807008602E
:1006400008680860086820F0C0000860086840F08A
:10065000400008607047000084B0DDF814C0DDF889
:1006600010C0039002910192009302984100032070
:1006700000FA01F20399086890430860029841006B
:10068000022000FA01F203990868104308600198FB
:10069000029900FA01F203994868104348600098F3
:1006A0000299490000FA01F20399886810438860B2
:1006B00004980299490000FA01F20399C8681043AE
:1006C000C860029807280AD8FFE7059802998900B0
:1006D00000FA01F20399086A104308620CE00598D9
:1006E000029A6FF01F0101EB820100FA01F20399F7
:1006F000486A10434862FFE704B0704700000000FA
:1007000083B002900191009201984100032000FA09
:1007100001F20299086890430860019841000120A5
:1007200000FA01F2029908681043086000980199E4
:10073000490000FA01F2029988681043886003B00A
:10074000704700000000000044F25041C5F602016D
:10075000086820F4E04008600868086040F268001B
:10076000C2F20000006843F20001C4F201018842B5
:1007700009D1FFE744F2F041C5F60201086840F4F0
:1007800080500860FFE740F26800C2F20000006895
:1007900043F60001C4F20001884209D1FFE744F2A8
:1007A000E841C5F60201086840F480400860FFE7B0
:1007B00040F26800C2F200000268116841F4805102
:1007C00011600079C00750B1FFE740F26800C2F243
:1007D00000000168C86840F08060C860FFE740F230
:1007E0006800C2F200004079072807DBFFE740F20B
:1007F0006801C2F2000107204871FFE740F268007B
:10080000C2F2000043790268916841EA0371916085
:100810008079032807DCFFE740F26801C2F200019B
:1008200003208871FFE740F26800C2F2000080797F
:100830001F2807DBFFE740F26801C2F200011F201A
:100840008871FFE740F26800C2F200000268916818
:1008500021F01F01916083790268916819439160CA
:10086000C0790F2807DBFFE740F26801C2F2000100
:100870000F20C871FFE740F26800C2F20000C379A0
:100880000268916841EA431191600268D16821F4DD
:100890008001D160007AC00750B1FFE740F26800E4
:1008A000C2F200000168C86840F48000C860FFE739
:1008B00040F26800C2F200000268D16821F00071C5
:1008C000D160407AC00750B1FFE740F26800C2F241
:1008D00000000168C86840F00070C860FFE740F29F
:1008E0006800C2F200000268D16821F08071D16016
:1008F000807AC00750B1FFE740F26800C2F2000002
:100900000168C86840F08070C860FFE740F2680086
:10091000C2F200000268D16821F00051D160C07AB3
:10092000C00750B1FFE740F26800C2F20000016862
:10093000C86840F00050C860FFE740F26800C2F2AB
:1009400000000268D16821F08051D160007BC007AF
:1009500050B1FFE740F26800C2F200000168C868C9
:1009600040F08050C860FFE740F26800C2F200002B
:100970000268D16821F08041D160407BC00750B14E
:10098000FFE740F26800C2F200000168C86840F06A
:100990008040C860FFE740F26800C2F20000807B40
:1009A0000F2807DBFFE740F26801C2F200010F20C9
:1009B0008873FFE740F26800C2F200000268D16865
:1009C00021F00F01D160837B0268D1681943D160A7
:1009D000C07B032807DBFFE740F26801C2F2000199
:1009E0000320C873FFE740F26800C2F2000002680B
:1009F000D16821F4C021D160C37B0268D16841EA8B
:100A00004341D160008A42F21071884208DBFFE75F
:100A100040F26801C2F2000142F210700882FFE762
:100A200040F26800C2F20000026851684FF6FF739E
:100A300099435160038A0268516819435160016803
:100A4000086840F0010008607047000000000000E6
:100A500081B0ADF8020044F2E041C5F60201086839
:100A600040F002000860BDF8020001384EF21401A7
:100A7000CEF2000108604EF21001CEF200010868CB
:100A800040F00600086001B0704700000000000060
:100A900040F27C00C2F20000006840B1FFE740F283
:100AA0007C01C2F2000108680138086006E040F2EB
:100AB0007C01C2F2000100200860FFE770470000DF
:100AC00081B04EF68851CEF20001086840F4700003
:100AD000086042F20000C5F20020006800F00F003C
:100AE00006280AD8FFE742F20001C5F20021086893
:100AF000072262F303000860FFE744F20041C5F6F5
:100B00000201086840F00100086044F21042C5F696
:100B100002020020106008684EF67F52CEF6F622E0
:100B20001040086042F20000C5F20020006800F0AA
:100B30000F0008280AD3FFE742F20001C5F20021A6
:100B40000868072262F303000860FFE744F21841D7
:100B5000C5F6020100200090086044F21C41C5F671
:100B60000201086044F22041C5F60201086044F227
:100B70002842C5F6020240F20021C0F202211160B3
:100B800044F22C42C5F602020021C0F2FF111160AE
:100B900044F23042C5F6020240F28021C0F2011157
:100BA000116044F23442C5F60202106044F2384249
:100BB000C5F60202116044F23C42C5F60202106022
:100BC00044F24042C5F60202116044F24441C5F6C7
:100BD0000201086044F20042C5F60202116821F4E5
:100BE0008021116044F26041C5F60201086041F2C3
:100BF0000001C5F600410968B0EB517F07D1FFE75E
:100C000048F20811C5F2001101200860FFE744F224
:100C10000001C5F2002143F2D200086001B0704724
:100C200070B58EB000210B910D9144F2E042C5F6F3
:100C300002020292106840F001001060106840F05B
:100C400002001060106840F004001060106840F06E
:100C50001000106044F2DC42C5F60202106840F059
:100C60006040106041F20000C5F6020003220592C8
:100C7000FFF746FD059B0B9A6946052004904860E6
:100C80000220069008600020C5F6020003900721AC
:100C90000791FFF7E1FC03980499059BDDF818C064
:100CA0000B9AEE46CEF80410CEF800C0FFF7D4FC45
:100CB000DDF810C0059B06990B9A6846C0F804C081
:100CC000016040F60000C5F60200FFF7C5FCDDF844
:100CD00010C0059B06980B9A6946C1F804C00860CD
:100CE00040F20040C5F602000A21FFF7B5FC4FF4C0
:100CF000E470FFF7ADFE069A684602600120099095
:100D000072211323FFF778FB079B099A0B9840F297
:100D10006801C2F200010A9143F20005C4F2010524
:100D20000D604FF0040CCDF820C081F805C04FF0E5
:100D30001F0CCDF830C081F806C00A72CA73CB719F
:100D40000A82487288720A71C8720873487388737D
:100D500043F20801C4F20101086840F40040086051
:100D6000FFF7FAFBFFF7F0FCDDF81CC0089B099ABF
:100D70000A990B98DDF830E01026C4F202063468B8
:100D800044F0010434602C6844F400742C6043F691
:100D90000004C4F200040C604B7181F806E0087294
:100DA000CA7381F807C00B82487288720A710A738D
:100DB0008873FFE740F28000C2F200000168013151
:100DC000016000684FF6FF71C0F20F0188421ED12A
:100DD000FFE740F28001C2F200010020086041F20A
:100DE0001000C5F602000068C00740B1FFE741F2FD
:100DF0001801C5F602014FF48030086006E041F2A8
:100E00001801C5F6020101200860FFE7FFE7D1E7FE
:100E1000F1EE100A4FF6FF71C0F2C03120EA010076
:100E200040F04070E1EE100A704700004C0E0008E0
:100E30000000002008000000D4020008540E000842
:100E40000800002080060000F002000804000020D6
:040E5000A100FFFFFF
:0400000508000339B3
:00000001FF
