:020000040800F2
:10000000680600201D0300082503000827030008D8
:10001000290300082B0300082D030008000000003E
:100020000000000000000000000000002F03000896
:10003000310300080000000033030008D90600085F
:1000400037030008370300083703000837030008A8
:100050003703000837030008370300083703000898
:100060003703000837030008370300083703000888
:100070003703000837030008370300083703000878
:100080003703000837030008370300083703000868
:100090003703000837030008370300083703000858
:1000A0003703000837030008370300083703000848
:1000B0003703000837030008370300083703000838
:1000C0003703000837030008370300083703000828
:1000D0003703000837030008370300083703000818
:1000E000370300083703000800000000370300084A
:1000F00037030008370300083703000837030008F8
:1001000037030008370300083703000837030008E7
:1001100037030008370300083703000837030008D7
:1001200037030008370300083703000837030008C7
:1001300037030008370300083703000837030008B7
:1001400000000000000000000000000000000000AF
:100150003703000837030008370300083703000897
:100160003703000837030008370300083703000887
:100170003703000837030008370300083703000877
:100180003703000837030008370300083703000867
:100190003703000837030008370300083703000857
:1001A0003703000837030008370300083703000847
:1001B0003703000837030008370300083703000837
:1001C0003703000837030008370300083703000827
:1001D0003703000837030008370300083703000817
:1001E0003703000837030008370300083703000807
:1001F00037030008370300083703000837030008F7
:1002000037030008370300083703000837030008E6
:1002100037030008370300083703000837030008D6
:100220003703000837030008370300080000000008
:1002300037030008370300080000000037030008F8
:1002400037030008370300083703000837030008A6
:100250003703000837030008370300083703000896
:100260003703000837030008370300083703000886
:1002700037030008370300083703000800000000B8
:1002800037030008370300083703000800000000A8
:10029000000000003703000800F002F800F02EF81C
:1002A0000AA090E8000C82448344AAF10107DA45D1
:1002B00001D100F023F8AFF2090EBAE80F0013F0F5
:1002C000010F18BFFB1A43F001031847D8060000BE
:1002D000E80600000023002400250026103A28BF6D
:1002E00078C1FBD8520728BF30C148BF0B607047A8
:1002F0001FB500F04AFB1FBD10B510BD00F031F86E
:100300001146FFF7F5FF00F0D3FA00F04FF803B401
:10031000FFF7F2FF03BC00F057F8000009488047E0
:1003200009480047FEE7FEE7FEE7FEE7FEE7FEE7D7
:10033000FEE7FEE7FEE7FEE704480549054A064BEF
:1003400070470000090700089902000868000020B3
:10035000680600206802002068020020704770478D
:100360007047754600F02CF8AE46050069465346C6
:1003700020F00700854618B020B5FFF7DDFFBDE887
:1003800020404FF000064FF000074FF000084FF0FC
:10039000000BAC46ACE8C009ACE8C009ACE8C00949
:1003A000ACE8C00921F007018D46704710B504463E
:1003B000AFF300802046BDE81040FFF7A8BF000063
:1003C000004870470000002001491820ABBEFEE73E
:1003D000260002007047000080B582B08446049871
:1003E0008DF807C08DF806108DF805208DF80430C3
:1003F0008DF8030042F20001C5F20021086820F0E8
:100400003F0008602420086044F20041C5F6020164
:10041000086840F480300860FFE744F20040C5F609
:10042000020000688003002802D4FFE700BFF4E761
:1004300044F21841C5F60201086840F0480008601F
:1004400044F21C41C5F60201086840F48860086067
:1004500044F22041C5F60201086840F040000860FF
:1004600044F22841C5F60201086840F2F332904395
:1004700008609DF80720086840EA021040F002007A
:10048000086044F22C41C5F6020108680C22C0F253
:1004900007021043086044F23041C5F602010868C3
:1004A0006FF3160008609DF8060001389DF80530CE
:1004B0004FF60062CFF6FF7202EB432210439DF825
:1004C00004300022CFF6FF7202EB034210439DF886
:1004D0000320013A40EA026208681043086044F2CF
:1004E0000041C5F60201086840F080700860FFE72F
:1004F00044F20040C5F6020000688001002802D4E2
:10050000FFE700BFF4E744F21041C5F602010868B6
:1005100020F007000860086840F003000860FFE76B
:1005200044F21040C5F602000068800710B9FFE7EA
:1005300000BFF5E702B080BD84B0DDF814C0DDF87F
:1005400010C0039002910192009302984100032091
:1005500000FA01F20399086890430860029841008C
:10056000022000FA01F2039908681043086001981C
:10057000029900FA01F20399486810434860009814
:100580000299490000FA01F20399886810438860D3
:1005900004980299490000FA01F20399C8681043CF
:1005A000C860029807280AD8FFE7059802998900D1
:1005B00000FA01F20399086A104308620CE00598FA
:1005C000029A6FF01F0101EB820100FA01F2039918
:1005D000486A10434862FFE704B07047000000001B
:1005E00083B002900191009201984100032000FA2B
:1005F00001F20299086890430860019841000120C7
:1006000000FA01F202990868104308600098019905
:10061000490000FA01F2029988681043886003B02B
:10062000704700000000000044F25041C5F602018E
:10063000086820F4E04008600868086044F2F0416F
:10064000C5F60201086840F48050086043F20001DA
:10065000C4F20101086840F48050086043F20802C7
:10066000C4F20102106820F01F00106010681F2300
:10067000C4F200031843106043F20C02C4F20102FA
:1006800010680023C0F2427318431060086840F0FD
:10069000010008607047000081B0ADF8020044F22C
:1006A000E041C5F60201086840F002000860BDF8AC
:1006B000020001384EF21401CEF2000108604EF241
:1006C0001001CEF20001086840F00600086001B099
:1006D000704700000000000040F26000C2F200001D
:1006E000006840B1FFE740F26001C2F20001086813
:1006F0000138086006E040F26001C2F2000100200B
:100700000860FFE77047000081B04EF68851CEF2D6
:100710000001086840F47000086042F20000C5F271
:100720000020006800F00F0006280AD8FFE742F218
:100730000001C5F200210868072262F30300086087
:10074000FFE744F20041C5F60201086840F00100ED
:10075000086044F21042C5F60202002010600868EA
:100760004EF67F52CEF6F6221040086042F20000AC
:10077000C5F20020006800F00F0008280AD3FFE748
:1007800042F20001C5F200210868072262F303006B
:100790000860FFE744F21841C5F60201002000900E
:1007A000086044F21C41C5F60201086044F2204191
:1007B000C5F60201086044F22842C5F6020240F282
:1007C0000021C0F20221116044F22C42C5F602025F
:1007D0000021C0F2FF11116044F23042C5F602025E
:1007E00040F28021C0F20111116044F23442C5F69A
:1007F0000202106044F23842C5F60202116044F26F
:100800003C42C5F60202106044F24042C5F60202C4
:10081000116044F24441C5F60201086044F200420E
:10082000C5F60202116821F48021116044F2604192
:10083000C5F60201086041F20001C5F600410968F1
:10084000B0EB517F07D1FFE748F20811C5F2001164
:1008500001200860FFE744F20001C5F2002143F2E5
:10086000D200086001B0704781B000904EF21001D4
:10087000CEF20001086840F001000860009840F2E4
:100880006001C2F200010860FFE740F26000C2F2BE
:100890000000006810B1FFE700BFF6E74EF210015C
:1008A000CEF20001086820F00100086001B0704736
:1008B00080B588B000210591079144F2E042C5F669
:1008C0000202106840F002001060106840F0010061
:1008D0001060106840F01000106041F20000C5F692
:1008E000020003220692FFF77BFE059A069B6846EC
:1008F00005210491416002600020C5F602000390CA
:100900000721FFF719FE03980499059A069BEC4608
:10091000CCF80410CCF80020FFF70EFE4FF4E47082
:10092000FFF7BAFE684602220260012072211323FB
:10093000FFF752FDFFF778FEFFE741F21801C5F619
:1009400002014FF4803008600120086043F220016A
:10095000C4F201014FF0F030086043F20001C4F22C
:100960000101086840F400700860FFE743F21400DA
:10097000C4F201000068C004002802D4FFE700BFF1
:10098000F4E70A20FFF770FFD7E7F1EE100A4FF601
:10099000FF71C0F2C03120EA010040F04070E1EE8A
:1009A000100A7047B4090008000000206806000023
:0409B000D402000865
:040000050800031DCF
:00000001FF
