:020000040800F2
:10000000D8070020590200086102000863020008B6
:10001000650200086702000869020008000000008D
:100020000000000000000000000000006B0200085B
:100030006D020008000000006F020008C5160008ED
:1000400073020008730200087302000873020008BC
:1000500073020008730200087302000873020008AC
:10006000730200087302000873020008730200089C
:10007000730200087302000873020008730200088C
:10008000190D0008410D0008BB0C0008000000001D
:1000900000000000000000000000000073020008E3
:1000A00073020008011700087302000873020008B9
:1000B000730200087302000873020008730200084C
:1000C000730200087302000873020008730200083C
:1000D00073020008730200087302000800000000A9
:1000E0007302000873020008730200080000000099
:1000F0000000000000000000000000007302000883
:100100000000000073020008730200087302000878
:1001100000000000000000000000000000000000DF
:10012000850D0008730200087302000873020008BE
:100130007302000800000000000000000000000042
:100140000000000000000000000000007302000832
:1001500073020008730200087302000873020008AB
:100160007302000873020008000000000000000095
:10017000000000000000000000000000000000007F
:1001800000000000730200080000000000000000F2
:10019000730200087302000800F002F800F04CF847
:1001A0000AA090E8000C82448344AAF10107DA45D2
:1001B00001D100F041F8AFF2090EBAE80F0013F0D8
:1001C000010F18BFFB1A43F001031847EC2300008E
:1001D0000C240000103A24BF78C878C1FAD852071E
:1001E00024BF30C830C144BF04680C6070470000B1
:1001F0000023002400250026103A28BF78C1FBD830
:10020000520728BF30C148BF0B607047662902F013
:100210007E81642900F07C80002070471FB502F0C9
:1002200069F900F0D5FB04000020002102F00CF871
:10023000E0601FBD10B510BD00F0CAFC1146FFF70D
:10024000EDFF01F031FB00F0E8FC03B4FFF7F2FF33
:1002500003BC00F02BFD0000094880470948004717
:10026000FEE7FEE7FEE7FEE7FEE7FEE7FEE7FEE766
:10027000FEE7FEE704480549054A064B70470000C3
:10028000F116000899010008D8010020D8070020C5
:10029000D8030020D80300200FB41CB5074B06AAD2
:1002A0007B4469460090059800F079FB0020694680
:1002B00000F088FB1CBC5DF814FB00002107000067
:1002C00070B5044685690068C10601D5302600E096
:1002D0002026C00707D070BDD4E9012130469047E1
:1002E000206A401C20626D1EF6D570BD70B50446B4
:1002F00085690078C00707D170BDD4E901212020AD
:100300009047206A401C20626D1EF6D570BD00002B
:100310002DE9F0410646002410687529314616A5DE
:1003200010D0AFF30080002802DA404213A507E0A6
:1003300031688A0701D512A502E0490704D511A545
:10034000012401E0AFF3008000210A2206F1240716
:1003500009E0B0FBF2FCB0FBF2F302FB1C00303012
:1003600078541846491C0028F3D123462A463046C3
:10037000BDE8F04100F0A7B8000000002D0000002B
:100380002B000000200000002DE9F05F89460446A4
:100390004FF0000ADFF824B1FB44C0F820A020464B
:1003A000E168884700287DD0252806D0D4E90121BE
:1003B0009047206A401C2062F1E700255F462046F6
:1003C000E16888472028064607DB312E05D2B81998
:1003D00010F8200C08B10543F1E7A80701D525F076
:1003E0000405C4F81CA00027C4F818A02A2E09D0C0
:1003F000304601F021FF38B304EB8708303EC8F8DF
:10040000186019E059F8041B204604EB870291613B
:10041000E1688847012F064618D1E069002820DAF4
:1004200025F020051DE0D8F8180000EB800006EB51
:1004300040003038C8F818002046E1688847064672
:1004400001F0FAFE0028EED1012F0AD02E2E08D19D
:100450002046E16888477F1C0646022F45F02005AC
:10046000C4DBA069002803DA404245F00105A06121
:10047000E80701D025F01005A6B1A6F14100192822
:1004800002D8203645F400654A46314620462560AC
:100490004D46FFF7BBFE60B1012807D0ED1D25F0EA
:1004A000070000E007E000F1080978E705F104091A
:1004B00075E730467AE7206ABDE8F09F76210000B4
:1004C0007047704770472DE9F0470D4699469246B0
:1004D000044600F124080168880604D5E06921F08B
:1004E0001001216000E00120A84201DD471B00E06F
:1004F0000027A1697A1902EB0900081AA061207887
:10050000C00602D42046FFF7DBFE002608E0D4E94F
:1005100001211AF806009047206A401C761C2062D0
:100520004E45F4DB2078C0060AD52046FFF7C8FE0A
:1005300006E0D4E9012130209047206A401C206267
:10054000381EA7F10107F4DC07E0D4E9012118F80F
:1005500005009047206A401C2062281EA5F1010575
:10056000F3DC2046FFF7C2FE2078000602D5022009
:10057000BDE8F0870120FBE72DE9FF4F0C461E4642
:100580004FF0FF378BB0D2E90001DDF860800A90B0
:100590008A46C1F30A5505B93D46002108464FF089
:1005A0000000BAF1000F00F4400005DA00EB800013
:1005B0004FF4400101EA50004FEA9059B9F1010FA0
:1005C00000DDB9460A9850EA4A000ED044F61050B1
:1005D000A5F2FF3545432F14B8F1000F1ED0754228
:1005E000291E1EDDC9F100021CE0B8F1010F4FF019
:1005F000000001D0302103E0F24305E02154401C0B
:10060000B042FBDB30460022002121540B99C1F897
:100610000880C1E900200FB0BDE8F08FBD1B6D1C44
:10062000DEE74A4600DA694206A800F05BFA06AB4C
:1006300093E8070003AB83E8070050460A9901F0EE
:100640001BFA8DE80700A0F500501F3800900398B2
:10065000002D0ADD42F21F014A460844002303A987
:100660000390684601F084FC09E0A0F500504A467A
:100670001F38002303A90390684601F08EFC8DE823
:1006800007000004000C03D04FF0FF30410800E0E9
:100690001046B8F1000F03D00022009215461EE06C
:1006A000751E05D400F098F9303262556D1EF9D5EB
:1006B000B3460122084302D000227F1C04E02078C8
:1006C000302801D100227F1E002A099784D01DE026
:1006D000112D07DA00F080F9303262556D1C50EAB6
:1006E0000102F5D1084302D00098C8B10EE0002104
:1006F000681E05E0235C625C63542254401E491C62
:100700008142F7DBAB46A81B401E0990002004F88D
:100710000B000B98099AC0F80880C0E9002B7AE713
:1007200011264FF0000857E72DE9F04F88460446A0
:10073000D21D22F0070191B0D1E90001CDE90A01F3
:1007400001F062FD02460B98C00F01D02D2007E09A
:100750002068810701D52B2002E0202101EAC0009A
:10076000032A099001D0072A05DB034641462046AB
:1007700000F078F90BE12078800601D5E06900E00F
:100780000620B8F1650F814606D0B8F1660F18D083
:10079000B8F1670F70D131E00020B9F1110F00906E
:1007A00001DB112301E009F101030AAA01A90CA848
:1007B000FFF7E2FEDDE90C70002609F10105834632
:1007C00047E001204B4600904FF000470AAA01A9DC
:1007D0000CA8FFF7D1FEDDE90DB00C995D460026AF
:1007E00010B909F101000D18B9EB050003D4C0F1EF
:1007F000FF3609F10105A5EB09002BE0B9F1010F66
:1008000001DA4FF001090020B9F1110F00904846BC
:1008100001DD112300E003460AAA01A90CA8FFF795
:10082000ABFEDDE90C704D460026834620780007BC
:100830000AD4AB4500DA5D4601A8012D04DD41195B
:1008400011F8011C302907D04F4502DA17F1040FC7
:1008500004DA012082460FE06D1EEEE7002F02DC75
:10086000ED1B3E4403E0781CA84200DD7D1CB81B54
:1008700000F1010A4FF000472078000703D4AA4591
:1008800001DB4FF0FF3A0021B7F1004F0DF14308B3
:100890008DF8431024D002202B23002F01DA7F4251
:1008A0002D230A21021EA0F1010000DC5FB197FB9D
:1008B000F1FC97FBF1F201FB1C7C17460CF1300CAC
:1008C00008F801CDEEE7A8F10100037021880905C1
:1008D00001D5452100E06521A0F1010800F8011CC7
:1008E00009980FA9A1EB0807FF1D00B101204119CC
:1008F00001EBEA70A1693844081A401EA061207813
:10090000C00602D42046FFF7DBFC099828B1D4E9E1
:1009100001219047206A401C20622078C00622D521
:100920002046FFF7CDFC1EE0002E04DBB34502DDC0
:1009300001A8805D00E03020D4E901219047206AC1
:10094000401C2062761CAAF101005FEA000A0AD16D
:1009500000F03EF8C0680168405CD4E9012190478E
:10096000206A401C2062281EA5F10105DCDC07E09E
:10097000D4E9012118F8010B9047206A401C20623D
:10098000381EA7F10107F3DC2046FFF7AFFC032078
:1009900011B041E601694A1C02610878704700B550
:1009A0008FB0CDE901310021059105497944CDE9A8
:1009B000031011466846FFF7E7FC0FB000BD0000CA
:1009C000E5FFFFFF0A6802F8010B0A6070470000AC
:1009D000004870473800002030B5B0F10A0271F1CC
:1009E00000034FEA900E4EEA817EB0EB0E0061EB01
:1009F00091014FEA101E4EEA017E10EB0E0041EB12
:100A000011114FEA102E4EEA016E10EB0E0041EB71
:100A100011214FEA104E4EEA014E10EB0E0041EB51
:100A20001141401841F100014FEAD00040EA417005
:100A30004FEAD1014FEA810444EA907410EB80053B
:100A400044EB01046D1944EB0404521BA3414FF025
:100A5000000348BF0A3200D530BD401C41F10001FF
:100A600030BD00002DE9F0411F4604460326016811
:100A7000072A01F4006004DB08B116A505E016A5FD
:100A800003E008B115A500E015A521F010002060D5
:100A9000A069C01EA0610FB1401EA0612046FFF7F3
:100AA0000FFC4FB1D4E9012138469047206A401C21
:100AB0002062C01C206206E0206AFAE7D4E9012126
:100AC00015F8010B9047761EF8D22046FFF70EFC72
:100AD000BDE8F0814E414E006E616E00494E460009
:100AE000696E66002DE9F047814616468AB03548A2
:100AF00078440DC88DE80D0032487844801C03AC62
:100B00000DC884E80D0041F69B300844372190FB66
:100B1000F1F290FBF1F5A5F1800501FB12041B3CFD
:100B200002D56442012000E00020DFF898A0804652
:100B30000027FA44AAF1BE0A0EE0E0070AD03246C6
:100B4000684607EB470101230AEB810101F025FA12
:100B50008DE8070064107F1C002CEED1194F7F44F4
:100B6000AE3F19E0E80715D007EB04100DF1180AA5
:100B700090E80E008AE80E00C068F04201D1981992
:100B800008903246012306A903A801F006FA03AB38
:100B900083E807006D10641C002DE3D14FF00103C2
:100BA00032466946B8F1000F03A802D001F0E0F91F
:100BB00001E001F0F2F9C9E90001C9F808200AB022
:100BC000BDE8F087AC1A000000487047180000200C
:100BD0007546FFF7F9FFAE4605006946534620F01B
:100BE0000700854618B020B5FFF744FBBDE820405C
:100BF0004FF000064FF000074FF000084FF0000BD9
:100C0000AC46ACE8C009ACE8C009ACE8C009ACE847
:100C1000C00921F007018D46704710B50446AFF3B7
:100C200000802046BDE81040FFF70FBB0000000029
:100C300030B44FF0013C50F8042B51F8043BCCFA8F
:100C400052F4D51A20D1FCB950F8042B51F8043BCA
:100C5000CCFA52F4D51A17D1B4B950F8042B51F884
:100C6000043BCCFA52F4D51A0ED16CB950F8042BCF
:100C700051F8043BCCFA52F4D51A05D1002CDAD045
:100C800030BC4FF00000704729BAB1FA81F111F081
:100C90001801D1F120008440F2D1CA40CB4012F0BB
:100CA000FF0213F0FF0330BCD01A7047014918202F
:100CB000ABBEFEE7260002007047704714484FF4B1
:100CC0008031016001688903FCD5D0F8001440F23E
:100CD00003721143C0F800140E494160016841F0ED
:100CE000807101600168890101D400BFFAE7816861
:100CF00041F480518160816821F003018160816845
:100D000041F00201816081680907FCD5704700BF8E
:100D1000003802401930400418480168090558BFDE
:100D200070478168002241F40061816014490A70B3
:100D3000D0F8841021F00101C0F8841000F028BD23
:100D40000E480168890258BF7047816841F400115C
:100D50008160B2490A68520601D400BFFAE7D0F8B0
:100D60009C1021F00101C0F89C10D0F88400C0074D
:100D700002D103480021017000F00EBD0460024062
:100D80007800002070B516480168890627D581686B
:100D9000154B41F02001816012481A885B88016878
:100DA0004E1C124906600C682244114C0A602568EA
:100DB0002B4444F62065AE4223600BD30026066028
:100DC0000E60B2FBF5F00B4926600860B3FBF5F04E
:100DD000094908600948016841F08041016070BD1F
:100DE00000640240C4000020B0000020B8000020D1
:100DF000C0000020B4000020BC00002008200140FA
:100E0000F8B50C46054600F0FDFC234AE800002139
:100E1000FF23CDB2A84202D953550131F9E7474D1E
:100E20002968C90725D17D494FF480374B684B6845
:100E300000232B6055F87C6C46F4006645F87C6C0A
:100E40000E1DAE60EC60686000F0DCFB744C276047
:100E5000AF69FF0716D1AB6155F87C3C43F4001332
:100E600045F87C3C2E626A62E86100F087FB00F086
:100E7000F6BB296821F0010129602968C907D2D091
:100E800000BFFAE7AF6927F00107AF61AF69FF075D
:100E9000E1D000BFFAE700BFC8000020F8B5044663
:100EA00000F0BCFC2448F0210022082A07D001F001
:100EB000010349085B4200F832300132F5E71F4D6B
:100EC0002968C90726D1554908264FF480374A6852
:100ED0004A6800222A6055F87C3C43F4006345F8D8
:100EE0007C3C0B1DAB60EC606E6000F08BFB4C4CEF
:100EF0002760AF69FF0716D1AA6155F87C2C42F430
:100F0000001245F87C2C2B626862EE6100F036FB23
:100F100000F0A5BB296821F0010129602968C907F3
:100F2000D1D000BFFAE7AF6927F00107AF61AF6921
:100F3000FF07E1D000BFFAE7080100208860024007
:100F400070B50D46044600F05DFC32490020A04219
:100F50000ED02B5C0022082A07D003F00106DBB27A
:100F600076425B088E540132F5E708310130EEE736
:100F7000294D2868C00743D155F8940C4FF400322E
:100F800040F4001045F8940C2448011DA960214943
:100F9000E960E1006960296841F000612960296821
:100FA00041F480312960696921F00401696129688F
:100FB00041F040012960296841F480612960296875
:100FC00021F400712960296821F4C0512960296841
:100FD00021F4C0412960296821F4807129602968C1
:100FE00041F0100129600E490A60016821F04001BA
:100FF000016000F0D7FB286840F00100286070BD58
:10100000286820F0010028602868C007B4D000BF1D
:10101000FAE700BF48010020A06002400044004001
:1010200000E100E00248016841F4C001016070473E
:1010300030380240000000002DE9F8430646002049
:10104000854F904689468DF80300787828B9834803
:1010500001243C70FFF722FF7C703C7878780128EF
:1010600008BF002C07D1CC200DF1030100F07BFA62
:1010700002203C7078707878022808BF002C07D1D5
:1010800044200DF1030100F06EFA03203C707870EB
:101090007878032808BF002C05D071480068B0FAA2
:1010A00080F0400906E004204FF47A7178706C48B3
:1010B000016000207978042902D108B105207870F8
:1010C0007878052807D1012038706448FFF7E6FEDC
:1010D000062078703C787878062808BF002C07D165
:1010E00055200DF1030100F03EFA07203C707870A6
:1010F0007878072808BF002C07D10820314608253A
:10110000FFF71EFF01243C707D707878082808BF27
:10111000002C07D1BE200DF1030100F024FA0920B4
:101120003C7078707878092808BF002C08D101201D
:101130004A4938700220FFF763FE0A2078703C7835
:10114000787800260A2808BF002C19D143490020CE
:101150000026102802D000F095FAFAE706F00F00FA
:1011600001F0B7F89FED3A0B00F075FA01F082F844
:1011700000F07EFA88BF0020A8F800000B207870ED
:1011800078780B2807D1012038703448FFF786FEA5
:101190000C2078703C7878780C2808BF002C07D198
:1011A00055200DF1030100F0DEF90D203C70787040
:1011B00078780D2808BF002C07D108204946FFF792
:1011C000BFFE01240E203C70787078780E2808BF8E
:1011D000002C07D1BE200DF1030100F0C4F90F204F
:1011E0003C70787078780F2808BF002C08D1012057
:1011F0001A4938700220FFF703FE102078703C78FF
:101200007878102808BF002C18D114490020102825
:1012100002D000F037FAFAE71120787006F00F00DC
:1012200001F057F89FED0A0B00F015FA01F022F8D3
:1012300000F01EFA88BF0020A8F802007878112874
:1012400004BF002078700120BDE8F88300BF00BF14
:10125000000000000000E43F780000208C01002026
:10126000A4000020B0B50C46054600F053F84E200F
:1012700000F062F845F0800000F0C4F8207818B162
:1012800000F0D8F80134F9E7BDE8B04000F04EB8FE
:1012900070B54C00022506688A40A54035430560BC
:1012A00045682A43426003FA04F283681A43826065
:1012B000049AC368A2401A43C2606FF01F02082953
:1012C00002EB810238BF8A00059901FA02F14FF062
:1012D000240238BF202283581943815070BD10B5B5
:1012E0004900032304688B4002FA01F124EA030356
:1012F0000360C2681143C16010BD10B549000123ED
:1013000004688B4002FA01F12343036082681143B1
:10131000816010BD2948016841F480710160416914
:10132000C90718BF704700BFF9E700BF234801682D
:1013300041F400710160704706490A6841F8040CE5
:1013400040F671000A6812F0020201D10138F9D1A9
:1013500000F003B91454004005490860486840078C
:1013600001D400BFFAE74868C0F38020704700BF8F
:1013700010540040104840F6FF72016841F400111B
:1013800001600E48416821F03F014160416841F031
:1013900030014160C16941F40041C161C1699143BB
:1013A000C161C16941F02801C1610F210162016879
:1013B00041F0010101607047403802400054004094
:1013C000B0B5FFF7A7FF4E20FFF7B6FF0B4C20206C
:1013D000A0472C20A0470A4D0120A8470C20A04779
:1013E0000120A8470120A0473220A8470620A04797
:1013F0003220A847BDE8B040FFF798BF05140008A9
:101400003918000870B500F0F005164E044605F1D5
:101410000C00B04705F10800B047240104F10C00AE
:10142000C0B2B04704F108003146C0B2BDE8704018
:10143000084700BF70B500F0F0050A4E044605F1FC
:101440000D00B04705F10900B047240104F10D007B
:10145000C0B2B04704F109003146C0B2BDE87040E7
:10146000084700BF5913000810B5802000F036F877
:10147000402000F033F80024B4F5FC7F28BF10BDF5
:10148000002000F043F80134F6E7000010B52B4CC3
:10149000206840F400702060322000F0CDF9206810
:1014A00040F080702060962000F0C6F9206840F47B
:1014B00080702060084C2120A047C820A04704204D
:1014C000A0471320A0472020A0470C20A047BDE83C
:1014D0001040FFF7C9BF00BFDD14000817490A68B4
:1014E00042F000720A60164A8B5843F480038B5016
:1014F000144A50601068800702D400BFFAE700BFAA
:1015000010680006FBD400F06EB800BF0B490A68F3
:1015100042F000720A600A4A8B5843F040038B5035
:10152000084A50601068800702D400BFFAE700BF85
:1015300010680006FBD400F056B800BF1804024043
:1015400000FCFFFF083001400323CDE90046484777
:10155000086820F001000860704708684868B2FA1F
:1015600082F04009704701248DF803000120FFF745
:10157000E7BC016821F0400101607047A86940F0B4
:101580000060A861A86940F48030A861E86A20F092
:101590000400E862A86940F04000A861A86940F42E
:1015A0008060A861A86920F40070A861A86920F48F
:1015B000C050A861A86920F4C040A861A86920F4BF
:1015C0008070A861A86940F01000A8614FF4003055
:1015D0002060086820F040000860086820F02000C3
:1015E000086000F0E3B8086840F4007008607047D5
:1015F00001220323CDE900484847016841F08001FA
:10160000016070472C6844F000642C602C6844F43E
:1016100040342C606C6924F004046C612C6824F064
:10162000C0042C602C6844F480642C602C6824F482
:1016300000742C602C6824F4C0542C602C6824F4B2
:10164000C0442C602C6824F480742C602C6844F016
:1016500010042C60704753EC102B00F04DBE28682E
:1016600040F001002860A86940F00100A861F8BDC1
:10167000C6F30B1101EB810100EB410081B2B1F522
:10168000FA6F70470A5CFF3AB2FA82F2520982405E
:1016900001301643704700003A490A6842F480520C
:1016A0000A6007490A6842EAC0004CF20732104358
:1016B000086000BF086840F040000860704700BF45
:1016C0000030014065480168002918BF01390160F8
:1016D000704700BF2B48016841F4804101605E48BB
:1016E0005F214160016841F006010160704700BF61
:1016F0000248016841F470010160704788ED00E024
:1017000010B510480168C9071BD0016821F001011C
:1017100001600D4890E81E00002918BF01390160E2
:10172000002A18BF013A4260002B18BF013B8360BA
:10173000002C18BF013C0169C460002918BF0139A1
:10174000016110BD100001409C0000200D4801689F
:1017500041F0010101600C4800210160C16841F0C5
:101760000101C1604FF4BB718162FF21C162074971
:101770000A6842F000720A60016841F001010160EC
:10178000704700BF443802400000014000E100E023
:101790000A48FFF7EEBE00BF0848016821F080014B
:1017A000016070470548FFF728BF00BF0348016884
:1017B00041F040010160FFF720BF00BF144400402A
:1017C00010B50E480E4C016841F4003101602068EC
:1017D00020F480502060606820F44050606000F089
:1017E00011F8206840F008002060206840F00400F4
:1017F0002060206840F40050206010BD4038024056
:101800000C4400400B4800210160016841F4D07194
:101810000160016841F00101016070470548002145
:101820000160016841F49C510160016841F00801C8
:10183000016070470844004007490A6842F001020D
:101840000A604FF47A7242430448026012B100BF4A
:101850000268FBE7FFF77CBE10E000E0CC0100204F
:1018600010B50F4802220168006802EA5020C1F357
:10187000C02108440B490A78032A0ED1714A022874
:10188000138803D1142B01D2012404E0012804D1D0
:101890001BB14FF6FF7423441380087010BD00BFC6
:1018A00010000240D0010020CEB06148614F624C70
:1018B0000322016841F00301016038460C21A04772
:1018C00038460D210322A04738460E210322A047A7
:1018D00038460F210322A047384608210322A0479B
:1018E000384609210322A047A7F580650621032277
:1018F0002846A047DFF84491052600242846072102
:10190000002203234FF00708CDE90046C8472846C8
:1019100005210022FFF718FE494E28460A21002221
:10192000B04728460B210022B0473846002102224A
:10193000B0473846012102220124B047384602212F
:101940000222B0470426384606210122FFF7FCFD9B
:10195000384607210122FFF7F7FD28460221FFF74D
:1019600047FE28460321FFF743FEFFF7A7F9FFF7DD
:10197000B1FEFFF7EBFEFFF7FDFCFFF753FBFFF7B0
:101980001FFFFFF71DFD0420FFF786FEFFF77EFD1A
:10199000DFF8C8A0324E9FED248B03AD0FF2C40BCD
:1019A000FFF75EFF23490869C0044FF0805058BF1D
:1019B0004FF48050886124A1224802882846FEF70F
:1019C0006BFC00202946FFF74DFC23485146324668
:1019D000FFF732FB308800F07CFC57EC184B2246B6
:1019E0003B4600F089FC80467088894600F071FC17
:1019F00022463B4600F080FC41EC100B284659463D
:101A000042464B468DED000BFEF746FC4020294632
:101A1000FFF728FC8020FFF761FD4020FFF75EFD07
:101A2000FF20FFF773FDBBE79A9999999999B93F00
:101A30003038024000040240FB12000891120008F6
:101A4000DF12000810000020456E636F646572208D
:101A50003D202530326400000000002008000020F6
:101A60008801002054656D702E202530342E31669B
:101A70002F2530342E3166005FEA400C08BF91F00C
:101A8000000F4FEA8C234FEAC12243EA51514FEA3B
:101A90001C5018BF00F5F0404FEA300018BF41F06D
:101AA00000415FEA6C5C00F02980BCF1FF3F08BF99
:101AB00040F080407047130C06BF12044FF0100C2A
:101AC0004FF0000C130E04BF12020CF1080C130FA0
:101AD00004BF12010CF1040C930F04BF92000CF12F
:101AE000020CD30F04BF52000CF1010C11464FF051
:101AF0000002A0F11F00A0EB0C00704711F0004F96
:101B000008BF704731F000413FF4D5AF0B0C06BF62
:101B100009044FF0100C4FF0000C0B0E04BF09022B
:101B20000CF1080C0B0F04BF09010CF1040C8B0F16
:101B300004BF89000CF1020CCB0F04BF49000CF16B
:101B4000010CCCF1200322FA03F341EA030102FA6B
:101B50000CF2A0EB0C0000F10100704723F07F476E
:101B600020F07F4C80EA030000F00040ACEB07035C
:101B700003F57C5303F1FF032DE9804909B44FEAD3
:101B8000144324EA03484FEA154B25EA0B4E0FF2A3
:101B9000042606EB13273E7803FB0667C7F500070C
:101BA00007FB06F64FEAD64606F102064FEA54371F
:101BB00007FB066CCCF1005C4FEA1C472CEA074C93
:101BC0000CFB06F507FB06F404EB15464FEA9616E8
:101BD00049085FEA320234BF00204FF000404FEA6C
:101BE000D13706FB07FC4FEA1C4C0CFB0BF7D21B52
:101BF00003FB0CF761EB07010CFB0EF7B0EB0740A2
:101C000072EB17420CFB08F734BFA2EB0742B2EBB2
:101C1000074261EB17414FEA0C444FEA910706FB7C
:101C200007FC4FEA1C4C0CFB0BF7B0EBC74072EB08
:101C3000573203FB0CF734BFA2EBC742B2EBC742EB
:101C400061EB57310CFB0EF7B0EBC70072EB57722C
:101C50000CFB08F734BFA2EBC702B2EBC70261EB83
:101C600057714FEA816141EA92114FEA826242EA7A
:101C700090124FEA806004EBCC04039F4FEAD13707
:101C800006FB07FC4FEA1C4C0CFB0BF7D21B03FBBB
:101C90000CF761EB07010CFB0EF7B0EB074072EBA2
:101CA00017420CFB08F734BFA2EB0742B2EB074226
:101CB00061EB17414FEA8C5504EB9C244FEA9107E6
:101CC00006FB07FC4FEA1C4C0CFB0BF7B0EBC740C4
:101CD00072EB573203FB0CF734BFA2EBC742B2EBF7
:101CE000C74261EB57310CFB0EF7B0EBC70072EB4C
:101CF00057720CFB08F734BFA2EBC702B2EBC70266
:101D000061EB57714FEA816141EA92114FEA8262B9
:101D100042EA90124FEA806015EB4C2544F1000432
:101D20004FEAD13706FB07FC4FEA1C4C0CFB0BF7C4
:101D3000D21B03FB0CF761EB07010CFB0EF7B0EBBA
:101D4000074072EB17420CFB08F734BFA2EB0742C7
:101D5000B2EB074261EB17414FEA813141EA924110
:101D60004FEA823242EA90424FEA80304FEA0C76E4
:101D700015EB1C1544F1000448EA03434EEA0B48F6
:101D80004FF0000EB2EB080C71EB030724BF624664
:101D900039464EEB0E0E4FF0000B001852414941F0
:101DA0004BEB0B0BB2EB080C71EB03077BF1000B59
:101DB00024BF624639464EEB0E0E4FF0000B001862
:101DC000524149414BEB0B0BB2EB080C71EB030793
:101DD0007BF1000B24BF624639464EEB0E0E51EAF2
:101DE000020718BF46F0010616EB0E7655F1000209
:101DF00054F1000103D5BDE88901BDE80088BDE8C4
:101E00008901BDE80048B619524141EB0101A3F137
:101E10000103704780807F7E7D7C7B7A797877763E
:101E200076757473727171706F6E6E6D6C6C6B6AB7
:101E30006A69686867666665646463636261616055
:101E4000605F5F5E5E5D5D5C5C5B5B5A5A595958D2
:101E5000585757565655555554545353525252513C
:101E6000515050504F4F4F4E4E4D4D4D4C4C4C4B92
:101E70004B4B4A4A4A4949494848484747474746D9
:101E80004646454545444444444343434342424215
:101E9000424141419C46002B30D477002BD04FEA81
:101EA00037071CB503B44FF010004FF01001BAF122
:101EB000000F06D0BCF1000FDCBF40F0080040F07E
:101EC00008014FF000000FBCBDE810400BF1010B02
:101ED000BBF1010F08BF5FEA170722BF12F1010231
:101EE00011F101014FF0004143F1000300F0004007
:101EF00043EA00007047F9D35708D0E746EA0646A0
:101F00004FEA164613F1400F1FDD13F1200FDFBF1C
:101F100016430A46002120335B42BED0C3F120079E
:101F200046EA06464FEA164602FA07F746EA070669
:101F300022FA03F2C3F1200701FA07F742EA070287
:101F400021FA03F14FF00003A7E746EA020646EA4A
:101F500006464FEA164646EA0106BCBF46EA064672
:101F6000360C4FF000034FF000024FF0000194E7F1
:101F70002DE9804C70B49A46934691E8380007C822
:101F800031EA400C48BF34EA430C03D5FFF7E6FDC5
:101F9000FFF780FFF0BCBDE8008C2DE9804C70B4E9
:101FA0009A46934691E8380007C810F0804F08BF62
:101FB00013F0804F03D100F005F8FFF76BFFF0BC82
:101FC000BDE8008C20F07F4723F07F4C80EA0300BF
:101FD00000F0004007EB0C03A3F57C53A3F1FE03D4
:101FE00092F0000F00F0B38095F0000F00F07780C2
:101FF0002DE901494FEA114021EA00484FEA144611
:1020000024EA064700FB06FC08FB06F607FB08F877
:1020100018EB06484CEB164C00FB07F718EB07488B
:102020004CEB17404FEA124B22EA0B4E4FEA154693
:1020300025EA06470BFB06FC0EFB06F607FB0EFE29
:102040001EEB064E4CEB164C0BFB07F71EEB074E38
:102050004CEB174B18EB0B0840F1000018EB0E0B84
:1020600058EB000840F100008F1A4FF000014FF0CC
:1020700000063CBFC943661B14BFB5EB040C00212E
:102080003CBFC943F61B4FEA174427EA04454FEA11
:102090001C472CEA074C04FB076205FB07F70CFB07
:1020A00005F616EB074642EB174204FB0CFC16EB59
:1020B0000C4642EB1C421BEB060658EB0202414168
:1020C0004EEA8E0E46EA9E0601D5BDE80189B61994
:1020D000524141EB0101A3F10103BDE801894FEA3F
:1020E000144524EA05464FEA114721EA074C05FB4F
:1020F00007F406FB07F70CFB06F111EB074144EB75
:10210000174405FB0CFC11EB0C4144EB1C444FEA5B
:10211000124722EA074C05FB07F206FB07F70CFB08
:1021200006F616EB074642EB174205FB0CFC16EBD6
:102130000C4642EB1C456A1854F1000148BF704739
:10214000B619524141EB0101A3F10103704795F02B
:10215000000F37D04FEA114221EA02464FEA1447F6
:1021600024EA074C02FB07F106FB07F70CFB06F419
:1021700014EB074441EB174102FB0CFC14EB0C443D
:1021800041EB1C414FEA154725EA074C02FB07F5D6
:1021900006FB07F70CFB06F616EB074645EB174563
:1021A00002FB0CFC16EB0C4645EB1C42121951F1DC
:1021B000000148BF7047B619524141EB0101A3F13C
:1021C000010370474FEA144524EA05464FEA1147D8
:1021D00021EA074C05FB07F106FB07F70CFB06F2AB
:1021E00012EB074241EB174105FB0CFC12EB0C42D2
:1021F00051EB1C414FF0000648BF7047921841EB6D
:102200000101A3F10103704703B401984100009854
:1022100050EAC12018BF04204A0D18BF40F0010049
:1022200040F2FF72B2EB515F08BF40F0020001289C
:1022300008BF052002B0704730380A2801D20120BB
:10224000704700207047000010B500290AD00878B8
:10225000002807D005487844FEF7EAFC002801D0A2
:10226000002010BD0248784410BD00008203000029
:102270007A0300004FEA41034FEA5353A3F580630A
:10228000D3F11E03C8BFD3F1210C0CDD4FF0004287
:1022900042EAC12242EA505232FA03FC8CEAE17C63
:1022A000ACEBE1707047102BC4BF0020704703F502
:1022B000787CBCF1FF3F04D06FF0004282EA21003D
:1022C000704770B500F0C2F8499224800020704732
:1022D000F2E7B0FA80F310FA03F10AD0C3F11D035C
:1022E00003F580634FEA03524FEA415002EBD121DC
:1022F00070474FF00000704770B5DFF848C11CEA26
:10230000111E1EBF1CEA13159EEA0C0F95EA0C0F56
:1023100000F06F8081EA03044EEAD47EAE4421EAE5
:102320004C1123EA4C1341F4801143F48013AEF1B5
:102330007F7EA1FB024CA0FB0365361955EB0C0513
:10234000A1FB034C4CF10003A0FB021C16EB0C0696
:10235000654153F10003094218BF46F0010613F42A
:10236000007F0BD14FEA03314FEA053041EA1551A6
:1023700040EA165034036FF003020AE04FEAC3212B
:102380004FEAC52041EA555140EA5650F4026FF039
:10239000020202EB2E4201EB025585EACE710AD011
:1023A0005FEA440C18BF24F0004450F1000041F1F2
:1023B000000120EAD47040F2FE7C624500D270BD7C
:1023C000A84214BF4FF080444FF04044002E08BF95
:1023D0000024BEF1806FA8BFA1F1C041BDE87040EC
:1023E00080F2828001F1C04101F000414FF0000015
:1023F00070470CEA13159EEA0C0F18BF95EA0C0FF4
:1024000006D081EA030E4FF000000EF0004170BDCF
:1024100000F01CF88900013E00F007B800F009B890
:102420004FEA430C5FEA5C5C08D081EA030100F0EC
:102430005BB84FEA410C5FEA5C5CF6D102494FF0B1
:10244000000070470000FF070000F87F0EF1020E49
:102450002EF0030E5EF8046B364205D4012A43EBDE
:10246000030515F5001F12D8012841EB010C1CF5DE
:10247000001F0CD80ED14FEAD17C0CEB4C0C0CF1A8
:10248000020C15F5001F08BF4CEBD37C04E04FF0A5
:10249000080C01E04FEAD37C0CEB4C0526FA05F65C
:1024A00006F00706B6F1040C06D20EEB860CBDE86A
:1024B00070404CF0010C6047DFE80CF0090B0202A1
:1024C0004FF00041A1F500214FF0000070BD19460A
:1024D0001046012851EB010418BFD4F5001484BF45
:1024E000002001F0004170BD0808A0F500114FEA7E
:1024F00031017047F1EE100A4FF6FF71C0F2C031A2
:1025000020EA010040F04070E1EE100A7047FEF74B
:102510000BB90400000800000000000000020001E8
:102520000000100002400000000000A000000000B9
:1025300005400000000000C8000000000C40000042
:102540000000409C00000000194000000020BCBEBC
:102550000000000034400000BFC91B8E00000004D2
:10256000B5400000504BCFD06607E2CF010000001D
:102570006C4100003E8251AADFEEA734010000004A
:10258000D9420000DCB5A0E23A301F97FFFFFFFF01
:10259000B4450000FD25A0C8E9A3C14FFFFFFFFF20
:1025A000FF3F00000000008000000000FF3F00002F
:1025B0000000008000000000F4250008000000205A
:1025C00014000000D40100080826000818000020AC
:1025D000C0070000F00100081C00000043000000DC
:1025E000F8FFFFFF0C0000000E0000000F000000CD
:1025F0002E00000028E4BC75D0013C6C28690C75E5
:08260000D0013C830A00000038
:040000050800025994
:00000001FF
