:020000040800F2
:10000000F8060020390200084102000843020008F7
:1000100045020008470200084902000800000000ED
:100020000000000000000000000000004B0200087B
:100030004D020008000000004F0200088107000880
:10004000530200085302000853020008530200083C
:10005000530200085302000853020008530200082C
:10006000530200085302000853020008530200081C
:10007000530200085302000853020008530200080C
:100080004103000879030008530200080000000043
:100090000000000000000000000000005302000803
:1000A00053020008BD07000853020008530200086D
:1000B0003D080008530200085302000853020008DC
:1000C00053020008530200085302000853020008BC
:1000D0005302000853020008530200080000000009
:1000E00053020008530200085302000800000000F9
:1000F00000000000000000000000000053020008A3
:1001000000000000530200085302000853020008D8
:1001100000000000000000000000000000000000DF
:10012000530200085302000853020008530200085B
:100130005302000800000000000000000000000062
:100140000000000000000000000000005302000852
:10015000530200085302000853020008530200082B
:1001600053020008530200080000000000000000D5
:10017000000000000000000000000000000000007F
:100180000000000053020008000000000000000012
:10019000530200085302000800F002F800F03CF897
:1001A0000AA090E8000C82448344AAF10107DA45D2
:1001B00001D100F031F8AFF2090EBAE80F0013F0E8
:1001C000010F18BFFB1A43F0010318475009000044
:1001D00070090000103A24BF78C878C1FAD85207D5
:1001E00024BF30C830C144BF04680C6070470000B1
:1001F0000023002400250026103A28BF78C1FBD830
:10020000520728BF30C148BF0B6070471FB500F0D0
:1002100077FC1FBD10B510BD00F031F81146FFF797
:10022000F5FF00F09FFB00F04FF803B4FFF7F2FF7B
:1002300003BC00F057F80000094880470948004710
:10024000FEE7FEE7FEE7FEE7FEE7FEE7FEE7FEE786
:10025000FEE7FEE704480549054A064B70470000E3
:10026000AD07000899010008F8000020F8060020FA
:10027000F8020020F802002070477047704775466A
:1002800000F02CF8AE4605006946534620F0070002
:10029000854618B020B5FFF7DDFFBDE820404FF0E0
:1002A00000064FF000074FF000084FF0000BAC467F
:1002B000ACE8C009ACE8C009ACE8C009ACE8C009CA
:1002C00021F007018D46704710B50446AFF300805A
:1002D0002046BDE81040FFF7A8BF00000048704767
:1002E0004000002001491820ABBEFEE726000200B6
:1002F0007047000070B5114C4FF4803525602568BB
:10030000AD03FCD500F0E8F908BF4FF40031082A2E
:1003100008BF4FF44031084340F48000606020681B
:1003200040F0807020602068800101D400BFFAE7AF
:1003300000F0F6F9A0680007FCD570BD0038024057
:1003400018480168090558BF7047816841F4006189
:100350008160D0F88410C90505D4D0F8841021F04C
:100360000101C0F8841000F001B800BF1848002156
:10037000017000F099BA00BF0A480168890258BFAD
:100380007047816841F400118160D0F89C10C90564
:1003900005D4D0F89C1021F00101C0F89C1000F0A9
:1003A00003B800BF0460024007480168490601D451
:1003B00000BFFAE705480068C00702D104480021E1
:1003C000017000F075BA00BF004400408860024030
:1003D000A00000200248016841F4C001016070479C
:1003E0003038024070B54C00022506688A40A540AE
:1003F0003543056045682A43426003FA04F2836886
:100400001A438260049AC368A2401A43C2606FF024
:100410001F02082902EB810238BF8A00059901FA00
:1004200002F14FF0240238BF202283581943815033
:1004300070BD10B54900032304688B4002FA01F136
:1004400024EA03030360C2681143C16010BD10B504
:100450004900012304688B4002FA01F12343036041
:1004600082681143816010BD2E48016841F480719B
:10047000016040F671014269D20701D10139FAD118
:1004800000BF70472748016841F400710160704760
:1004900006490A6841F8040C40F671000A6812F037
:1004A000020201D10138F9D100F010B91454004012
:1004B0000949086040F671004A6812F0040201D14F
:1004C0000138F9D14868B2FA82F1490900F4806034
:1004D00041EA9020704700BF10540040104840F699
:1004E000FF72016841F4001101600E48416821F07B
:1004F0003F014160416841F030014160C16941F410
:100500000041C161C1699143C161C16941F02801E4
:10051000C1610F210162016841F001010160704772
:100520004038024000540040B0B50F4C6420A04752
:10053000FFF79AFF4E20FFF7ABFF0C4D2020A84796
:100540002C20A8470A20A0470C20A8470A20A04733
:100550000120A8476420A0470620A8476420A047A0
:10056000BDE8B040FFF78EBF210900087105000803
:1005700070B500F0F0050A4E044605F10C00B047D6
:1005800005F10800B047240104F10C00C0B2B047E7
:1005900004F108003146C0B2BDE87040084700BF12
:1005A000B10400082DE9FE4F434E0024CDE90010B0
:1005B000402C0DD256F8080CC0044FF0805058BFA4
:1005C0004FF480503060322000F0BAF90134EFE788
:1005D000C82000F0B5F94FF000094FF480544FF0F7
:1005E00080554FF0005A019881454FD000274FF0B9
:1005F000FF08082F16D25FEA08604FF4005058BF7A
:100600004FF0005000F099F8C820356017F0790FCE
:1006100008BF322000F094F94FF4FF70013700EA70
:100620004808E6E7C6F800A0CDF8089009EB4900B5
:100630004FF00009009901EB0008B9F1030F20D039
:1006400018F809704FF0000BBBF1080F11D278B207
:10065000B0F1FF3F4FF40050C8BF4FF0005000F022
:100660006CF83220356000F06BF90BF1010B7F0064
:10067000EAE79620C6F800A000F062F909F1010946
:10068000DBE7DDF8089009F10109ACE70024402C14
:100690000DD256F8080CC0044FF0805058BF4FF4EC
:1006A00080503060322000F04BF90134EFE7192020
:1006B000BDE8FE4F00F034B9180402400A20294674
:1006C0003847086820F001000860704708684868EB
:1006D000B2FA82F04009704740EA8110111FD4F845
:1006E000005440F20376B1FA81F140EA036049090F
:1006F00035430904C4F80054062A7047016821F004
:100700004001016070470902B0FBF1F01368013845
:1007100043F00103136070470323CDE90076484797
:10072000A06840F48050A060A06820F00300A060A2
:10073000A06840F00200A060704730603460322052
:1007400000F0FEB801220323CDE9007848470000FD
:10075000524907280A6842F480520A60074928BFB4
:1007600007200A6842EAC0004CF2073210430860D2
:1007700000BF086840F0400008607047003001404A
:1007800077480168002918BF01390160704700BF30
:100790004248016841F48041016070485F21416036
:1007A000016841F006010160704700BF024801681E
:1007B00041F470010160704788ED00E010B51D48FC
:1007C0000168C90734D0016821F0010101601A48AD
:1007D00090E81E00002918BF01390160002A18BFE7
:1007E000013A4260002B18BF013B8360002C18BF08
:1007F000013C0169C460002918BF013901614169E8
:10080000002918BF013941618169002918BF0139E8
:100810008161C169002918BF0139C161016A0029DC
:1008200018BF01390162416A002918BF01394162CC
:1008300010BD00BF10000140A4000020074801685F
:10084000C90709D0016821F001010160044801686D
:10085000002918BF01390160704700BF1000004037
:10086000CC0000200D4A4DF808EDFFF74CFF5DF875
:1008700008EB0B4A00231360D36843F00103D360F5
:100880009062FF20D0620748016841F0007101606A
:10089000106840F001001060704700BF443802400B
:1008A0000000014000E100E00448FFF727BF00BF5F
:1008B0000248016821F08001016070471444004043
:1008C00010B50E480E4C016841F4003101602068FB
:1008D00020F480502060606820F44050606000F098
:1008E00011F8206840F008002060206840F0040003
:1008F0002060206840F40050206010BD4038024065
:100900000C440040054800210160016841F4D071A9
:100910000160016841F00101016070470844004036
:100920000E490A6842F001020A604FF47A724243AB
:100930000B48026012B100BF0268FBE7FFF7C1BEBF
:1009400006490A6842F001020A60054A106010B1C7
:1009500000BF1068FBE7FFF7B4BE00BF10E000E087
:10096000D000002082B05C485C4C5D4E03220168E0
:1009700041F00301016020460C21B04720460D21C3
:100980000322B04720460E210322B04720460F2104
:100990000322B047204608210322B0472046092100
:1009A0000322B047A4F58065062103222846B047FC
:1009B000DFF830910526002728460721002203236F
:1009C0004FF00708CDE90076C847284605210022E8
:1009D000FFF7A2FE444E28460A210022B0472846CF
:1009E0000B210022B047204600210222B0472046BA
:1009F000012102220127B047204602210222B047EE
:100A00000426204606210122FFF786FE2046072104
:100A10000122FFF781FE28460221FFF793FE2846B8
:100A20000321FFF78FFE1920C02102220423FFF7C4
:100A300061FCFFF7ADFE2D484FF47A71FFF712FF0E
:100A4000FFF74CFDFFF7C6FCFFF73AFFFFF76CFD21
:100A50000420FFF77DFEDFF89880264F264C274DB7
:100A60000A204146B8470120A047FFF727FE012092
:100A7000A0470A204146B8470120A047FFF71EFEC5
:100A80000120A0470A204146B8470120A047FFF7B0
:100A900015FE0120A0471E20A04708F11E060A20CF
:100AA0003146B8470120A047FFF708FE0120A047C4
:100AB0000A203146B8470120A047FFF7FFFD01207B
:100AC000A0470A203146B8470120A047FFF7F6FDAE
:100AD0000120A047C4E700BF3038024000040240B4
:100AE0004F040008E50300083304000800D8B805E7
:100AF00000000020A505000821090008D4000020FE
:100B0000F1EE100A4FF6FF71C0F2C03120EA010089
:100B100040F04070E1EE100A704700003C0B000806
:100B2000000000203C000000D4010008780B000801
:100B300040000020B8060000F0010008FF0000FFA0
:100B40000000FF0000FF0000FF00000000000000A8
:100B50000000000000000000000000000000000095
:100B60000000000000000000000000FF0000FF0087
:080B700000FF0000FF0000FF80
:0400000508000239B4
:00000001FF
