:020000040800F2
:10000000D0090020590200086102000863020008BC
:10001000650200086702000869020008000000008D
:100020000000000000000000000000006B0200085B
:100030006D020008000000006F02000801180008AF
:1000400073020008730200087302000873020008BC
:1000500073020008730200087302000873020008AC
:10006000730200087302000873020008730200089C
:10007000730200087302000873020008730200088C
:10008000090D0008410D000873020008000000007F
:1000900000000000000000000000000073020008E3
:1000A000730200083D18000873020008730200087C
:1000B000BD180008730200087302000873020008EC
:1000C000730200087302000873020008730200083C
:1000D00073020008730200087302000800000000A9
:1000E0007302000873020008730200080000000099
:1000F0000000000000000000000000007302000883
:100100000000000073020008730200087302000878
:1001100000000000000000000000000000000000DF
:100120007302000873020008950D000873020008AE
:100130007302000800000000000000000000000042
:100140000000000000000000000000007302000832
:1001500073020008730200087302000873020008AB
:100160007302000873020008000000000000000095
:10017000000000000000000000000000000000007F
:1001800000000000730200080000000000000000F2
:10019000730200087302000800F002F800F04CF847
:1001A0000AA090E8000C82448344AAF10107DA45D2
:1001B00001D100F041F8AFF2090EBAE80F0013F0D8
:1001C000010F18BFFB1A43F001031847BC2A0000B7
:1001D000DC2A0000103A24BF78C878C1FAD8520748
:1001E00024BF30C830C144BF04680C6070470000B1
:1001F0000023002400250026103A28BF78C1FBD830
:10020000520728BF30C148BF0B607047662902F013
:100210006682642900F07C80002070471FB502F0E0
:1002200051FA00F0D5FB04000020002102F0F4F8A0
:10023000E0601FBD10B510BD00F0CAFC1146FFF70D
:10024000EDFF01F0FDFB00F0E8FC03B4FFF7F2FF67
:1002500003BC00F02BFD0000094880470948004717
:10026000FEE7FEE7FEE7FEE7FEE7FEE7FEE7FEE766
:10027000FEE7FEE704480549054A064B70470000C3
:100280002D18000899010008D0030020D009002093
:10029000D0050020D00500200FB41CB5074B06AADE
:1002A0007B4469460090059800F079FB0020694680
:1002B00000F088FB1CBC5DF814FB00002107000067
:1002C00070B5044685690068C10601D5302600E096
:1002D0002026C00707D070BDD4E9012130469047E1
:1002E000206A401C20626D1EF6D570BD70B50446B4
:1002F00085690078C00707D170BDD4E901212020AD
:100300009047206A401C20626D1EF6D570BD00002B
:100310002DE9F0410646002410687529314616A5DE
:1003200010D0AFF30080002802DA404213A507E0A6
:1003300031688A0701D512A502E0490704D511A545
:10034000012401E0AFF3008000210A2206F1240716
:1003500009E0B0FBF2FCB0FBF2F302FB1C00303012
:1003600078541846491C0028F3D123462A463046C3
:10037000BDE8F04100F0A7B8000000002D0000002B
:100380002B000000200000002DE9F05F89460446A4
:100390004FF0000ADFF824B1FB44C0F820A020464B
:1003A000E168884700287DD0252806D0D4E90121BE
:1003B0009047206A401C2062F1E700255F462046F6
:1003C000E16888472028064607DB312E05D2B81998
:1003D00010F8200C08B10543F1E7A80701D525F076
:1003E0000405C4F81CA00027C4F818A02A2E09D0C0
:1003F000304602F009F838B304EB8708303EC8F8FD
:10040000186019E059F8041B204604EB870291613B
:10041000E1688847012F064618D1E069002820DAF4
:1004200025F020051DE0D8F8180000EB800006EB51
:1004300040003038C8F818002046E1688847064672
:1004400001F0E2FF0028EED1012F0AD02E2E08D1B4
:100450002046E16888477F1C0646022F45F02005AC
:10046000C4DBA069002803DA404245F00105A06121
:10047000E80701D025F01005A6B1A6F14100192822
:1004800002D8203645F400654A46314620462560AC
:100490004D46FFF7BBFE60B1012807D0ED1D25F0EA
:1004A000070000E007E000F1080978E705F104091A
:1004B00075E730467AE7206ABDE8F09F46230000E2
:1004C0007047704770472DE9F0470D4699469246B0
:1004D000044600F124080168880604D5E06921F08B
:1004E0001001216000E00120A84201DD471B00E06F
:1004F0000027A1697A1902EB0900081AA061207887
:10050000C00602D42046FFF7DBFE002608E0D4E94F
:1005100001211AF806009047206A401C761C2062D0
:100520004E45F4DB2078C0060AD52046FFF7C8FE0A
:1005300006E0D4E9012130209047206A401C206267
:10054000381EA7F10107F4DC07E0D4E9012118F80F
:1005500005009047206A401C2062281EA5F1010575
:10056000F3DC2046FFF7C2FE2078000602D5022009
:10057000BDE8F0870120FBE72DE9FF4F0C461E4642
:100580004FF0FF378BB0D2E90001DDF860800A90B0
:100590008A46C1F30A5505B93D46002108464FF089
:1005A0000000BAF1000F00F4400005DA00EB800013
:1005B0004FF4400101EA50004FEA9059B9F1010FA0
:1005C00000DDB9460A9850EA4A000ED044F61050B1
:1005D000A5F2FF3545432F14B8F1000F1ED0754228
:1005E000291E1EDDC9F100021CE0B8F1010F4FF019
:1005F000000001D0302103E0F24305E02154401C0B
:10060000B042FBDB30460022002121540B99C1F897
:100610000880C1E900200FB0BDE8F08FBD1B6D1C44
:10062000DEE74A4600DA694206A800F05BFA06AB4C
:1006300093E8070003AB83E8070050460A9901F0EE
:1006400003FB8DE80700A0F500501F3800900398C9
:10065000002D0ADD42F21F014A460844002303A987
:100660000390684601F06CFD09E0A0F500504A4691
:100670001F38002303A90390684601F076FD8DE83A
:1006800007000004000C03D04FF0FF30410800E0E9
:100690001046B8F1000F03D00022009215461EE06C
:1006A000751E05D400F098F9303262556D1EF9D5EB
:1006B000B3460122084302D000227F1C04E02078C8
:1006C000302801D100227F1E002A099784D01DE026
:1006D000112D07DA00F080F9303262556D1C50EAB6
:1006E0000102F5D1084302D00098C8B10EE0002104
:1006F000681E05E0235C625C63542254401E491C62
:100700008142F7DBAB46A81B401E0990002004F88D
:100710000B000B98099AC0F80880C0E9002B7AE713
:1007200011264FF0000857E72DE9F04F88460446A0
:10073000D21D22F0070191B0D1E90001CDE90A01F3
:1007400001F04AFE02460B98C00F01D02D2007E0B1
:100750002068810701D52B2002E0202101EAC0009A
:10076000032A099001D0072A05DB034641462046AB
:1007700000F078F90BE12078800601D5E06900E00F
:100780000620B8F1650F814606D0B8F1660F18D083
:10079000B8F1670F70D131E00020B9F1110F00906E
:1007A00001DB112301E009F101030AAA01A90CA848
:1007B000FFF7E2FEDDE90C70002609F10105834632
:1007C00047E001204B4600904FF000470AAA01A9DC
:1007D0000CA8FFF7D1FEDDE90DB00C995D460026AF
:1007E00010B909F101000D18B9EB050003D4C0F1EF
:1007F000FF3609F10105A5EB09002BE0B9F1010F66
:1008000001DA4FF001090020B9F1110F00904846BC
:1008100001DD112300E003460AAA01A90CA8FFF795
:10082000ABFEDDE90C704D460026834620780007BC
:100830000AD4AB4500DA5D4601A8012D04DD41195B
:1008400011F8011C302907D04F4502DA17F1040FC7
:1008500004DA012082460FE06D1EEEE7002F02DC75
:10086000ED1B3E4403E0781CA84200DD7D1CB81B54
:1008700000F1010A4FF000472078000703D4AA4591
:1008800001DB4FF0FF3A0021B7F1004F0DF14308B3
:100890008DF8431024D002202B23002F01DA7F4251
:1008A0002D230A21021EA0F1010000DC5FB197FB9D
:1008B000F1FC97FBF1F201FB1C7C17460CF1300CAC
:1008C00008F801CDEEE7A8F10100037021880905C1
:1008D00001D5452100E06521A0F1010800F8011CC7
:1008E00009980FA9A1EB0807FF1D00B101204119CC
:1008F00001EBEA70A1693844081A401EA061207813
:10090000C00602D42046FFF7DBFC099828B1D4E9E1
:1009100001219047206A401C20622078C00622D521
:100920002046FFF7CDFC1EE0002E04DBB34502DDC0
:1009300001A8805D00E03020D4E901219047206AC1
:10094000401C2062761CAAF101005FEA000A0AD16D
:1009500000F03EF8C0680168405CD4E9012190478E
:10096000206A401C2062281EA5F10105DCDC07E09E
:10097000D4E9012118F8010B9047206A401C20623D
:10098000381EA7F10107F3DC2046FFF7AFFC032078
:1009900011B041E601694A1C02610878704700B550
:1009A0008FB0CDE901310021059105497944CDE9A8
:1009B000031011466846FFF7E7FC0FB000BD0000CA
:1009C000E5FFFFFF0A6802F8010B0A6070470000AC
:1009D000004870473800002030B5B0F10A0271F1CC
:1009E00000034FEA900E4EEA817EB0EB0E0061EB01
:1009F00091014FEA101E4EEA017E10EB0E0041EB12
:100A000011114FEA102E4EEA016E10EB0E0041EB71
:100A100011214FEA104E4EEA014E10EB0E0041EB51
:100A20001141401841F100014FEAD00040EA417005
:100A30004FEAD1014FEA810444EA907410EB80053B
:100A400044EB01046D1944EB0404521BA3414FF025
:100A5000000348BF0A3200D530BD401C41F10001FF
:100A600030BD00002DE9F0411F4604460326016811
:100A7000072A01F4006004DB08B116A505E016A5FD
:100A800003E008B115A500E015A521F010002060D5
:100A9000A069C01EA0610FB1401EA0612046FFF7F3
:100AA0000FFC4FB1D4E9012138469047206A401C21
:100AB0002062C01C206206E0206AFAE7D4E9012126
:100AC00015F8010B9047761EF8D22046FFF70EFC72
:100AD000BDE8F0814E414E006E616E00494E460009
:100AE000696E66002DE9F047814616468AB03548A2
:100AF00078440DC88DE80D0032487844801C03AC62
:100B00000DC884E80D0041F69B300844372190FB66
:100B1000F1F290FBF1F5A5F1800501FB12041B3CFD
:100B200002D56442012000E00020DFF898A0804652
:100B30000027FA44AAF1BE0A0EE0E0070AD03246C6
:100B4000684607EB470101230AEB810101F00DFB29
:100B50008DE8070064107F1C002CEED1194F7F44F4
:100B6000AE3F19E0E80715D007EB04100DF1180AA5
:100B700090E80E008AE80E00C068F04201D1981992
:100B800008903246012306A903A801F0EEFA03AB50
:100B900083E807006D10641C002DE3D14FF00103C2
:100BA00032466946B8F1000F03A802D001F0C8FA36
:100BB00001E001F0DAFAC9E90001C9F808200AB039
:100BC000BDE8F0877C1C000000487047180000203A
:100BD0007546FFF7F9FFAE4605006946534620F01B
:100BE0000700854618B020B5FFF744FBBDE820405C
:100BF0004FF000064FF000074FF000084FF0000BD9
:100C0000AC46ACE8C009ACE8C009ACE8C009ACE847
:100C1000C00921F007018D46704710B50446AFF3B7
:100C200000802046BDE81040FFF70FBB0000000029
:100C300030B44FF0013C50F8042B51F8043BCCFA8F
:100C400052F4D51A20D1FCB950F8042B51F8043BCA
:100C5000CCFA52F4D51A17D1B4B950F8042B51F884
:100C6000043BCCFA52F4D51A0ED16CB950F8042BCF
:100C700051F8043BCCFA52F4D51A05D1002CDAD045
:100C800030BC4FF00000704729BAB1FA81F111F081
:100C90001801D1F120008440F2D1CA40CB4012F0BB
:100CA000FF0213F0FF0330BCD01A7047014918202F
:100CB000ABBEFEE7260002007047000070B5114C85
:100CC0004FF4803525602568AD03FCD500F023FD89
:100CD00008BF4FF40031082A08BF4FF440310843E1
:100CE00040F480006060206840F0807020602068E0
:100CF000800101D400BFFAE700F047FDA0680007BB
:100D0000FCD570BD0038024018480168090558BF7D
:100D10007047816841F400618160D0F88410C90592
:100D200005D4D0F8841021F00101C0F8841000F03F
:100D300001B800BF16480021017000F0F5BD00BFEA
:100D40000A480168890258BF7047816841F4001160
:100D50008160D0F89C10C90505D4D0F89C1021F012
:100D60000101C0F89C1000F003B800BF046002400D
:100D700090480168490601D400BFFAE76C48006852
:100D8000C00702D102480021017000F0D1BD00BFB0
:100D90007800002008480168890258BF70478168C0
:100DA00041F400118160016CC90503D4016C21F08C
:100DB0000101016400F002B80064024009480168C2
:100DC00021F00101016008480168890702D400BFD1
:100DD000FAE700BF01680906FBD404484FF480011C
:100DE0000160704740640240083001401800024032
:100DF0002DE9F84F8946054600F0D0FD214EED0063
:100E00000020FF21C2B2954202D9B1540130F9E766
:100E1000B44F10201A4C19494FF0010A4FF0040842
:100E2000F8770220C7E9021987F81AA0C7E9045821
:100E30004FF000098B46388304F18800C7E9004071
:100E400008680868C7F81B9000F0BEF81120C7F8C2
:100E50001B9087F81AA0C7E902B6C7E90458F877CB
:100E60004FF48170388304F1A000C7E9004000F01E
:100E7000ABF8BDE8F84F00F065BD00BF044400408A
:100E800000600240A40000202DE9F84F824600F0E7
:100E900091FD264DF0200021082907D000F0010225
:100EA0004008524205F831200131F5E78D4E414F9F
:100EB00010201F4A4FF0010B08210024F077022078
:100EC00007F1040807F5073986F81AB030830420C3
:100ED000C6E9028AC6E900924FF0040AC6E9041086
:100EE00078687868C6F81B4000F06EF81120C6F8E4
:100EF0001B4086F81AB0C6E90285F0774FF481707E
:100F000030830B481830C6E900900820C6E9040A6F
:100F100000F05AF8386820F040003860386820F057
:100F200020003860BDE8F84F00F00CBDE400002060
:100F300088600240F8B50D46044600F02FFD1B49BD
:100F40000020A0420ED02B5C0022082A07D003F01C
:100F50000106DBB276425B088E540132F5E70831B8
:100F60000130EEE75F481121124D104A104BE400AA
:100F7000C17700212E1D05F50737C0F81B10012190
:100F8000C0E90073C0E90262817640F20311018377
:100F90000421C0E9044100F017F8286820F040005F
:100FA0002860BDE8F84000F0C9BC00BF2401002063
:100FB000A0600240004400400248016841F4C001C2
:100FC0000160704730380240B0B546494868026851
:100FD000D20773D101F108053CCD8260C360446043
:100FE000026822F060620260026842EA45620260C2
:100FF000026822F4403202600A7E042A88BF03227B
:10100000036843EA02420260426922F0040242613C
:10101000026822F0C00202604A7E032A88BF0022D2
:10102000036843EA82120260026822F4806202606E
:101030008A7E036843EA82220260026822F4007218
:101040000260CA7E036843EA42220260026822F418
:10105000C05202604A7F032A88BF0222036843EA23
:10106000C2220260026822F4C04202600A7F032AA0
:1010700088BF0222036843EA42320260026822F417
:10108000807202608A7F036843EA0222026002687B
:1010900042F010020260CA7F13491F2A9EBF01233B
:1010A00093400B6002F0E003402B11D0202B14D1B1
:1010B000203A012303FA02F24A600EE0026822F0AD
:1010C000010202600268D20784D000BF4868F9E7D5
:1010D000403A012303FA02F28A60016841F00101FB
:1010E0000160B0BD6401002000E100E000000000EC
:1010F0002DE9F84306460020854F904689468DF835
:101100000300787828B9834801243C70FFF7BCFEBF
:101110007C703C787878012808BF002C07D1CC205F
:101120000DF1030100F0F1FA02203C70787078783C
:10113000022808BF002C07D144200DF1030100F064
:10114000E4FA03203C7078707878032808BF002CFC
:1011500005D071480068B0FA80F0400906E004202C
:101160004FF47A7178706C48016000207978042916
:1011700002D108B1052078707878052807D10120C0
:1011800038706448FFF780FE062078703C787878E5
:10119000062808BF002C07D155200DF1030100F0EF
:1011A000B4FA07203C7078707878072808BF002CC4
:1011B00007D1082031460825FFF7BCFE01243C700A
:1011C0007D707878082808BF002C07D1BE200DF16B
:1011D000030100F09AFA09203C70787078780928A9
:1011E00008BF002C08D101204A4938700220FFF7BF
:1011F000FFFD0A2078703C78787800260A2808BF1E
:10120000002C19D1434900200026102802D000F0FC
:10121000D3FAFAE706F00F0001F043F99FED3A0B1D
:1012200000F0D3FA01F00EF900F0A5FA88BF002013
:10123000A8F800000B20787078780B2807D10120DF
:1012400038703448FFF720FE0C2078703C787878AE
:101250000C2808BF002C07D155200DF1030100F028
:1012600054FA0D203C70787078780D2808BF002C57
:1012700007D108204946FFF75DFE01240E203C708F
:10128000787078780E2808BF002C07D1BE200DF1A9
:10129000030100F03AFA0F203C70787078780F283C
:1012A00008BF002C08D101201A4938700220FFF72E
:1012B0009FFD102078703C787878102808BF002CAB
:1012C00018D114490020102802D000F075FAFAE76E
:1012D0001120787006F00F0001F0E3F89FED0A0B83
:1012E00000F073FA01F0AEF800F045FA88BF002074
:1012F000A8F802007878112804BF00207870012037
:10130000BDE8F88300BF00BF000000000000E43F1C
:1013100078000020800300207C000020B0B50C463F
:10132000054600F053F84E2000F062F845F08000CA
:1013300000F0C4F8207818B100F0D8F80134F9E7CB
:10134000BDE8B04000F04EB870B54C00022506680C
:101350008A40A5403543056045682A43426003FA48
:1013600004F283681A438260049AC368A2401A4355
:10137000C2606FF01F02082902EB810238BF8A00A9
:10138000059901FA02F14FF0240238BF2022835858
:101390001943815070BD10B54900032304688B4088
:1013A00002FA01F124EA03030360C2681143C16039
:1013B00010BD10B54900012304688B4002FA01F109
:1013C0002343036082681143816010BD294801688E
:1013D00041F4807101604169C90718BF704700BFBF
:1013E000F9E700BF2348016841F4007101607047CC
:1013F00006490A6841F8040C40F671000A6812F0C8
:10140000020201D10138F9D100F079B91454004039
:10141000054908604868400701D400BFFAE74868FA
:10142000C0F38020704700BF10540040104840F6C1
:10143000FF72016841F4001101600E48416821F01B
:101440003F014160416841F030014160C16941F4B0
:101450000041C161C1699143C161C16941F0280185
:10146000C1610F210162016841F001010160704713
:101470004038024000540040B0B5FFF7A7FF4E20AF
:10148000FFF7B6FF0B4C2020A0472C20A0470A4DA9
:101490000120A8470C20A0470120A8470120A04711
:1014A0003220A8470620A0473220A847BDE8B04018
:1014B000FFF798BFBD140008D119000870B500F0FF
:1014C000F005164E044605F10C00B04705F1080082
:1014D000B047240104F10C00C0B2B04704F1080089
:1014E0003146C0B2BDE87040084700BF70B500F09B
:1014F000F0050A4E044605F10D00B04705F109005C
:10150000B047240104F10D00C0B2B04704F1090056
:101510003146C0B2BDE87040084700BF1114000852
:1015200070B5564D0024062C08BF70BD04F1400074
:10153000C0B200F0A5F80026542E09D046F0800075
:10154000C0B200F09DF8A85D00F0B2F80136F3E7F4
:1015500054350134E7E700BF2DE9F84FDFF8649018
:101560000D46824692F800B0BBF1000F08BFBDE8FF
:10157000F88F00270092052F1ED00BEB8B000AEB93
:1015800007064FF000084844C45D5FFA88F0082859
:1015900010D208EB0501E00704D1F0B2C9B200F0A7
:1015A0005DF803E0F0B2C9B200F020F808F10108DC
:1015B0006408EAE70137DEE7009A0AF1060A013219
:1015C000D0E700BF8827000810B5802000F058F849
:1015D000402000F055F80024B4F5FC7F28BF10BD72
:1015E000002000F065F80134F6E70000532898BFAA
:1015F0002F2900D9704710B5204B00F09EF81943F1
:101600001154BDE810407047B0B5354D0446286808
:1016100040F400702860322000F0DAF9286840F0C9
:1016200080702860962000F0D3F9286840F480701C
:101630002860094D2120A84784F08000A847042095
:10164000A8471320A8472020A8470C20A847BDE89A
:10165000B040FFF7B9BF00BF81160008532898BFFC
:101660002F2900D9704710B5044B00F066F823EA23
:1016700001011154BDE81040704700BF88010020EF
:1016800017490A6842F000720A60164A8B5843F400
:1016900080038B50144A50601068800702D400BF4A
:1016A000FAE700BF10680006FBD400F07BB800BF6B
:1016B0000B490A6842F000720A600A4A8B5843F0EC
:1016C00040038B50084A50601068800702D400BF66
:1016D000FAE700BF10680006FBD400F063B800BF53
:1016E0001804024000FCFFFF083001400323CDE94D
:1016F00000564847086820F00100086070470868F5
:101700004868B2FA82F04009704701248DF803005E
:101710000120FFF70FBC40EA8110111FD4F80054DC
:1017200040F20376B1FA81F140EA0360490935439A
:101730000904C4F80054062A7047CA08542401F06A
:10174000070112FB04320124135C04FA01F1704713
:10175000016821F04001016070470902B0FBF1F01F
:101760001368013843F0010313607047012203231B
:10177000CDE900584847C6F30B1101EB810100EB9E
:10178000410081B2B1F5FA6F7047A06840F4805013
:10179000A060A06820F00300A060A06840F00200F4
:1017A000A0607047086840F40070086070470168E6
:1017B00041F08001016070470A5CFF3AB2FA82F2A0
:1017C0005209824001301643704753EC102B00F051
:1017D0007BBE000051490A6842F480520A60074902
:1017E0000A6842EAC0004CF207321043086000BFAA
:1017F000086840F040000860704700BF00300140BA
:101800007C480168002918BF01390160704700BF9A
:101810004248016841F48041016075485F214160A0
:10182000016841F006010160704700BF024801688D
:1018300041F470010160704788ED00E010B51D486B
:101840000168C90734D0016821F0010101601A481C
:1018500090E81E00002918BF01390160002A18BF56
:10186000013A4260002B18BF013B8360002C18BF77
:10187000013C0169C460002918BF01390161416957
:10188000002918BF013941618169002918BF013958
:101890008161C169002918BF0139C161016A00294C
:1018A00018BF01390162416A002918BF013941623C
:1018B00010BD00BF100001407C00002007480168F7
:1018C000C90709D0016821F00101016004480168DD
:1018D000002918BF01390160704700BF10000040A7
:1018E000C00300200D4A4DF808EDFFF736FF5DF804
:1018F00008EB0B4A00231360D36843F00103D36065
:101900009062FF20D0620748016841F000710160D9
:10191000106840F001001060704700BF443802407A
:101920000000014000E100E00A48FFF711BF00BFDE
:101930000848016821F08001016070470548FFF701
:1019400036BF00BF0348016841F040010160FFF766
:101950002EBF00BF1444004010B50E480E4C016865
:1019600041F400310160206820F4805020606068FC
:1019700020F44050606000F011F8206840F008004A
:101980002060206840F004002060206840F400508F
:10199000206010BD403802400C4400400B4800213C
:1019A0000160016841F4D0710160016841F00101FA
:1019B00001607047054800210160016841F49C51B5
:1019C0000160016841F0080101607047084400406F
:1019D00007490A6842F001020A604FF47A724243F2
:1019E0000448026012B100BF0268FBE7FFF782BE45
:1019F00010E000E0C403002010B50F480222016887
:101A0000006802EA5020C1F3C02108440B490A785B
:101A1000032A0ED17C4A0228138803D1142B01D249
:101A2000012404E0012804D11BB14FF6FF742344C4
:101A30001380087010BD00BF10000240C8030020D2
:101A4000CEB06B486B4F6C4D0322016841F003012F
:101A5000016038460C21A84738460D210322A847CB
:101A600038460E210322A84738460F210322A847F3
:101A7000384608210322A847384609210322A847EF
:101A8000A7F58064062103222046A847DFF86C9161
:101A90000526002520460721002203234FF00708D2
:101AA000CDE90056C847204605210022FFF71EFE5B
:101AB000534E20460A210022B04720460B21002227
:101AC000B047384600210222B047384601210222A1
:101AD0000125B047384602210222B0470426384685
:101AE00006210122FFF702FE384607210122FFF7F7
:101AF000FDFD20460221FFF739FE20460321FFF7B6
:101B000035FE1920C02102220423FFF7D7F8FFF782
:101B10007FFE3C484FF47A71FFF7E4FEFFF786FC46
:101B2000FFF74AFAFFF718FFFFF7A6FC0420FFF7BC
:101B300051FE4120FFF768FD40A03A4E9FED2A8BF1
:101B400003AD4168B0F808A090F80AB00291FFF721
:101B500053FF28490869C0044FF0805058BF4FF424
:101B60008050886129A1284802882846FEF794FB06
:101B700000202946FFF7D2FB284829493246FFF7C3
:101B8000B7FA308800F08DFC57EC184B22463B46E4
:101B900000F09AFC80467088894600F082FC22465C
:101BA0003B4600F091FC41EC100B28461EA142463A
:101BB0004B468DED000BFEF76FFB40202946FFF7EB
:101BC000ADFB1E4800212A46ADF814A08DF816B0D2
:101BD0000390029804900020FFF7BEFCFFF7A0FCE2
:101BE000B5E700BF00BF00BF9A9999999999B93F8D
:101BF0003038024000040240B313000849130008C3
:101C00009713000800D8B80510000020456E636FD8
:101C1000646572203D202530326400000000002001
:101C2000080000208401002054656D702E202530AE
:101C3000342E31662F2530342E316600C2F0E5ECAB
:101C4000FF203132333400005FEA400C08BF91F0CE
:101C5000000F4FEA8C234FEAC12243EA51514FEA69
:101C60001C5018BF00F5F0404FEA300018BF41F09B
:101C700000415FEA6C5C00F02980BCF1FF3F08BFC7
:101C800040F080407047130C06BF12044FF0100C58
:101C90004FF0000C130E04BF12020CF1080C130FCE
:101CA00004BF12010CF1040C930F04BF92000CF15D
:101CB000020CD30F04BF52000CF1010C11464FF07F
:101CC0000002A0F11F00A0EB0C00704711F0004FC4
:101CD00008BF704731F000413FF4D5AF0B0C06BF91
:101CE00009044FF0100C4FF0000C0B0E04BF09025A
:101CF0000CF1080C0B0F04BF09010CF1040C8B0F45
:101D000004BF89000CF1020CCB0F04BF49000CF199
:101D1000010CCCF1200322FA03F341EA030102FA99
:101D20000CF2A0EB0C0000F10100704723F07F479C
:101D300020F07F4C80EA030000F00040ACEB07038A
:101D400003F57C5303F1FF032DE9804909B44FEA01
:101D5000144324EA03484FEA154B25EA0B4E0FF2D1
:101D6000042606EB13273E7803FB0667C7F500073A
:101D700007FB06F64FEAD64606F102064FEA54374D
:101D800007FB066CCCF1005C4FEA1C472CEA074CC1
:101D90000CFB06F507FB06F404EB15464FEA961616
:101DA00049085FEA320234BF00204FF000404FEA9A
:101DB000D13706FB07FC4FEA1C4C0CFB0BF7D21B80
:101DC00003FB0CF761EB07010CFB0EF7B0EB0740D0
:101DD00072EB17420CFB08F734BFA2EB0742B2EBE1
:101DE000074261EB17414FEA0C444FEA910706FBAB
:101DF00007FC4FEA1C4C0CFB0BF7B0EBC74072EB37
:101E0000573203FB0CF734BFA2EBC742B2EBC74219
:101E100061EB57310CFB0EF7B0EBC70072EB57725A
:101E20000CFB08F734BFA2EBC702B2EBC70261EBB1
:101E300057714FEA816141EA92114FEA826242EAA8
:101E400090124FEA806004EBCC04039F4FEAD13735
:101E500006FB07FC4FEA1C4C0CFB0BF7D21B03FBE9
:101E60000CF761EB07010CFB0EF7B0EB074072EBD0
:101E700017420CFB08F734BFA2EB0742B2EB074254
:101E800061EB17414FEA8C5504EB9C244FEA910714
:101E900006FB07FC4FEA1C4C0CFB0BF7B0EBC740F2
:101EA00072EB573203FB0CF734BFA2EBC742B2EB25
:101EB000C74261EB57310CFB0EF7B0EBC70072EB7A
:101EC00057720CFB08F734BFA2EBC702B2EBC70294
:101ED00061EB57714FEA816141EA92114FEA8262E8
:101EE00042EA90124FEA806015EB4C2544F1000461
:101EF0004FEAD13706FB07FC4FEA1C4C0CFB0BF7F3
:101F0000D21B03FB0CF761EB07010CFB0EF7B0EBE8
:101F1000074072EB17420CFB08F734BFA2EB0742F5
:101F2000B2EB074261EB17414FEA813141EA92413E
:101F30004FEA823242EA90424FEA80304FEA0C7612
:101F400015EB1C1544F1000448EA03434EEA0B4824
:101F50004FF0000EB2EB080C71EB030724BF624692
:101F600039464EEB0E0E4FF0000B0018524149411E
:101F70004BEB0B0BB2EB080C71EB03077BF1000B87
:101F800024BF624639464EEB0E0E4FF0000B001890
:101F9000524149414BEB0B0BB2EB080C71EB0307C1
:101FA0007BF1000B24BF624639464EEB0E0E51EA20
:101FB000020718BF46F0010616EB0E7655F1000237
:101FC00054F1000103D5BDE88901BDE80088BDE8F2
:101FD0008901BDE80048B619524141EB0101A3F166
:101FE0000103704780807F7E7D7C7B7A797877766D
:101FF00076757473727171706F6E6E6D6C6C6B6AE6
:102000006A69686867666665646463636261616083
:10201000605F5F5E5E5D5D5C5C5B5B5A5A59595800
:10202000585757565655555554545353525252516A
:10203000515050504F4F4F4E4E4D4D4D4C4C4C4BC0
:102040004B4B4A4A4A494949484848474747474607
:102050004646454545444444444343434342424243
:10206000424141419C46002B30D477002BD04FEAAF
:1020700037071CB503B44FF010004FF01001BAF150
:10208000000F06D0BCF1000FDCBF40F0080040F0AC
:1020900008014FF000000FBCBDE810400BF1010B30
:1020A000BBF1010F08BF5FEA170722BF12F101025F
:1020B00011F101014FF0004143F1000300F0004035
:1020C00043EA00007047F9D35708D0E746EA0646CE
:1020D0004FEA164613F1400F1FDD13F1200FDFBF4B
:1020E00016430A46002120335B42BED0C3F12007CD
:1020F00046EA06464FEA164602FA07F746EA070698
:1021000022FA03F2C3F1200701FA07F742EA0702B5
:1021100021FA03F14FF00003A7E746EA020646EA78
:1021200006464FEA164646EA0106BCBF46EA0646A0
:10213000360C4FF000034FF000024FF0000194E71F
:102140002DE9804C70B49A46934691E8380007C850
:1021500031EA400C48BF34EA430C03D5FFF7E6FDF3
:10216000FFF780FFF0BCBDE8008C2DE9804C70B417
:102170009A46934691E8380007C810F0804F08BF90
:1021800013F0804F03D100F005F8FFF76BFFF0BCB0
:10219000BDE8008C20F07F4723F07F4C80EA0300ED
:1021A00000F0004007EB0C03A3F57C53A3F1FE0302
:1021B00092F0000F00F0B38095F0000F00F07780F0
:1021C0002DE901494FEA114021EA00484FEA14463F
:1021D00024EA064700FB06FC08FB06F607FB08F8A6
:1021E00018EB06484CEB164C00FB07F718EB0748BA
:1021F0004CEB17404FEA124B22EA0B4E4FEA1546C2
:1022000025EA06470BFB06FC0EFB06F607FB0EFE57
:102210001EEB064E4CEB164C0BFB07F71EEB074E66
:102220004CEB174B18EB0B0840F1000018EB0E0BB2
:1022300058EB000840F100008F1A4FF000014FF0FA
:1022400000063CBFC943661B14BFB5EB040C00215C
:102250003CBFC943F61B4FEA174427EA04454FEA3F
:102260001C472CEA074C04FB076205FB07F70CFB35
:1022700005F616EB074642EB174204FB0CFC16EB87
:102280000C4642EB1C421BEB060658EB0202414196
:102290004EEA8E0E46EA9E0601D5BDE80189B619C2
:1022A000524141EB0101A3F10103BDE801894FEA6D
:1022B000144524EA05464FEA114721EA074C05FB7D
:1022C00007F406FB07F70CFB06F111EB074144EBA3
:1022D000174405FB0CFC11EB0C4144EB1C444FEA8A
:1022E000124722EA074C05FB07F206FB07F70CFB37
:1022F00006F616EB074642EB174205FB0CFC16EB05
:102300000C4642EB1C456A1854F1000148BF704767
:10231000B619524141EB0101A3F10103704795F059
:10232000000F37D04FEA114221EA02464FEA144724
:1023300024EA074C02FB07F106FB07F70CFB06F447
:1023400014EB074441EB174102FB0CFC14EB0C446B
:1023500041EB1C414FEA154725EA074C02FB07F504
:1023600006FB07F70CFB06F616EB074645EB174591
:1023700002FB0CFC16EB0C4645EB1C42121951F10A
:10238000000148BF7047B619524141EB0101A3F16A
:10239000010370474FEA144524EA05464FEA114706
:1023A00021EA074C05FB07F106FB07F70CFB06F2D9
:1023B00012EB074241EB174105FB0CFC12EB0C4200
:1023C00051EB1C414FF0000648BF7047921841EB9B
:1023D0000101A3F10103704703B401984100009883
:1023E00050EAC12018BF04204A0D18BF40F0010078
:1023F00040F2FF72B2EB515F08BF40F002000128CB
:1024000008BF052002B0704730380A2801D20120E9
:10241000704700207047000010B500290AD00878E6
:10242000002807D005487844FEF702FC002801D0B8
:10243000002010BD0248784410BD00008208000052
:102440007A0800004FEA41034FEA5353A3F5806333
:10245000D3F11E03C8BFD3F1210C0CDD4FF00042B5
:1024600042EAC12242EA505232FA03FC8CEAE17C91
:10247000ACEBE1707047102BC4BF0020704703F530
:10248000787CBCF1FF3F04D06FF0004282EA21006B
:10249000704770B500F0C2F8499224800020704760
:1024A000F2E7B0FA80F310FA03F10AD0C3F11D038A
:1024B00003F580634FEA03524FEA415002EBD1210A
:1024C00070474FF00000704770B5DFF848C11CEA54
:1024D000111E1EBF1CEA13159EEA0C0F95EA0C0F85
:1024E00000F06F8081EA03044EEAD47EAE4421EA14
:1024F0004C1123EA4C1341F4801143F48013AEF1E4
:102500007F7EA1FB024CA0FB0365361955EB0C0541
:10251000A1FB034C4CF10003A0FB021C16EB0C06C4
:10252000654153F10003094218BF46F0010613F458
:10253000007F0BD14FEA03314FEA053041EA1551D4
:1025400040EA165034036FF003020AE04FEAC32159
:102550004FEAC52041EA555140EA5650F4026FF067
:10256000020202EB2E4201EB025585EACE710AD03F
:102570005FEA440C18BF24F0004450F1000041F120
:10258000000120EAD47040F2FE7C624500D270BDAA
:10259000A84214BF4FF080444FF04044002E08BFC3
:1025A0000024BEF1806FA8BFA1F1C041BDE870401A
:1025B00080F2828001F1C04101F000414FF0000043
:1025C00070470CEA13159EEA0C0F18BF95EA0C0F22
:1025D00006D081EA030E4FF000000EF0004170BDFE
:1025E00000F01CF88900013E00F007B800F009B8BF
:1025F0004FEA430C5FEA5C5C08D081EA030100F01B
:102600005BB84FEA410C5FEA5C5CF6D102494FF0DF
:10261000000070470000FF070000F87F0EF1020E77
:102620002EF0030E5EF8046B364205D4012A43EB0C
:10263000030515F5001F12D8012841EB010C1CF50C
:10264000001F0CD80ED14FEAD17C0CEB4C0C0CF1D6
:10265000020C15F5001F08BF4CEBD37C04E04FF0D3
:10266000080C01E04FEAD37C0CEB4C0526FA05F68A
:1026700006F00706B6F1040C06D20EEB860CBDE898
:1026800070404CF0010C6047DFE80CF0090B0202CF
:102690004FF00041A1F500214FF0000070BD194638
:1026A0001046012851EB010418BFD4F5001484BF73
:1026B000002001F0004170BD0808A0F500114FEAAC
:1026C00031017047F1EE100A4FF6FF71C0F2C031D0
:1026D00020EA010040F04070E1EE100A7047FEF77A
:1026E00023B8040000080000000000000002000100
:1026F0000000100002400000000000A000000000E8
:1027000005400000000000C8000000000C40000070
:102710000000409C00000000194000000020BCBEEA
:102720000000000034400000BFC91B8E0000000400
:10273000B5400000504BCFD06607E2CF010000004B
:102740006C4100003E8251AADFEEA7340100000078
:10275000D9420000DCB5A0E23A301F97FFFFFFFF2F
:10276000B4450000FD25A0C8E9A3C14FFFFFFFFF4E
:10277000FF3F00000000008000000000FF3F00005D
:1027800000000080000000000000000000020502C0
:102790000000000000000000000000000000000039
:1027A0000000000000000000000000000000000029
:1027B0000000000000000000000000000000000019
:1027C0000000000000000000000000000000000009
:1027D00000000000000000000000000000000000F9
:1027E00000000000000000000000000000000000E9
:1027F00000000000000000000000000000000000D9
:1028000000000000000000000000000000000000C8
:1028100000000000000000000000000000000000B8
:102820000000000000000000000000000000005F49
:1028300000000007000700147F147F14242A7F2A59
:10284000124C2C10686436495522500005030000D4
:10285000001C2241000041221C0014083E081408FC
:10286000083E0808000050300010101010100060E2
:1028700060000020100804023E5149453E00427F9E
:10288000400042615149462141454B311814127FA5
:102890001027454545393C4A49493001710905032E
:1028A0003649494936064949291E00363600000096
:1028B0005636000008142241001414141414004168
:1028C00022140802015109063C425A560C7E11118D
:1028D000117E7F494949363E414141227F41412293
:1028E0001C7F494949417F090909013E4149497A0B
:1028F0007F0808087F00417F41002040413F017F61
:10290000081422417F404040407F020C027F7F0438
:1029100008107F3E4141413E7F090909063E415171
:10292000215E7F09192946464949493101017F0144
:10293000013F4040403F1F2040201F3F4038403F64
:102940006314081463070870080761514945430080
:102950007F41410002040810200041417F00040231
:102960000102044040404040000102040020545451
:1029700054787F48444438384444442038444448D8
:102980007F3854545418087E090102189494947C9A
:102990007F0804047800447D40002040443D007FCF
:1029A0001028440000417F40007C041804787C0813
:1029B00004047838444444387C141414080814146B
:1029C000187C7C080404084854545420043F4440B4
:1029D000203C4040207C1C2040201C3C4030403C9F
:1029E00044281028440C5050503C4464544C44003B
:1029F0000836410000007F0000004136080008044E
:102A000008100800000000000000000000000000A6
:102A100000000000000000000000000000000000B6
:102A20000040004000400404FF04042424FF242448
:102A3000287CAAAA8200000000000000000000001C
:102A40000000000000000000000000000000000086
:102A5000000000000000000000000000000006056B
:102A6000000000000503000605000605050300053B
:102A700003183C3C3C18000000000000000000006F
:102A800078484878000000000000000000000000C6
:102A90000000000000000000000000000000000036
:102AA0000000000000000000000000000000000026
:102AB000000000000000000000000000221C141CA8
:102AC000227E020202030000E700004A95A5A952F7
:102AD0007C5554454400182424003E4949412208AD
:102AE000142A1422040404040C000808080000003E
:102AF00000000000457C450000040A040044445FD7
:102B0000444400417F410000007A00000078080C36
:102B10000000FC203C200C1EFE02FE0018180000E5
:102B200039545449007810207B033854544400220F
:102B3000142A14080000000000000000000000003B
:102B400000000000547044007C1211127C7F49493F
:102B500049317F494949367F01010101603F213FE9
:102B6000607F4949494177087F08772241494936C2
:102B70007F1008047F7E1009047E7F0814224140E4
:102B80003E01017F7F020C027F7F0808087F3E41E3
:102B900041413E7F0101017F7F090909063E414114
:102BA000412201017F0101074848483F0E117F1172
:102BB0000E63140814633F20203F60070808087F55
:102BC0007F407E407F3F203F207F017F4848307F0D
:102BD0004830007F007F484830224149493E7F0805
:102BE0003E413E462919097F20545454783C4A4AB4
:102BF0004A317C545454287C04040C00603C243C2E
:102C00006038545454186C107C106C44545454283C
:102C10007C2010087C7C2112097C7C102844004018
:102C20003804047C7C0810087C7C1010107C38442C
:102C30004444387C0404047C7C1414140838444450
:102C4000440004047C04040C5050503C08147C14D0
:102C50000844281028443C20203C600C1010107CB4
:102C60007C407C407C3C203C207C047C5050207C80
:102C70005020007C007C50502028445454387C1054
:102C8000384438485434147CC42C00080000002018
:102C900014000000D4010008D82C000818000020FF
:102CA000B8090000F00100081C000000430000000B
:102CB000F8FFFFFF0C0000000E0000000F000000F6
:102CC0002E00000028E4BC75D0013C6C28690C750E
:082CD000D0013C830A00000062
:040000050800025994
:00000001FF
